{
  "_format": "hh-sol-artifact-1",
  "contractName": "ChiToken",
  "sourceName": "src/contracts/test/vendor/ChiToken.sol",
  "abi": [
    {
      "anonymous": false,
      "inputs": [
        {
          "indexed": true,
          "internalType": "address",
          "name": "owner",
          "type": "address"
        },
        {
          "indexed": true,
          "internalType": "address",
          "name": "spender",
          "type": "address"
        },
        {
          "indexed": false,
          "internalType": "uint256",
          "name": "value",
          "type": "uint256"
        }
      ],
      "name": "Approval",
      "type": "event"
    },
    {
      "anonymous": false,
      "inputs": [
        {
          "indexed": true,
          "internalType": "address",
          "name": "from",
          "type": "address"
        },
        {
          "indexed": true,
          "internalType": "address",
          "name": "to",
          "type": "address"
        },
        {
          "indexed": false,
          "internalType": "uint256",
          "name": "value",
          "type": "uint256"
        }
      ],
      "name": "Transfer",
      "type": "event"
    },
    {
      "inputs": [
        {
          "internalType": "address",
          "name": "owner",
          "type": "address"
        },
        {
          "internalType": "address",
          "name": "spender",
          "type": "address"
        }
      ],
      "name": "allowance",
      "outputs": [
        {
          "internalType": "uint256",
          "name": "",
          "type": "uint256"
        }
      ],
      "stateMutability": "view",
      "type": "function"
    },
    {
      "inputs": [
        {
          "internalType": "address",
          "name": "spender",
          "type": "address"
        },
        {
          "internalType": "uint256",
          "name": "amount",
          "type": "uint256"
        }
      ],
      "name": "approve",
      "outputs": [
        {
          "internalType": "bool",
          "name": "",
          "type": "bool"
        }
      ],
      "stateMutability": "nonpayable",
      "type": "function"
    },
    {
      "inputs": [
        {
          "internalType": "address",
          "name": "account",
          "type": "address"
        }
      ],
      "name": "balanceOf",
      "outputs": [
        {
          "internalType": "uint256",
          "name": "",
          "type": "uint256"
        }
      ],
      "stateMutability": "view",
      "type": "function"
    },
    {
      "inputs": [
        {
          "internalType": "uint256",
          "name": "salt",
          "type": "uint256"
        }
      ],
      "name": "computeAddress2",
      "outputs": [
        {
          "internalType": "address",
          "name": "child",
          "type": "address"
        }
      ],
      "stateMutability": "pure",
      "type": "function"
    },
    {
      "inputs": [],
      "name": "decimals",
      "outputs": [
        {
          "internalType": "uint8",
          "name": "",
          "type": "uint8"
        }
      ],
      "stateMutability": "view",
      "type": "function"
    },
    {
      "inputs": [
        {
          "internalType": "uint256",
          "name": "value",
          "type": "uint256"
        }
      ],
      "name": "free",
      "outputs": [
        {
          "internalType": "uint256",
          "name": "",
          "type": "uint256"
        }
      ],
      "stateMutability": "nonpayable",
      "type": "function"
    },
    {
      "inputs": [
        {
          "internalType": "address",
          "name": "from",
          "type": "address"
        },
        {
          "internalType": "uint256",
          "name": "value",
          "type": "uint256"
        }
      ],
      "name": "freeFrom",
      "outputs": [
        {
          "internalType": "uint256",
          "name": "",
          "type": "uint256"
        }
      ],
      "stateMutability": "nonpayable",
      "type": "function"
    },
    {
      "inputs": [
        {
          "internalType": "address",
          "name": "from",
          "type": "address"
        },
        {
          "internalType": "uint256",
          "name": "value",
          "type": "uint256"
        }
      ],
      "name": "freeFromUpTo",
      "outputs": [
        {
          "internalType": "uint256",
          "name": "",
          "type": "uint256"
        }
      ],
      "stateMutability": "nonpayable",
      "type": "function"
    },
    {
      "inputs": [
        {
          "internalType": "uint256",
          "name": "value",
          "type": "uint256"
        }
      ],
      "name": "freeUpTo",
      "outputs": [
        {
          "internalType": "uint256",
          "name": "",
          "type": "uint256"
        }
      ],
      "stateMutability": "nonpayable",
      "type": "function"
    },
    {
      "inputs": [
        {
          "internalType": "uint256",
          "name": "value",
          "type": "uint256"
        }
      ],
      "name": "mint",
      "outputs": [],
      "stateMutability": "nonpayable",
      "type": "function"
    },
    {
      "inputs": [],
      "name": "name",
      "outputs": [
        {
          "internalType": "string",
          "name": "",
          "type": "string"
        }
      ],
      "stateMutability": "view",
      "type": "function"
    },
    {
      "inputs": [],
      "name": "symbol",
      "outputs": [
        {
          "internalType": "string",
          "name": "",
          "type": "string"
        }
      ],
      "stateMutability": "view",
      "type": "function"
    },
    {
      "inputs": [],
      "name": "totalBurned",
      "outputs": [
        {
          "internalType": "uint256",
          "name": "",
          "type": "uint256"
        }
      ],
      "stateMutability": "view",
      "type": "function"
    },
    {
      "inputs": [],
      "name": "totalMinted",
      "outputs": [
        {
          "internalType": "uint256",
          "name": "",
          "type": "uint256"
        }
      ],
      "stateMutability": "view",
      "type": "function"
    },
    {
      "inputs": [],
      "name": "totalSupply",
      "outputs": [
        {
          "internalType": "uint256",
          "name": "",
          "type": "uint256"
        }
      ],
      "stateMutability": "view",
      "type": "function"
    },
    {
      "inputs": [
        {
          "internalType": "address",
          "name": "recipient",
          "type": "address"
        },
        {
          "internalType": "uint256",
          "name": "amount",
          "type": "uint256"
        }
      ],
      "name": "transfer",
      "outputs": [
        {
          "internalType": "bool",
          "name": "",
          "type": "bool"
        }
      ],
      "stateMutability": "nonpayable",
      "type": "function"
    },
    {
      "inputs": [
        {
          "internalType": "address",
          "name": "sender",
          "type": "address"
        },
        {
          "internalType": "address",
          "name": "recipient",
          "type": "address"
        },
        {
          "internalType": "uint256",
          "name": "amount",
          "type": "uint256"
        }
      ],
      "name": "transferFrom",
      "outputs": [
        {
          "internalType": "bool",
          "name": "",
          "type": "bool"
        }
      ],
      "stateMutability": "nonpayable",
      "type": "function"
    }
  ],
  "bytecode": "0x608060405234801561001057600080fd5b50610e6f806100206000396000f3fe608060405234801561001057600080fd5b506004361061011b5760003560e01c806370a08231116100b2578063a9059cbb11610081578063d89135cd11610066578063d89135cd146103d5578063d8ccd0f3146103dd578063dd62ed3e146103fa5761011b565b8063a9059cbb14610356578063b0ac19a01461038f5761011b565b806370a08231146102f457806395d89b4114610327578063a0712d681461032f578063a2309ff81461034e5761011b565b806323b872dd116100ee57806323b872dd1461023d578063313ce567146102805780635f2e2b451461029e5780636366b936146102d75761011b565b806306fdde0314610120578063079d229f1461019d578063095ea7b3146101e857806318160ddd14610235575b600080fd5b610128610435565b6040805160208082528351818301528351919283929083019185019080838360005b8381101561016257818101518382015260200161014a565b50505050905090810190601f16801561018f5780820380516001836020036101000a031916815260200191505b509250505060405180910390f35b6101d6600480360360408110156101b357600080fd5b5073ffffffffffffffffffffffffffffffffffffffff813516906020013561046e565b60408051918252519081900360200190f35b610221600480360360408110156101fe57600080fd5b5073ffffffffffffffffffffffffffffffffffffffff813516906020013561049f565b604080519115158252519081900360200190f35b6101d66104b5565b6102216004803603606081101561025357600080fd5b5073ffffffffffffffffffffffffffffffffffffffff8135811691602081013590911690604001356104bf565b610288610540565b6040805160ff9092168252519081900360200190f35b6101d6600480360360408110156102b457600080fd5b5073ffffffffffffffffffffffffffffffffffffffff8135169060200135610545565b6101d6600480360360208110156102ed57600080fd5b5035610566565b6101d66004803603602081101561030a57600080fd5b503573ffffffffffffffffffffffffffffffffffffffff16610583565b6101286105ab565b61034c6004803603602081101561034557600080fd5b50356105e4565b005b6101d66107f4565b6102216004803603604081101561036c57600080fd5b5073ffffffffffffffffffffffffffffffffffffffff81351690602001356107fa565b6103ac600480360360208110156103a557600080fd5b5035610807565b6040805173ffffffffffffffffffffffffffffffffffffffff9092168252519081900360200190f35b6101d6610878565b6101d6600480360360208110156103f357600080fd5b503561087e565b6101d66004803603604081101561041057600080fd5b5073ffffffffffffffffffffffffffffffffffffffff8135811691602001351661089d565b6040518060400160405280601281526020017f43686920546f6b656e2062792031696e6368000000000000000000000000000081525081565b6000610498836104936104898561048488610583565b6108d5565b610484873361089d565b610545565b9392505050565b60006104ac3384846108eb565b50600192915050565b6003546002540390565b60006104cc84848461095a565b73ffffffffffffffffffffffffffffffffffffffff8416600090815260016020908152604080832033845290915290205460ff81901c61053557610535853361053086604051806060016040528060288152602001610dee60289139869190610a47565b6108eb565b506001949350505050565b600081565b60008115610560576105578383610af8565b61056082610b6b565b50919050565b600061057d6105788361048433610583565b61087e565b92915050565b73ffffffffffffffffffffffffffffffffffffffff1660009081526020819052604090205490565b6040518060400160405280600381526020017f434849000000000000000000000000000000000000000000000000000000000081525081565b6002547f746d4946c0e9f43f4dee607b0ef1fa1c3318585733ff6000526015600bf30000600052602082045b80156107a15781601e600080f55060018201601e600080f55060028201601e600080f55060038201601e600080f55060048201601e600080f55060058201601e600080f55060068201601e600080f55060078201601e600080f55060088201601e600080f55060098201601e600080f550600a8201601e600080f550600b8201601e600080f550600c8201601e600080f550600d8201601e600080f550600e8201601e600080f550600f8201601e600080f55060108201601e600080f55060118201601e600080f55060128201601e600080f55060138201601e600080f55060148201601e600080f55060158201601e600080f55060168201601e600080f55060178201601e600080f55060188201601e600080f55060198201601e600080f550601a8201601e600080f550601b8201601e600080f550601c8201601e600080f550601d8201601e600080f550601e8201601e600080f550601f8201601e600080f550602091909101907fffffffffffffffffffffffffffffffffffffffffffffffffffffffffffffffff01610610565b50601f82165b80156107e35781601e600080f550600191909101907fffffffffffffffffffffffffffffffffffffffffffffffffffffffffffffffff016107a7565b506107ee3383610bf2565b60025550565b60025481565b60006104ac33848461095a565b6040517fff0000000000004946c0e9f43f4dee607b0ef1fa1c0000000000000000000000815260158101919091527f3c1644c68e5d6cb380c36d1bf847fdbc0c7ac28030025a2fc5e63cce23c1634860358201526055902073ffffffffffffffffffffffffffffffffffffffff1690565b60035481565b60008115610899576108903383610c85565b61089982610b6b565b5090565b73ffffffffffffffffffffffffffffffffffffffff918216600090815260016020908152604080832093909416825291909152205490565b60008183106108e45781610498565b5090919050565b73ffffffffffffffffffffffffffffffffffffffff808416600081815260016020908152604080832094871680845294825291829020859055815185815291517f8c5be1e5ebec7d5bd14f71427d1e84f3dd0314c0f7b2291e5b200ac8c7c3b9259281900390910190a3505050565b6109a481604051806060016040528060268152602001610dc86026913973ffffffffffffffffffffffffffffffffffffffff86166000908152602081905260409020549190610a47565b73ffffffffffffffffffffffffffffffffffffffff80851660009081526020819052604080822093909355908416815220546109e09082610d31565b73ffffffffffffffffffffffffffffffffffffffff8084166000818152602081815260409182902094909455805185815290519193928716927fddf252ad1be2c89b69c2b068fc378daa952ba7f163c4a11628f55a4df523b3ef92918290030190a3505050565b60008184841115610af0576040517f08c379a00000000000000000000000000000000000000000000000000000000081526004018080602001828103825283818151815260200191508051906020019080838360005b83811015610ab5578181015183820152602001610a9d565b50505050905090810190601f168015610ae25780820380516001836020036101000a031916815260200191505b509250505060405180910390fd5b505050900390565b610b028282610c85565b73ffffffffffffffffffffffffffffffffffffffff8216600090815260016020908152604080832033845290915290205460ff81901c610b6657610b66833361053085604051806060016040528060248152602001610e1660249139869190610a47565b505050565b600354818101806003556040517fff0000000000004946c0e9f43f4dee607b0ef1fa1c000000000000000000000081527f3c1644c68e5d6cb380c36d1bf847fdbc0c7ac28030025a2fc5e63cce23c163486035820152601581015b82841015610beb578381526000806000806000605587205af150600184019350610bc6565b5050505050565b73ffffffffffffffffffffffffffffffffffffffff8216600090815260208190526040902054610c229082610d31565b73ffffffffffffffffffffffffffffffffffffffff83166000818152602081815260408083209490945583518581529351929391927fddf252ad1be2c89b69c2b068fc378daa952ba7f163c4a11628f55a4df523b3ef9281900390910190a35050565b610ccf81604051806060016040528060228152602001610da66022913973ffffffffffffffffffffffffffffffffffffffff85166000908152602081905260409020549190610a47565b73ffffffffffffffffffffffffffffffffffffffff8316600081815260208181526040808320949094558351858152935191937fddf252ad1be2c89b69c2b068fc378daa952ba7f163c4a11628f55a4df523b3ef929081900390910190a35050565b60008282018381101561049857604080517f08c379a000000000000000000000000000000000000000000000000000000000815260206004820152601b60248201527f536166654d6174683a206164646974696f6e206f766572666c6f770000000000604482015290519081900360640190fdfe45524332303a206275726e20616d6f756e7420657863656564732062616c616e636545524332303a207472616e7366657220616d6f756e7420657863656564732062616c616e636545524332303a207472616e7366657220616d6f756e74206578636565647320616c6c6f77616e636545524332303a206275726e20616d6f756e74206578636565647320616c6c6f77616e6365a2646970667358221220d2b67e1cb237faf2961624a3516752cf0327ce3a4568fb7daa701f18c7e2a6ae64736f6c63430007060033",
  "linkReferences": {},
  "deployedLinkReferences": {}
}