{
  "_format": "hh-sol-artifact-1",
  "contractName": "GPv2SafeERC20TestInterface",
  "sourceName": "src/contracts/test/GPv2SafeERC20TestInterface.sol",
  "abi": [
    {
      "inputs": [
        {
          "internalType": "contract IERC20",
          "name": "token",
          "type": "address"
        },
        {
          "internalType": "address",
          "name": "to",
          "type": "address"
        },
        {
          "internalType": "uint256",
          "name": "value",
          "type": "uint256"
        }
      ],
      "name": "transfer",
      "outputs": [],
      "stateMutability": "nonpayable",
      "type": "function"
    },
    {
      "inputs": [
        {
          "internalType": "contract IERC20",
          "name": "token",
          "type": "address"
        },
        {
          "internalType": "address",
          "name": "from",
          "type": "address"
        },
        {
          "internalType": "address",
          "name": "to",
          "type": "address"
        },
        {
          "internalType": "uint256",
          "name": "value",
          "type": "uint256"
        }
      ],
      "name": "transferFrom",
      "outputs": [],
      "stateMutability": "nonpayable",
      "type": "function"
    }
  ],
  "bytecode": "0x608060405234801561001057600080fd5b50610425806100206000396000f3fe608060405234801561001057600080fd5b50600436106100365760003560e01c806315dacbea1461003b578063beabacc814610050575b600080fd5b61004e61004936600461033a565b610063565b005b61004e61005e36600461038a565b61008b565b61008573ffffffffffffffffffffffffffffffffffffffff85168484846100b1565b50505050565b6100ac73ffffffffffffffffffffffffffffffffffffffff84168383610198565b505050565b6040517f23b872dd0000000000000000000000000000000000000000000000000000000080825273ffffffffffffffffffffffffffffffffffffffff8581166004840152841660248301526044820183905290600080606483828a5af161011c573d6000803e3d6000fd5b5061012685610270565b61019157604080517f08c379a000000000000000000000000000000000000000000000000000000000815260206004820152601960248201527f475076323a206661696c6564207472616e7366657246726f6d00000000000000604482015290519081900360640190fd5b5050505050565b6040517fa9059cbb0000000000000000000000000000000000000000000000000000000080825273ffffffffffffffffffffffffffffffffffffffff84166004830152602482018390529060008060448382895af16101fb573d6000803e3d6000fd5b5061020584610270565b61008557604080517f08c379a000000000000000000000000000000000000000000000000000000000815260206004820152601560248201527f475076323a206661696c6564207472616e736665720000000000000000000000604482015290519081900360640190fd5b60006102ae565b7f08c379a0000000000000000000000000000000000000000000000000000000006000526020600452806024528160445260646000fd5b3d80156102ed5760208114610327576102e87f475076323a206d616c666f726d6564207472616e7366657220726573756c7400601f610277565b610334565b823b61031e5761031e7f475076323a206e6f74206120636f6e74726163740000000000000000000000006014610277565b60019150610334565b3d6000803e600051151591505b50919050565b6000806000806080858703121561034f578384fd5b843561035a816103ca565b9350602085013561036a816103ca565b9250604085013561037a816103ca565b9396929550929360600135925050565b60008060006060848603121561039e578283fd5b83356103a9816103ca565b925060208401356103b9816103ca565b929592945050506040919091013590565b73ffffffffffffffffffffffffffffffffffffffff811681146103ec57600080fd5b5056fea2646970667358221220cb2cff8ef08d98d8697280dbc694a6ed8acd5a863a0043078cefb4f7fc5f6edf64736f6c63430007060033",
  "linkReferences": {},
  "deployedLinkReferences": {}
}