{
  "_format": "hh-sol-artifact-1",
  "contractName": "GPv2SigningTestInterface",
  "sourceName": "src/contracts/test/GPv2SigningTestInterface.sol",
  "abi": [
    {
      "anonymous": false,
      "inputs": [
        {
          "indexed": true,
          "internalType": "address",
          "name": "owner",
          "type": "address"
        },
        {
          "indexed": false,
          "internalType": "bytes",
          "name": "orderUid",
          "type": "bytes"
        },
        {
          "indexed": false,
          "internalType": "bool",
          "name": "signed",
          "type": "bool"
        }
      ],
      "name": "PreSignature",
      "type": "event"
    },
    {
      "inputs": [],
      "name": "domainSeparator",
      "outputs": [
        {
          "internalType": "bytes32",
          "name": "",
          "type": "bytes32"
        }
      ],
      "stateMutability": "view",
      "type": "function"
    },
    {
      "inputs": [
        {
          "internalType": "bytes",
          "name": "",
          "type": "bytes"
        }
      ],
      "name": "preSignature",
      "outputs": [
        {
          "internalType": "uint256",
          "name": "",
          "type": "uint256"
        }
      ],
      "stateMutability": "view",
      "type": "function"
    },
    {
      "inputs": [
        {
          "internalType": "contract IERC20[]",
          "name": "tokens",
          "type": "address[]"
        },
        {
          "components": [
            {
              "internalType": "uint256",
              "name": "sellTokenIndex",
              "type": "uint256"
            },
            {
              "internalType": "uint256",
              "name": "buyTokenIndex",
              "type": "uint256"
            },
            {
              "internalType": "address",
              "name": "receiver",
              "type": "address"
            },
            {
              "internalType": "uint256",
              "name": "sellAmount",
              "type": "uint256"
            },
            {
              "internalType": "uint256",
              "name": "buyAmount",
              "type": "uint256"
            },
            {
              "internalType": "uint32",
              "name": "validTo",
              "type": "uint32"
            },
            {
              "internalType": "bytes32",
              "name": "appData",
              "type": "bytes32"
            },
            {
              "internalType": "uint256",
              "name": "feeAmount",
              "type": "uint256"
            },
            {
              "internalType": "uint256",
              "name": "flags",
              "type": "uint256"
            },
            {
              "internalType": "uint256",
              "name": "executedAmount",
              "type": "uint256"
            },
            {
              "internalType": "bytes",
              "name": "signature",
              "type": "bytes"
            }
          ],
          "internalType": "struct GPv2Trade.Data",
          "name": "trade",
          "type": "tuple"
        }
      ],
      "name": "recoverOrderFromTradeTest",
      "outputs": [
        {
          "components": [
            {
              "components": [
                {
                  "internalType": "contract IERC20",
                  "name": "sellToken",
                  "type": "address"
                },
                {
                  "internalType": "contract IERC20",
                  "name": "buyToken",
                  "type": "address"
                },
                {
                  "internalType": "address",
                  "name": "receiver",
                  "type": "address"
                },
                {
                  "internalType": "uint256",
                  "name": "sellAmount",
                  "type": "uint256"
                },
                {
                  "internalType": "uint256",
                  "name": "buyAmount",
                  "type": "uint256"
                },
                {
                  "internalType": "uint32",
                  "name": "validTo",
                  "type": "uint32"
                },
                {
                  "internalType": "bytes32",
                  "name": "appData",
                  "type": "bytes32"
                },
                {
                  "internalType": "uint256",
                  "name": "feeAmount",
                  "type": "uint256"
                },
                {
                  "internalType": "bytes32",
                  "name": "kind",
                  "type": "bytes32"
                },
                {
                  "internalType": "bool",
                  "name": "partiallyFillable",
                  "type": "bool"
                },
                {
                  "internalType": "bytes32",
                  "name": "sellTokenBalance",
                  "type": "bytes32"
                },
                {
                  "internalType": "bytes32",
                  "name": "buyTokenBalance",
                  "type": "bytes32"
                }
              ],
              "internalType": "struct GPv2Order.Data",
              "name": "data",
              "type": "tuple"
            },
            {
              "internalType": "bytes",
              "name": "uid",
              "type": "bytes"
            },
            {
              "internalType": "address",
              "name": "owner",
              "type": "address"
            },
            {
              "internalType": "address",
              "name": "receiver",
              "type": "address"
            }
          ],
          "internalType": "struct GPv2Signing.RecoveredOrder",
          "name": "recoveredOrder",
          "type": "tuple"
        }
      ],
      "stateMutability": "view",
      "type": "function"
    },
    {
      "inputs": [
        {
          "components": [
            {
              "internalType": "contract IERC20",
              "name": "sellToken",
              "type": "address"
            },
            {
              "internalType": "contract IERC20",
              "name": "buyToken",
              "type": "address"
            },
            {
              "internalType": "address",
              "name": "receiver",
              "type": "address"
            },
            {
              "internalType": "uint256",
              "name": "sellAmount",
              "type": "uint256"
            },
            {
              "internalType": "uint256",
              "name": "buyAmount",
              "type": "uint256"
            },
            {
              "internalType": "uint32",
              "name": "validTo",
              "type": "uint32"
            },
            {
              "internalType": "bytes32",
              "name": "appData",
              "type": "bytes32"
            },
            {
              "internalType": "uint256",
              "name": "feeAmount",
              "type": "uint256"
            },
            {
              "internalType": "bytes32",
              "name": "kind",
              "type": "bytes32"
            },
            {
              "internalType": "bool",
              "name": "partiallyFillable",
              "type": "bool"
            },
            {
              "internalType": "bytes32",
              "name": "sellTokenBalance",
              "type": "bytes32"
            },
            {
              "internalType": "bytes32",
              "name": "buyTokenBalance",
              "type": "bytes32"
            }
          ],
          "internalType": "struct GPv2Order.Data",
          "name": "order",
          "type": "tuple"
        },
        {
          "internalType": "enum GPv2Signing.Scheme",
          "name": "signingScheme",
          "type": "uint8"
        },
        {
          "internalType": "bytes",
          "name": "signature",
          "type": "bytes"
        }
      ],
      "name": "recoverOrderSignerTest",
      "outputs": [
        {
          "internalType": "address",
          "name": "owner",
          "type": "address"
        }
      ],
      "stateMutability": "view",
      "type": "function"
    },
    {
      "inputs": [
        {
          "internalType": "bytes",
          "name": "orderUid",
          "type": "bytes"
        },
        {
          "internalType": "bool",
          "name": "signed",
          "type": "bool"
        }
      ],
      "name": "setPreSignature",
      "outputs": [],
      "stateMutability": "nonpayable",
      "type": "function"
    }
  ],
  "bytecode": "0x60a060405234801561001057600080fd5b50604080517f8b73c3c69bb8fe3d512ecc4cf759cc79239f7b179b0ffacaa9a75d522b39400f6020808301919091527f6c85c0337eba1661327f94f3bf46c8a7f9311a563f4d5c948362567f5d8ed60c828401527ff9446b8e937d86f0bc87cac73923491692b123ca5f8761908494703758206adf6060830152466080808401919091523060a0808501919091528451808503909101815260c0909301909352815191012090526080516114ba6100d66000398061030d528061040352506114ba6000f3fe608060405234801561001057600080fd5b50600436106100675760003560e01c8063d23d230311610050578063d23d2303146100b5578063ec6cb13f146100d5578063f698da25146100ea57610067565b80633909ce231461006c578063d08d33d114610095575b600080fd5b61007f61007a366004610f75565b6100f2565b60405161008c91906112d1565b60405180910390f35b6100a86100a336600461105e565b610117565b60405161008c91906112c8565b6100c86100c3366004611103565b610134565b60405161008c91906112a7565b6100e86100e336600461100c565b61014c565b005b6100a861030b565b6100fa610e41565b61010261032f565b90506101108185858561035c565b9392505050565b805160208183018101805160008252928201919093012091525481565b6000610142858585856103fa565b9695505050505050565b600061015884846104a9565b5091505073ffffffffffffffffffffffffffffffffffffffff811633146101e057604080517f08c379a000000000000000000000000000000000000000000000000000000000815260206004820152601a60248201527f475076323a2063616e6e6f74207072657369676e206f72646572000000000000604482015290519081900360640190fd5b811561023a577ff59c009283ff87aa78203fc4d9c2df025ee851130fb69cc3e068941f6b5e2d6f60001c60008585604051808383808284378083019250505092505050908152602001604051809103902081905550610266565b600080858560405180838380828437919091019485525050604051928390036020019092209290925550505b8073ffffffffffffffffffffffffffffffffffffffff167f01bf7c8b0ca55deecbea89d7e58295b7ffbf685fd0d96801034ba8c6ffe1c68d858585604051808060200183151581526020018281038252858582818152602001925080828437600083820152604051601f9091017fffffffffffffffffffffffffffffffffffffffffffffffffffffffffffffffe016909201829003965090945050505050a250505050565b7f000000000000000000000000000000000000000000000000000000000000000081565b610337610e41565b6040805160388082526060820190925290602082018180368337505050602082015290565b8351600061036c83868685610537565b905060008061038984846103846101408901896113d5565b6103fa565b915091506103ac82828660a001518b6020015161061f909392919063ffffffff16565b73ffffffffffffffffffffffffffffffffffffffff811660408901526103d284826106a1565b73ffffffffffffffffffffffffffffffffffffffff1660609098019790975250505050505050565b600080610427867f00000000000000000000000000000000000000000000000000000000000000006106d7565b9150600085600381111561043757fe5b141561044f57610448828585610761565b90506104a0565b600185600381111561045d57fe5b141561046e57610448828585610776565b600285600381111561047c57fe5b141561048d576104488285856107de565b61049d8285858960a0015161097c565b90505b94509492505050565b600080806038841461051c57604080517f08c379a000000000000000000000000000000000000000000000000000000000815260206004820152601160248201527f475076323a20696e76616c696420756964000000000000000000000000000000604482015290519081900360640190fd5b5050823593602084013560601c936034013560e01c92509050565b60008383863581811061054657fe5b6020908102929092013573ffffffffffffffffffffffffffffffffffffffff168452508490849087013581811061057957fe5b73ffffffffffffffffffffffffffffffffffffffff602091820293909301358316908501525060408087013590911690830152606080860135908301526080808601359083015263ffffffff60a080870135919091169083015260c0808601359083015260e080860135908301526105f5610100860135610b41565b61016087019190915261014086019190915290151561012085015261010090930152509392505050565b603884511461068f57604080517f08c379a000000000000000000000000000000000000000000000000000000000815260206004820152601960248201527f475076323a2075696420627566666572206f766572666c6f7700000000000000604482015290519081900360640190fd5b60388401526034830152602090910152565b604082015160009073ffffffffffffffffffffffffffffffffffffffff166106ca5750806106d1565b5060408201515b92915050565b7fffffffffffffffffffffffffffffffffffffffffffffffffffffffffffffffe090910180517fd5a25ba2e97094ad7d83dc28a6572da797d6b3e7fc6663bd93efb789fc17e48982526101a0822091526040517f19010000000000000000000000000000000000000000000000000000000000008152600281019290925260228201526042902090565b600061076e848484610c96565b949350505050565b6000808460405160200180807f19457468657265756d205369676e6564204d6573736167653a0a333200000000815250601c018281526020019150506040516020818303038152906040528051906020012090506107d5818585610c96565b95945050505050565b813560601c3660006107f3846014818861145c565b604080517f1626ba7e00000000000000000000000000000000000000000000000000000000808252600482018b81526024830193845260448301859052949650929450919273ffffffffffffffffffffffffffffffffffffffff871692631626ba7e928b928892889290606401848480828437600083820152604051601f9091017fffffffffffffffffffffffffffffffffffffffffffffffffffffffffffffffe016909201965060209550909350505081840390508186803b1580156108b957600080fd5b505afa1580156108cd573d6000803e3d6000fd5b505050506040513d60208110156108e357600080fd5b50517fffffffff00000000000000000000000000000000000000000000000000000000161461097357604080517f08c379a000000000000000000000000000000000000000000000000000000000815260206004820152601f60248201527f475076323a20696e76616c69642065697031323731207369676e617475726500604482015290519081900360640190fd5b50509392505050565b6000601483146109ed57604080517f08c379a000000000000000000000000000000000000000000000000000000000815260206004820152601c60248201527f475076323a206d616c666f726d6564207072657369676e617475726500000000604482015290519081900360640190fd5b506040805160388082526060828101909352853590921c9160009190602082018180368337019050509050610a248187848661061f565b7ff59c009283ff87aa78203fc4d9c2df025ee851130fb69cc3e068941f6b5e2d6f60001c6000826040518082805190602001908083835b60208310610a9857805182527fffffffffffffffffffffffffffffffffffffffffffffffffffffffffffffffe09092019160209182019101610a5b565b6001836020036101000a03801982511681845116808217855250505050505090500191505090815260200160405180910390205414610b3857604080517f08c379a000000000000000000000000000000000000000000000000000000000815260206004820152601960248201527f475076323a206f72646572206e6f74207072657369676e656400000000000000604482015290519081900360640190fd5b50949350505050565b60008080808060018616610b77577ff3b277728b3fee749481eb3e0b3b48980dbbab78658fc419025cb16eee3467759450610b9b565b7f6ed88e868af0a1983e3886d5f3e95a2fafbd6c3450bc229e27342283dc429ccc94505b600286161515935060088616610bd3577f5a28e9363bb942b639270062aa6bb295f434bcdfc42c97267bf003f272060dc99250610c27565b60048616610c03577fabee3b73373acd583a130924aad6dc38cfdc44ba0555ba94ce2ff63980ea06329250610c27565b7f4ac99ace14ee0a5ef932dc609df0943ab7ac16b7583634612f8dc35a4289a6ce92505b60108616610c57577f5a28e9363bb942b639270062aa6bb295f434bcdfc42c97267bf003f272060dc99150610c7b565b7f4ac99ace14ee0a5ef932dc609df0943ab7ac16b7583634612f8dc35a4289a6ce91505b600586901c6003811115610c8b57fe5b905091939590929450565b600060418214610d0757604080517f08c379a000000000000000000000000000000000000000000000000000000000815260206004820152601f60248201527f475076323a206d616c666f726d6564206563647361207369676e617475726500604482015290519081900360640190fd5b604080516000815260208181018084528790528286013560f81c82840181905286356060840181905282880135608085018190529451909493919260019260a0808201937fffffffffffffffffffffffffffffffffffffffffffffffffffffffffffffffe081019281900390910190855afa158015610d8a573d6000803e3d6000fd5b50506040517fffffffffffffffffffffffffffffffffffffffffffffffffffffffffffffffe0015194505073ffffffffffffffffffffffffffffffffffffffff8416610e3757604080517f08c379a000000000000000000000000000000000000000000000000000000000815260206004820152601d60248201527f475076323a20696e76616c6964206563647361207369676e6174757265000000604482015290519081900360640190fd5b5050509392505050565b6040518060800160405280610e54610e6e565b815260606020820181905260006040830181905291015290565b6040805161018081018252600080825260208201819052918101829052606081018290526080810182905260a0810182905260c0810182905260e0810182905261010081018290526101208101829052610140810182905261016081019190915290565b803573ffffffffffffffffffffffffffffffffffffffff81168114610ef657600080fd5b919050565b80358015158114610ef657600080fd5b60008083601f840112610f1c578182fd5b50813567ffffffffffffffff811115610f33578182fd5b602083019150836020828501011115610f4b57600080fd5b9250929050565b803560048110610ef657600080fd5b803563ffffffff81168114610ef657600080fd5b600080600060408486031215610f89578283fd5b833567ffffffffffffffff80821115610fa0578485fd5b818601915086601f830112610fb3578485fd5b813581811115610fc1578586fd5b8760208083028501011115610fd4578586fd5b602092830195509350908501359080821115610fee578283fd5b5084016101608187031215611001578182fd5b809150509250925092565b600080600060408486031215611020578283fd5b833567ffffffffffffffff811115611036578384fd5b61104286828701610f0b565b9094509250611055905060208501610efb565b90509250925092565b60006020808385031215611070578182fd5b823567ffffffffffffffff80821115611087578384fd5b818501915085601f83011261109a578384fd5b8135818111156110a657fe5b6110d6847fffffffffffffffffffffffffffffffffffffffffffffffffffffffffffffffe0601f84011601611438565b915080825286848285010111156110eb578485fd5b80848401858401378101909201929092529392505050565b6000806000808486036101c081121561111a578182fd5b61018080821215611129578283fd5b61113281611438565b915061113d87610ed2565b825261114b60208801610ed2565b602083015261115c60408801610ed2565b6040830152606087013560608301526080870135608083015261118160a08801610f61565b60a083015260c087013560c083015260e087013560e08301526101008088013581840152506101206111b4818901610efb565b908301526101408781013590830152610160808801359083015290945084906111de818801610f52565b945050506101a085013567ffffffffffffffff8111156111fc578182fd5b61120887828801610f0b565b95989497509550505050565b73ffffffffffffffffffffffffffffffffffffffff169052565b15159052565b60008151808452815b818110156112595760208185018101518683018201520161123d565b8181111561126a5782602083870101525b50601f017fffffffffffffffffffffffffffffffffffffffffffffffffffffffffffffffe0169290920160200192915050565b63ffffffff169052565b73ffffffffffffffffffffffffffffffffffffffff91909116815260200190565b90815260200190565b60006020825282516112e7602084018251611214565b60208101516112f96040850182611214565b50604081015161130c6060850182611214565b5060608101516080840152608081015160a084015260a081015161133360c085018261129d565b5060c081015160e084810191909152810151610100808501919091528101516101208085019190915281015161014061136e8186018361122e565b82015161016085810191909152909101516101808401525060208301516101e06101a084018190526113a4610200850183611234565b915060408501516113b96101c0860182611214565b5060608501516113cb82860182611214565b5090949350505050565b60008083357fffffffffffffffffffffffffffffffffffffffffffffffffffffffffffffffe1843603018112611409578283fd5b83018035915067ffffffffffffffff821115611423578283fd5b602001915036819003821315610f4b57600080fd5b60405181810167ffffffffffffffff8111828210171561145457fe5b604052919050565b6000808585111561146b578182fd5b83861115611477578182fd5b505082019391909203915056fea26469706673582212202714e10931021e2d009f032f9744a221a9adb2fe9dc30626260ca8e53ba620ec64736f6c63430007060033",
  "linkReferences": {},
  "deployedLinkReferences": {}
}