{
  "_format": "hh-sol-artifact-1",
  "contractName": "ExternalStorageReader",
  "sourceName": "src/contracts/test/vendor/StorageAccessibleWrapper.sol",
  "abi": [
    {
      "inputs": [],
      "name": "doRevert",
      "outputs": [],
      "stateMutability": "pure",
      "type": "function"
    },
    {
      "inputs": [],
      "name": "getFoo",
      "outputs": [
        {
          "internalType": "uint256",
          "name": "",
          "type": "uint256"
        }
      ],
      "stateMutability": "view",
      "type": "function"
    },
    {
      "inputs": [
        {
          "internalType": "contract StorageAccessible",
          "name": "target",
          "type": "address"
        }
      ],
      "name": "invokeDoRevertViaStorageAccessible",
      "outputs": [],
      "stateMutability": "nonpayable",
      "type": "function"
    },
    {
      "inputs": [
        {
          "internalType": "contract ViewStorageAccessible",
          "name": "target",
          "type": "address"
        },
        {
          "internalType": "bytes",
          "name": "encodedCall",
          "type": "bytes"
        }
      ],
      "name": "invokeStaticDelegatecall",
      "outputs": [
        {
          "internalType": "uint256",
          "name": "",
          "type": "uint256"
        }
      ],
      "stateMutability": "view",
      "type": "function"
    },
    {
      "inputs": [
        {
          "internalType": "uint256",
          "name": "foo_",
          "type": "uint256"
        }
      ],
      "name": "setAndGetFoo",
      "outputs": [
        {
          "internalType": "uint256",
          "name": "",
          "type": "uint256"
        }
      ],
      "stateMutability": "nonpayable",
      "type": "function"
    }
  ],
  "bytecode": "0x608060405234801561001057600080fd5b506105ab806100206000396000f3fe608060405234801561001057600080fd5b50600436106100665760003560e01c8063243dc8da11610050578063243dc8da146100cf5780636e76e8aa146100d7578063afc874d21461016457610066565b8062e4b2561461006b5780630557ebe4146100a0575b600080fd5b61009e6004803603602081101561008157600080fd5b503573ffffffffffffffffffffffffffffffffffffffff1661016c565b005b6100bd600480360360208110156100b657600080fd5b503561039f565b60408051918252519081900360200190f35b6100bd6103a7565b6100bd600480360360408110156100ed57600080fd5b73ffffffffffffffffffffffffffffffffffffffff823516919081019060408101602082013564010000000081111561012557600080fd5b82018360208201111561013757600080fd5b8035906020019184600183028401116401000000008311171561015957600080fd5b5090925090506103ad565b61009e610066565b604080516004808252602480830184526020830180517bffffffffffffffffffffffffffffffffffffffffffffffffffffffff167fafc874d20000000000000000000000000000000000000000000000000000000017815284517ff84436bd0000000000000000000000000000000000000000000000000000000081523093810184815292810195865284516044820152845173ffffffffffffffffffffffffffffffffffffffff88169663f84436bd96949390926064019180838360005b8381101561024357818101518382015260200161022b565b50505050905090810190601f1680156102705780820380516001836020036101000a031916815260200191505b509350505050600060405180830381600087803b15801561029057600080fd5b505af11580156102a4573d6000803e3d6000fd5b505050506040513d6000823e601f3d9081017fffffffffffffffffffffffffffffffffffffffffffffffffffffffffffffffe016820160405260208110156102eb57600080fd5b810190808051604051939291908464010000000082111561030b57600080fd5b90830190602082018581111561032057600080fd5b825164010000000081118282018810171561033a57600080fd5b82525081516020918201929091019080838360005b8381101561036757818101518382015260200161034f565b50505050905090810190601f1680156103945780820380516001836020036101000a031916815260200191505b506040525050505050565b600081905590565b60005490565b6000808473ffffffffffffffffffffffffffffffffffffffff1663f84436bd3086866040518463ffffffff1660e01b8152600401808473ffffffffffffffffffffffffffffffffffffffff168152602001806020018281038252848482818152602001925080828437600081840152601f19601f82011690508083019250505094505050505060006040518083038186803b15801561044b57600080fd5b505afa15801561045f573d6000803e3d6000fd5b505050506040513d6000823e601f3d9081017fffffffffffffffffffffffffffffffffffffffffffffffffffffffffffffffe016820160405260208110156104a657600080fd5b81019080805160405193929190846401000000008211156104c657600080fd5b9083019060208201858111156104db57600080fd5b82516401000000008111828201881017156104f557600080fd5b82525081516020918201929091019080838360005b8381101561052257818101518382015260200161050a565b50505050905090810190601f16801561054f5780820380516001836020036101000a031916815260200191505b50604052505050806020019051602081101561056a57600080fd5b50519594505050505056fea2646970667358221220f06243883a3d4f24eac5e55e74e2b20feada40898efb7156698ae207661806f764736f6c63430007060033",
  "linkReferences": {},
  "deployedLinkReferences": {}
}