{
  "_format": "hh-sol-artifact-1",
  "contractName": "StorageAccessibleWrapper",
  "sourceName": "src/contracts/test/vendor/StorageAccessibleWrapper.sol",
  "abi": [
    {
      "inputs": [],
      "stateMutability": "nonpayable",
      "type": "constructor"
    },
    {
      "inputs": [],
      "name": "SLOT_BAM",
      "outputs": [
        {
          "internalType": "uint8",
          "name": "",
          "type": "uint8"
        }
      ],
      "stateMutability": "view",
      "type": "function"
    },
    {
      "inputs": [],
      "name": "SLOT_BAR",
      "outputs": [
        {
          "internalType": "uint8",
          "name": "",
          "type": "uint8"
        }
      ],
      "stateMutability": "view",
      "type": "function"
    },
    {
      "inputs": [],
      "name": "SLOT_BAZ",
      "outputs": [
        {
          "internalType": "uint8",
          "name": "",
          "type": "uint8"
        }
      ],
      "stateMutability": "view",
      "type": "function"
    },
    {
      "inputs": [],
      "name": "SLOT_FOO",
      "outputs": [
        {
          "internalType": "uint8",
          "name": "",
          "type": "uint8"
        }
      ],
      "stateMutability": "view",
      "type": "function"
    },
    {
      "inputs": [],
      "name": "SLOT_FOOBAR",
      "outputs": [
        {
          "internalType": "uint8",
          "name": "",
          "type": "uint8"
        }
      ],
      "stateMutability": "view",
      "type": "function"
    },
    {
      "inputs": [],
      "name": "SLOT_QUX",
      "outputs": [
        {
          "internalType": "uint8",
          "name": "",
          "type": "uint8"
        }
      ],
      "stateMutability": "view",
      "type": "function"
    },
    {
      "inputs": [
        {
          "internalType": "uint256",
          "name": "offset",
          "type": "uint256"
        },
        {
          "internalType": "uint256",
          "name": "length",
          "type": "uint256"
        }
      ],
      "name": "getStorageAt",
      "outputs": [
        {
          "internalType": "bytes",
          "name": "",
          "type": "bytes"
        }
      ],
      "stateMutability": "view",
      "type": "function"
    },
    {
      "inputs": [
        {
          "internalType": "uint64",
          "name": "bam_",
          "type": "uint64"
        }
      ],
      "name": "setBam",
      "outputs": [],
      "stateMutability": "nonpayable",
      "type": "function"
    },
    {
      "inputs": [
        {
          "internalType": "uint128",
          "name": "bar_",
          "type": "uint128"
        }
      ],
      "name": "setBar",
      "outputs": [],
      "stateMutability": "nonpayable",
      "type": "function"
    },
    {
      "inputs": [
        {
          "internalType": "uint256[]",
          "name": "baz_",
          "type": "uint256[]"
        }
      ],
      "name": "setBaz",
      "outputs": [],
      "stateMutability": "nonpayable",
      "type": "function"
    },
    {
      "inputs": [
        {
          "internalType": "uint256",
          "name": "foo_",
          "type": "uint256"
        }
      ],
      "name": "setFoo",
      "outputs": [],
      "stateMutability": "nonpayable",
      "type": "function"
    },
    {
      "inputs": [
        {
          "internalType": "uint256",
          "name": "foo_",
          "type": "uint256"
        },
        {
          "internalType": "uint256",
          "name": "bar_",
          "type": "uint256"
        }
      ],
      "name": "setFoobar",
      "outputs": [],
      "stateMutability": "nonpayable",
      "type": "function"
    },
    {
      "inputs": [
        {
          "internalType": "uint256",
          "name": "key",
          "type": "uint256"
        },
        {
          "internalType": "uint256",
          "name": "value",
          "type": "uint256"
        }
      ],
      "name": "setQuxKeyValue",
      "outputs": [],
      "stateMutability": "nonpayable",
      "type": "function"
    },
    {
      "inputs": [
        {
          "internalType": "address",
          "name": "targetContract",
          "type": "address"
        },
        {
          "internalType": "bytes",
          "name": "calldataPayload",
          "type": "bytes"
        }
      ],
      "name": "simulateDelegatecall",
      "outputs": [
        {
          "internalType": "bytes",
          "name": "response",
          "type": "bytes"
        }
      ],
      "stateMutability": "nonpayable",
      "type": "function"
    },
    {
      "inputs": [
        {
          "internalType": "address",
          "name": "targetContract",
          "type": "address"
        },
        {
          "internalType": "bytes",
          "name": "calldataPayload",
          "type": "bytes"
        }
      ],
      "name": "simulateDelegatecallInternal",
      "outputs": [
        {
          "internalType": "bytes",
          "name": "response",
          "type": "bytes"
        }
      ],
      "stateMutability": "nonpayable",
      "type": "function"
    }
  ],
  "bytecode": "0x608060405234801561001057600080fd5b50610a84806100206000396000f3fe608060405234801561001057600080fd5b50600436106100f55760003560e01c80638e9c68f211610097578063dc0f349011610066578063dc0f3490146103a9578063dc80035d146103b1578063eeb21aaf146103ce578063f84436bd146103f1576100f5565b80638e9c68f21461033057806399cf64491461035f5780639fde446614610320578063bd0276fc14610382576100f5565b80634e78b547116100d35780634e78b547146102f55780635624b25b146102fd5780636334bd13146103205780637a5d379b14610328576100f5565b80630697a74f146100fa57806338cccf071461011857806343218e19146101bd575b600080fd5b6101026104b4565b6040805160ff9092168252519081900360200190f35b6101bb6004803603602081101561012e57600080fd5b81019060208101813564010000000081111561014957600080fd5b82018360208201111561015b57600080fd5b8035906020019184602083028401116401000000008311171561017d57600080fd5b9190808060200260200160405190810160405280939291908181526020018383602002808284376000920191909152509295506104b9945050505050565b005b610280600480360360408110156101d357600080fd5b73ffffffffffffffffffffffffffffffffffffffff823516919081019060408101602082013564010000000081111561020b57600080fd5b82018360208201111561021d57600080fd5b8035906020019184600183028401116401000000008311171561023f57600080fd5b91908080601f0160208091040260200160405190810160405280939291908181526020018383808284376000920191909152509295506104d0945050505050565b6040805160208082528351818301528351919283929083019185019080838360005b838110156102ba5781810151838201526020016102a2565b50505050905090810190601f1680156102e75780820380516001836020036101000a031916815260200191505b509250505060405180910390f35b610102610648565b6102806004803603604081101561031357600080fd5b508035906020013561064d565b6101026106c3565b6101026106c8565b6101bb6004803603602081101561034657600080fd5b50356fffffffffffffffffffffffffffffffff166106cd565b6101bb6004803603604081101561037557600080fd5b5080359060200135610710565b6101bb6004803603602081101561039857600080fd5b503567ffffffffffffffff16610722565b610102610771565b6101bb600480360360208110156103c757600080fd5b5035610776565b6101bb600480360360408110156103e457600080fd5b508035906020013561077b565b6102806004803603604081101561040757600080fd5b73ffffffffffffffffffffffffffffffffffffffff823516919081019060408101602082013564010000000081111561043f57600080fd5b82018360208201111561045157600080fd5b8035906020019184600183028401116401000000008311171561047357600080fd5b91908080601f016020809104026020016040519081016040528093929190818152602001838380828437600092019190915250929550610799945050505050565b600281565b80516104cc9060029060208401906109ee565b5050565b606060008373ffffffffffffffffffffffffffffffffffffffff16836040518082805190602001908083835b6020831061053957805182527fffffffffffffffffffffffffffffffffffffffffffffffffffffffffffffffe090920191602091820191016104fc565b6001836020036101000a038019825116818451168082178552505050505050905001915050600060405180830381855af49150503d8060008114610599576040519150601f19603f3d011682016040523d82523d6000602084013e61059e565b606091505b50809350819250505061064182826040516020018083805190602001908083835b602083106105fc57805182527fffffffffffffffffffffffffffffffffffffffffffffffffffffffffffffffe090920191602091820191016105bf565b6001836020036101000a03801982511681845116808217855250505050505090500182151560f81b8152600101925050506040516020818303038152906040526109e2565b5092915050565b600081565b606060008260200267ffffffffffffffff8111801561066b57600080fd5b506040519080825280601f01601f191660200182016040528015610696576020820181803683370190505b50905060005b838110156106b9578481015460208083028401015260010161069c565b5090505b92915050565b600181565b600381565b600180547fffffffffffffffffffffffffffffffff00000000000000000000000000000000166fffffffffffffffffffffffffffffffff92909216919091179055565b60009182526003602052604090912055565b6001805467ffffffffffffffff909216700100000000000000000000000000000000027fffffffffffffffff0000000000000000ffffffffffffffffffffffffffffffff909216919091179055565b600481565b600055565b60408051808201909152828152602001819052600491909155600555565b606060006343218e1960e01b8484604051602401808373ffffffffffffffffffffffffffffffffffffffff16815260200180602001828103825283818151815260200191508051906020019080838360005b838110156108035781810151838201526020016107eb565b50505050905090810190601f1680156108305780820380516001836020036101000a031916815260200191505b50604080517fffffffffffffffffffffffffffffffffffffffffffffffffffffffffffffffe08184030181529181526020820180517bffffffffffffffffffffffffffffffffffffffffffffffffffffffff167fffffffff00000000000000000000000000000000000000000000000000000000909816979097178752518151919750309688965090945084935091508083835b6020831061090157805182527fffffffffffffffffffffffffffffffffffffffffffffffffffffffffffffffe090920191602091820191016108c4565b6001836020036101000a0380198251168184511680821785525050505050509050019150506000604051808303816000865af19150503d8060008114610963576040519150601f19603f3d011682016040523d82523d6000602084013e610968565b606091505b5090508092505060008260018451038151811061098157fe5b602001015160f81c60f81b7effffffffffffffffffffffffffffffffffffffffffffffffffffffffffffff1916600160f81b1490506109c48360018551036109ea565b80156109d15750506106bd565b6109da836109e2565b505092915050565b805160208201fd5b9052565b828054828255906000526020600020908101928215610a29579160200282015b82811115610a29578251825591602001919060010190610a0e565b50610a35929150610a39565b5090565b5b80821115610a355760008155600101610a3a56fea26469706673582212203d641cf95da377aa05780ee94fd8795db2c1e351e7340f650dfc35a4902ce0bb64736f6c63430007060033",
  "linkReferences": {},
  "deployedLinkReferences": {}
}