{
  "_format": "hh-sol-artifact-1",
  "contractName": "GPv2AllowListAuthenticationV2",
  "sourceName": "src/contracts/test/GPv2AllowListAuthenticationV2.sol",
  "abi": [
    {
      "anonymous": false,
      "inputs": [
        {
          "indexed": false,
          "internalType": "address",
          "name": "newManager",
          "type": "address"
        },
        {
          "indexed": false,
          "internalType": "address",
          "name": "oldManager",
          "type": "address"
        }
      ],
      "name": "ManagerChanged",
      "type": "event"
    },
    {
      "anonymous": false,
      "inputs": [
        {
          "indexed": false,
          "internalType": "address",
          "name": "solver",
          "type": "address"
        }
      ],
      "name": "SolverAdded",
      "type": "event"
    },
    {
      "anonymous": false,
      "inputs": [
        {
          "indexed": false,
          "internalType": "address",
          "name": "solver",
          "type": "address"
        }
      ],
      "name": "SolverRemoved",
      "type": "event"
    },
    {
      "inputs": [
        {
          "internalType": "address",
          "name": "solver",
          "type": "address"
        }
      ],
      "name": "addSolver",
      "outputs": [],
      "stateMutability": "nonpayable",
      "type": "function"
    },
    {
      "inputs": [
        {
          "internalType": "uint256",
          "name": "offset",
          "type": "uint256"
        },
        {
          "internalType": "uint256",
          "name": "length",
          "type": "uint256"
        }
      ],
      "name": "getStorageAt",
      "outputs": [
        {
          "internalType": "bytes",
          "name": "",
          "type": "bytes"
        }
      ],
      "stateMutability": "view",
      "type": "function"
    },
    {
      "inputs": [
        {
          "internalType": "address",
          "name": "manager_",
          "type": "address"
        }
      ],
      "name": "initializeManager",
      "outputs": [],
      "stateMutability": "nonpayable",
      "type": "function"
    },
    {
      "inputs": [
        {
          "internalType": "address",
          "name": "prospectiveSolver",
          "type": "address"
        }
      ],
      "name": "isSolver",
      "outputs": [
        {
          "internalType": "bool",
          "name": "",
          "type": "bool"
        }
      ],
      "stateMutability": "view",
      "type": "function"
    },
    {
      "inputs": [],
      "name": "manager",
      "outputs": [
        {
          "internalType": "address",
          "name": "",
          "type": "address"
        }
      ],
      "stateMutability": "view",
      "type": "function"
    },
    {
      "inputs": [],
      "name": "newMethod",
      "outputs": [
        {
          "internalType": "uint256",
          "name": "",
          "type": "uint256"
        }
      ],
      "stateMutability": "pure",
      "type": "function"
    },
    {
      "inputs": [
        {
          "internalType": "address",
          "name": "solver",
          "type": "address"
        }
      ],
      "name": "removeSolver",
      "outputs": [],
      "stateMutability": "nonpayable",
      "type": "function"
    },
    {
      "inputs": [
        {
          "internalType": "address",
          "name": "manager_",
          "type": "address"
        }
      ],
      "name": "setManager",
      "outputs": [],
      "stateMutability": "nonpayable",
      "type": "function"
    },
    {
      "inputs": [
        {
          "internalType": "address",
          "name": "targetContract",
          "type": "address"
        },
        {
          "internalType": "bytes",
          "name": "calldataPayload",
          "type": "bytes"
        }
      ],
      "name": "simulateDelegatecall",
      "outputs": [
        {
          "internalType": "bytes",
          "name": "response",
          "type": "bytes"
        }
      ],
      "stateMutability": "nonpayable",
      "type": "function"
    },
    {
      "inputs": [
        {
          "internalType": "address",
          "name": "targetContract",
          "type": "address"
        },
        {
          "internalType": "bytes",
          "name": "calldataPayload",
          "type": "bytes"
        }
      ],
      "name": "simulateDelegatecallInternal",
      "outputs": [
        {
          "internalType": "bytes",
          "name": "response",
          "type": "bytes"
        }
      ],
      "stateMutability": "nonpayable",
      "type": "function"
    }
  ],
  "bytecode": "0x608060405234801561001057600080fd5b50610e4b806100206000396000f3fe608060405234801561001057600080fd5b50600436106100be5760003560e01c80637f7120fe11610076578063d0ebdbe71161005b578063d0ebdbe714610318578063ec58f4b81461034b578063f84436bd1461037e576100be565b80637f7120fe146102b05780638fd57b92146102e5576100be565b806343218e19116100a757806343218e1914610124578063481c6a751461025c5780635624b25b1461028d576100be565b806302cc250d146100c35780633b076dbc1461010a575b600080fd5b6100f6600480360360208110156100d957600080fd5b503573ffffffffffffffffffffffffffffffffffffffff16610441565b604080519115158252519081900360200190f35b61011261046c565b60408051918252519081900360200190f35b6101e76004803603604081101561013a57600080fd5b73ffffffffffffffffffffffffffffffffffffffff823516919081019060408101602082013564010000000081111561017257600080fd5b82018360208201111561018457600080fd5b803590602001918460018302840111640100000000831117156101a657600080fd5b91908080601f016020809104026020016040519081016040528093929190818152602001838380828437600092019190915250929550610472945050505050565b6040805160208082528351818301528351919283929083019185019080838360005b83811015610221578181015183820152602001610209565b50505050905090810190601f16801561024e5780820380516001836020036101000a031916815260200191505b509250505060405180910390f35b6102646105ea565b6040805173ffffffffffffffffffffffffffffffffffffffff9092168252519081900360200190f35b6101e7600480360360408110156102a357600080fd5b508035906020013561060c565b6102e3600480360360208110156102c657600080fd5b503573ffffffffffffffffffffffffffffffffffffffff16610682565b005b6102e3600480360360208110156102fb57600080fd5b503573ffffffffffffffffffffffffffffffffffffffff16610833565b6102e36004803603602081101561032e57600080fd5b503573ffffffffffffffffffffffffffffffffffffffff16610942565b6102e36004803603602081101561036157600080fd5b503573ffffffffffffffffffffffffffffffffffffffff16610a82565b6101e76004803603604081101561039457600080fd5b73ffffffffffffffffffffffffffffffffffffffff82351691908101906040810160208201356401000000008111156103cc57600080fd5b8201836020820111156103de57600080fd5b8035906020019184600183028401116401000000008311171561040057600080fd5b91908080601f016020809104026020016040519081016040528093929190818152602001838380828437600092019190915250929550610b95945050505050565b73ffffffffffffffffffffffffffffffffffffffff1660009081526001602052604090205460ff1690565b61053990565b606060008373ffffffffffffffffffffffffffffffffffffffff16836040518082805190602001908083835b602083106104db57805182527fffffffffffffffffffffffffffffffffffffffffffffffffffffffffffffffe0909201916020918201910161049e565b6001836020036101000a038019825116818451168082178552505050505050905001915050600060405180830381855af49150503d806000811461053b576040519150601f19603f3d011682016040523d82523d6000602084013e610540565b606091505b5080935081925050506105e382826040516020018083805190602001908083835b6020831061059e57805182527fffffffffffffffffffffffffffffffffffffffffffffffffffffffffffffffe09092019160209182019101610561565b6001836020036101000a03801982511681845116808217855250505050505090500182151560f81b815260010192505050604051602081830303815290604052610dde565b5092915050565b60005462010000900473ffffffffffffffffffffffffffffffffffffffff1681565b606060008260200267ffffffffffffffff8111801561062a57600080fd5b506040519080825280601f01601f191660200182016040528015610655576020820181803683370190505b50905060005b83811015610678578481015460208083028401015260010161065b565b5090505b92915050565b600054610100900460ff168061069b575061069b610de6565b806106a9575060005460ff16155b61071457604080517f08c379a000000000000000000000000000000000000000000000000000000000815260206004820152601a60248201527f496e697469616c697a61626c653a20696e697469616c697a6564000000000000604482015290519081900360640190fd5b600054610100900460ff1615801561077a57600080547fffffffffffffffffffffffffffffffffffffffffffffffffffffffffffffff007fffffffffffffffffffffffffffffffffffffffffffffffffffffffffffff00ff909116610100171660011790555b600080547fffffffffffffffffffff0000000000000000000000000000000000000000ffff166201000073ffffffffffffffffffffffffffffffffffffffff851690810291909117825560408051918252602082019290925281517f605c2dbf762e5f7d60a546d42e7205dcb1b011ebc62a61736a57c9089d3a4350929181900390910190a1801561082f57600080547fffffffffffffffffffffffffffffffffffffffffffffffffffffffffffff00ff1690555b5050565b60005462010000900473ffffffffffffffffffffffffffffffffffffffff1633146108bf57604080517f08c379a000000000000000000000000000000000000000000000000000000000815260206004820152601860248201527f475076323a2063616c6c6572206e6f74206d616e616765720000000000000000604482015290519081900360640190fd5b73ffffffffffffffffffffffffffffffffffffffff811660008181526001602090815260409182902080547fffffffffffffffffffffffffffffffffffffffffffffffffffffffffffffff00169055815192835290517f640e18a2587e1d83e4fdabf70257d0a800ca4b2c1aaad1dfc485a4ad8bbbd6c69281900390910190a150565b60005462010000900473ffffffffffffffffffffffffffffffffffffffff1633148061098a575033610972610dec565b73ffffffffffffffffffffffffffffffffffffffff16145b6109f557604080517f08c379a000000000000000000000000000000000000000000000000000000000815260206004820152601460248201527f475076323a206e6f7420617574686f72697a6564000000000000000000000000604482015290519081900360640190fd5b6000805473ffffffffffffffffffffffffffffffffffffffff838116620100008181027fffffffffffffffffffff0000000000000000000000000000000000000000ffff85161790945560408051918252939092041660208201819052825190927f605c2dbf762e5f7d60a546d42e7205dcb1b011ebc62a61736a57c9089d3a4350928290030190a15050565b60005462010000900473ffffffffffffffffffffffffffffffffffffffff163314610b0e57604080517f08c379a000000000000000000000000000000000000000000000000000000000815260206004820152601860248201527f475076323a2063616c6c6572206e6f74206d616e616765720000000000000000604482015290519081900360640190fd5b73ffffffffffffffffffffffffffffffffffffffff811660008181526001602081815260409283902080547fffffffffffffffffffffffffffffffffffffffffffffffffffffffffffffff0016909217909155815192835290517f41f9d09dd5159251f8a8e482bbe097b7c01a5e6f70c5a0ddb494906464fc9dd79281900390910190a150565b606060006343218e1960e01b8484604051602401808373ffffffffffffffffffffffffffffffffffffffff16815260200180602001828103825283818151815260200191508051906020019080838360005b83811015610bff578181015183820152602001610be7565b50505050905090810190601f168015610c2c5780820380516001836020036101000a031916815260200191505b50604080517fffffffffffffffffffffffffffffffffffffffffffffffffffffffffffffffe08184030181529181526020820180517bffffffffffffffffffffffffffffffffffffffffffffffffffffffff167fffffffff00000000000000000000000000000000000000000000000000000000909816979097178752518151919750309688965090945084935091508083835b60208310610cfd57805182527fffffffffffffffffffffffffffffffffffffffffffffffffffffffffffffffe09092019160209182019101610cc0565b6001836020036101000a0380198251168184511680821785525050505050509050019150506000604051808303816000865af19150503d8060008114610d5f576040519150601f19603f3d011682016040523d82523d6000602084013e610d64565b606091505b50905080925050600082600184510381518110610d7d57fe5b602001015160f81c60f81b7effffffffffffffffffffffffffffffffffffffffffffffffffffffffffffff1916600160f81b149050610dc0836001855103610e11565b8015610dcd57505061067c565b610dd683610dde565b505092915050565b805160208201fd5b303b1590565b7fb53127684a568b3173ae13b9f8a6016e243e63b6e8ee1178d6a717850b5d61035490565b905256fea2646970667358221220b60fc059e3f09c6a738fc40c7c5c8d353c52dfd355141f60d087c38bea935f1964736f6c63430007060033",
  "linkReferences": {},
  "deployedLinkReferences": {}
}