{
  "src/contracts/test/vendor/ChiToken.sol": {
    "ChiToken": {
      "abi": [
        {
          "anonymous": false,
          "inputs": [
            {
              "indexed": true,
              "internalType": "address",
              "name": "owner",
              "type": "address"
            },
            {
              "indexed": true,
              "internalType": "address",
              "name": "spender",
              "type": "address"
            },
            {
              "indexed": false,
              "internalType": "uint256",
              "name": "value",
              "type": "uint256"
            }
          ],
          "name": "Approval",
          "type": "event"
        },
        {
          "anonymous": false,
          "inputs": [
            {
              "indexed": true,
              "internalType": "address",
              "name": "from",
              "type": "address"
            },
            {
              "indexed": true,
              "internalType": "address",
              "name": "to",
              "type": "address"
            },
            {
              "indexed": false,
              "internalType": "uint256",
              "name": "value",
              "type": "uint256"
            }
          ],
          "name": "Transfer",
          "type": "event"
        },
        {
          "inputs": [
            {
              "internalType": "address",
              "name": "owner",
              "type": "address"
            },
            {
              "internalType": "address",
              "name": "spender",
              "type": "address"
            }
          ],
          "name": "allowance",
          "outputs": [
            {
              "internalType": "uint256",
              "name": "",
              "type": "uint256"
            }
          ],
          "stateMutability": "view",
          "type": "function"
        },
        {
          "inputs": [
            {
              "internalType": "address",
              "name": "spender",
              "type": "address"
            },
            {
              "internalType": "uint256",
              "name": "amount",
              "type": "uint256"
            }
          ],
          "name": "approve",
          "outputs": [
            {
              "internalType": "bool",
              "name": "",
              "type": "bool"
            }
          ],
          "stateMutability": "nonpayable",
          "type": "function"
        },
        {
          "inputs": [
            {
              "internalType": "address",
              "name": "account",
              "type": "address"
            }
          ],
          "name": "balanceOf",
          "outputs": [
            {
              "internalType": "uint256",
              "name": "",
              "type": "uint256"
            }
          ],
          "stateMutability": "view",
          "type": "function"
        },
        {
          "inputs": [
            {
              "internalType": "uint256",
              "name": "salt",
              "type": "uint256"
            }
          ],
          "name": "computeAddress2",
          "outputs": [
            {
              "internalType": "address",
              "name": "child",
              "type": "address"
            }
          ],
          "stateMutability": "pure",
          "type": "function"
        },
        {
          "inputs": [],
          "name": "decimals",
          "outputs": [
            {
              "internalType": "uint8",
              "name": "",
              "type": "uint8"
            }
          ],
          "stateMutability": "view",
          "type": "function"
        },
        {
          "inputs": [
            {
              "internalType": "uint256",
              "name": "value",
              "type": "uint256"
            }
          ],
          "name": "free",
          "outputs": [
            {
              "internalType": "uint256",
              "name": "",
              "type": "uint256"
            }
          ],
          "stateMutability": "nonpayable",
          "type": "function"
        },
        {
          "inputs": [
            {
              "internalType": "address",
              "name": "from",
              "type": "address"
            },
            {
              "internalType": "uint256",
              "name": "value",
              "type": "uint256"
            }
          ],
          "name": "freeFrom",
          "outputs": [
            {
              "internalType": "uint256",
              "name": "",
              "type": "uint256"
            }
          ],
          "stateMutability": "nonpayable",
          "type": "function"
        },
        {
          "inputs": [
            {
              "internalType": "address",
              "name": "from",
              "type": "address"
            },
            {
              "internalType": "uint256",
              "name": "value",
              "type": "uint256"
            }
          ],
          "name": "freeFromUpTo",
          "outputs": [
            {
              "internalType": "uint256",
              "name": "",
              "type": "uint256"
            }
          ],
          "stateMutability": "nonpayable",
          "type": "function"
        },
        {
          "inputs": [
            {
              "internalType": "uint256",
              "name": "value",
              "type": "uint256"
            }
          ],
          "name": "freeUpTo",
          "outputs": [
            {
              "internalType": "uint256",
              "name": "",
              "type": "uint256"
            }
          ],
          "stateMutability": "nonpayable",
          "type": "function"
        },
        {
          "inputs": [
            {
              "internalType": "uint256",
              "name": "value",
              "type": "uint256"
            }
          ],
          "name": "mint",
          "outputs": [],
          "stateMutability": "nonpayable",
          "type": "function"
        },
        {
          "inputs": [],
          "name": "name",
          "outputs": [
            {
              "internalType": "string",
              "name": "",
              "type": "string"
            }
          ],
          "stateMutability": "view",
          "type": "function"
        },
        {
          "inputs": [],
          "name": "symbol",
          "outputs": [
            {
              "internalType": "string",
              "name": "",
              "type": "string"
            }
          ],
          "stateMutability": "view",
          "type": "function"
        },
        {
          "inputs": [],
          "name": "totalBurned",
          "outputs": [
            {
              "internalType": "uint256",
              "name": "",
              "type": "uint256"
            }
          ],
          "stateMutability": "view",
          "type": "function"
        },
        {
          "inputs": [],
          "name": "totalMinted",
          "outputs": [
            {
              "internalType": "uint256",
              "name": "",
              "type": "uint256"
            }
          ],
          "stateMutability": "view",
          "type": "function"
        },
        {
          "inputs": [],
          "name": "totalSupply",
          "outputs": [
            {
              "internalType": "uint256",
              "name": "",
              "type": "uint256"
            }
          ],
          "stateMutability": "view",
          "type": "function"
        },
        {
          "inputs": [
            {
              "internalType": "address",
              "name": "recipient",
              "type": "address"
            },
            {
              "internalType": "uint256",
              "name": "amount",
              "type": "uint256"
            }
          ],
          "name": "transfer",
          "outputs": [
            {
              "internalType": "bool",
              "name": "",
              "type": "bool"
            }
          ],
          "stateMutability": "nonpayable",
          "type": "function"
        },
        {
          "inputs": [
            {
              "internalType": "address",
              "name": "sender",
              "type": "address"
            },
            {
              "internalType": "address",
              "name": "recipient",
              "type": "address"
            },
            {
              "internalType": "uint256",
              "name": "amount",
              "type": "uint256"
            }
          ],
          "name": "transferFrom",
          "outputs": [
            {
              "internalType": "bool",
              "name": "",
              "type": "bool"
            }
          ],
          "stateMutability": "nonpayable",
          "type": "function"
        }
      ],
      "devdoc": {
        "kind": "dev",
        "methods": {
          "allowance(address,address)": {
            "details": "Returns the remaining number of tokens that `spender` will be allowed to spend on behalf of `owner` through {transferFrom}. This is zero by default. This value changes when {approve} or {transferFrom} are called."
          },
          "approve(address,uint256)": {
            "details": "Sets `amount` as the allowance of `spender` over the caller's tokens. Returns a boolean value indicating whether the operation succeeded. IMPORTANT: Beware that changing an allowance with this method brings the risk that someone may use both the old and the new allowance by unfortunate transaction ordering. One possible solution to mitigate this race condition is to first reduce the spender's allowance to 0 and set the desired value afterwards: https://github.com/ethereum/EIPs/issues/20#issuecomment-263524729 Emits an {Approval} event."
          },
          "balanceOf(address)": {
            "details": "Returns the amount of tokens owned by `account`."
          },
          "totalSupply()": {
            "details": "Returns the amount of tokens in existence."
          },
          "transfer(address,uint256)": {
            "details": "Moves `amount` tokens from the caller's account to `recipient`. Returns a boolean value indicating whether the operation succeeded. Emits a {Transfer} event."
          },
          "transferFrom(address,address,uint256)": {
            "details": "Moves `amount` tokens from `sender` to `recipient` using the allowance mechanism. `amount` is then deducted from the caller's allowance. Returns a boolean value indicating whether the operation succeeded. Emits a {Transfer} event."
          }
        },
        "version": 1
      },
      "evm": {
        "bytecode": {
          "linkReferences": {},
          "object": "608060405234801561001057600080fd5b50610e6f806100206000396000f3fe608060405234801561001057600080fd5b506004361061011b5760003560e01c806370a08231116100b2578063a9059cbb11610081578063d89135cd11610066578063d89135cd146103d5578063d8ccd0f3146103dd578063dd62ed3e146103fa5761011b565b8063a9059cbb14610356578063b0ac19a01461038f5761011b565b806370a08231146102f457806395d89b4114610327578063a0712d681461032f578063a2309ff81461034e5761011b565b806323b872dd116100ee57806323b872dd1461023d578063313ce567146102805780635f2e2b451461029e5780636366b936146102d75761011b565b806306fdde0314610120578063079d229f1461019d578063095ea7b3146101e857806318160ddd14610235575b600080fd5b610128610435565b6040805160208082528351818301528351919283929083019185019080838360005b8381101561016257818101518382015260200161014a565b50505050905090810190601f16801561018f5780820380516001836020036101000a031916815260200191505b509250505060405180910390f35b6101d6600480360360408110156101b357600080fd5b5073ffffffffffffffffffffffffffffffffffffffff813516906020013561046e565b60408051918252519081900360200190f35b610221600480360360408110156101fe57600080fd5b5073ffffffffffffffffffffffffffffffffffffffff813516906020013561049f565b604080519115158252519081900360200190f35b6101d66104b5565b6102216004803603606081101561025357600080fd5b5073ffffffffffffffffffffffffffffffffffffffff8135811691602081013590911690604001356104bf565b610288610540565b6040805160ff9092168252519081900360200190f35b6101d6600480360360408110156102b457600080fd5b5073ffffffffffffffffffffffffffffffffffffffff8135169060200135610545565b6101d6600480360360208110156102ed57600080fd5b5035610566565b6101d66004803603602081101561030a57600080fd5b503573ffffffffffffffffffffffffffffffffffffffff16610583565b6101286105ab565b61034c6004803603602081101561034557600080fd5b50356105e4565b005b6101d66107f4565b6102216004803603604081101561036c57600080fd5b5073ffffffffffffffffffffffffffffffffffffffff81351690602001356107fa565b6103ac600480360360208110156103a557600080fd5b5035610807565b6040805173ffffffffffffffffffffffffffffffffffffffff9092168252519081900360200190f35b6101d6610878565b6101d6600480360360208110156103f357600080fd5b503561087e565b6101d66004803603604081101561041057600080fd5b5073ffffffffffffffffffffffffffffffffffffffff8135811691602001351661089d565b6040518060400160405280601281526020017f43686920546f6b656e2062792031696e6368000000000000000000000000000081525081565b6000610498836104936104898561048488610583565b6108d5565b610484873361089d565b610545565b9392505050565b60006104ac3384846108eb565b50600192915050565b6003546002540390565b60006104cc84848461095a565b73ffffffffffffffffffffffffffffffffffffffff8416600090815260016020908152604080832033845290915290205460ff81901c61053557610535853361053086604051806060016040528060288152602001610dee60289139869190610a47565b6108eb565b506001949350505050565b600081565b60008115610560576105578383610af8565b61056082610b6b565b50919050565b600061057d6105788361048433610583565b61087e565b92915050565b73ffffffffffffffffffffffffffffffffffffffff1660009081526020819052604090205490565b6040518060400160405280600381526020017f434849000000000000000000000000000000000000000000000000000000000081525081565b6002547f746d4946c0e9f43f4dee607b0ef1fa1c3318585733ff6000526015600bf30000600052602082045b80156107a15781601e600080f55060018201601e600080f55060028201601e600080f55060038201601e600080f55060048201601e600080f55060058201601e600080f55060068201601e600080f55060078201601e600080f55060088201601e600080f55060098201601e600080f550600a8201601e600080f550600b8201601e600080f550600c8201601e600080f550600d8201601e600080f550600e8201601e600080f550600f8201601e600080f55060108201601e600080f55060118201601e600080f55060128201601e600080f55060138201601e600080f55060148201601e600080f55060158201601e600080f55060168201601e600080f55060178201601e600080f55060188201601e600080f55060198201601e600080f550601a8201601e600080f550601b8201601e600080f550601c8201601e600080f550601d8201601e600080f550601e8201601e600080f550601f8201601e600080f550602091909101907fffffffffffffffffffffffffffffffffffffffffffffffffffffffffffffffff01610610565b50601f82165b80156107e35781601e600080f550600191909101907fffffffffffffffffffffffffffffffffffffffffffffffffffffffffffffffff016107a7565b506107ee3383610bf2565b60025550565b60025481565b60006104ac33848461095a565b6040517fff0000000000004946c0e9f43f4dee607b0ef1fa1c0000000000000000000000815260158101919091527f3c1644c68e5d6cb380c36d1bf847fdbc0c7ac28030025a2fc5e63cce23c1634860358201526055902073ffffffffffffffffffffffffffffffffffffffff1690565b60035481565b60008115610899576108903383610c85565b61089982610b6b565b5090565b73ffffffffffffffffffffffffffffffffffffffff918216600090815260016020908152604080832093909416825291909152205490565b60008183106108e45781610498565b5090919050565b73ffffffffffffffffffffffffffffffffffffffff808416600081815260016020908152604080832094871680845294825291829020859055815185815291517f8c5be1e5ebec7d5bd14f71427d1e84f3dd0314c0f7b2291e5b200ac8c7c3b9259281900390910190a3505050565b6109a481604051806060016040528060268152602001610dc86026913973ffffffffffffffffffffffffffffffffffffffff86166000908152602081905260409020549190610a47565b73ffffffffffffffffffffffffffffffffffffffff80851660009081526020819052604080822093909355908416815220546109e09082610d31565b73ffffffffffffffffffffffffffffffffffffffff8084166000818152602081815260409182902094909455805185815290519193928716927fddf252ad1be2c89b69c2b068fc378daa952ba7f163c4a11628f55a4df523b3ef92918290030190a3505050565b60008184841115610af0576040517f08c379a00000000000000000000000000000000000000000000000000000000081526004018080602001828103825283818151815260200191508051906020019080838360005b83811015610ab5578181015183820152602001610a9d565b50505050905090810190601f168015610ae25780820380516001836020036101000a031916815260200191505b509250505060405180910390fd5b505050900390565b610b028282610c85565b73ffffffffffffffffffffffffffffffffffffffff8216600090815260016020908152604080832033845290915290205460ff81901c610b6657610b66833361053085604051806060016040528060248152602001610e1660249139869190610a47565b505050565b600354818101806003556040517fff0000000000004946c0e9f43f4dee607b0ef1fa1c000000000000000000000081527f3c1644c68e5d6cb380c36d1bf847fdbc0c7ac28030025a2fc5e63cce23c163486035820152601581015b82841015610beb578381526000806000806000605587205af150600184019350610bc6565b5050505050565b73ffffffffffffffffffffffffffffffffffffffff8216600090815260208190526040902054610c229082610d31565b73ffffffffffffffffffffffffffffffffffffffff83166000818152602081815260408083209490945583518581529351929391927fddf252ad1be2c89b69c2b068fc378daa952ba7f163c4a11628f55a4df523b3ef9281900390910190a35050565b610ccf81604051806060016040528060228152602001610da66022913973ffffffffffffffffffffffffffffffffffffffff85166000908152602081905260409020549190610a47565b73ffffffffffffffffffffffffffffffffffffffff8316600081815260208181526040808320949094558351858152935191937fddf252ad1be2c89b69c2b068fc378daa952ba7f163c4a11628f55a4df523b3ef929081900390910190a35050565b60008282018381101561049857604080517f08c379a000000000000000000000000000000000000000000000000000000000815260206004820152601b60248201527f536166654d6174683a206164646974696f6e206f766572666c6f770000000000604482015290519081900360640190fdfe45524332303a206275726e20616d6f756e7420657863656564732062616c616e636545524332303a207472616e7366657220616d6f756e7420657863656564732062616c616e636545524332303a207472616e7366657220616d6f756e74206578636565647320616c6c6f77616e636545524332303a206275726e20616d6f756e74206578636565647320616c6c6f77616e6365a2646970667358221220d2b67e1cb237faf2961624a3516752cf0327ce3a4568fb7daa701f18c7e2a6ae64736f6c63430007060033",
          "opcodes": "PUSH1 0x80 PUSH1 0x40 MSTORE CALLVALUE DUP1 ISZERO PUSH2 0x10 JUMPI PUSH1 0x0 DUP1 REVERT JUMPDEST POP PUSH2 0xE6F DUP1 PUSH2 0x20 PUSH1 0x0 CODECOPY PUSH1 0x0 RETURN INVALID PUSH1 0x80 PUSH1 0x40 MSTORE CALLVALUE DUP1 ISZERO PUSH2 0x10 JUMPI PUSH1 0x0 DUP1 REVERT JUMPDEST POP PUSH1 0x4 CALLDATASIZE LT PUSH2 0x11B JUMPI PUSH1 0x0 CALLDATALOAD PUSH1 0xE0 SHR DUP1 PUSH4 0x70A08231 GT PUSH2 0xB2 JUMPI DUP1 PUSH4 0xA9059CBB GT PUSH2 0x81 JUMPI DUP1 PUSH4 0xD89135CD GT PUSH2 0x66 JUMPI DUP1 PUSH4 0xD89135CD EQ PUSH2 0x3D5 JUMPI DUP1 PUSH4 0xD8CCD0F3 EQ PUSH2 0x3DD JUMPI DUP1 PUSH4 0xDD62ED3E EQ PUSH2 0x3FA JUMPI PUSH2 0x11B JUMP JUMPDEST DUP1 PUSH4 0xA9059CBB EQ PUSH2 0x356 JUMPI DUP1 PUSH4 0xB0AC19A0 EQ PUSH2 0x38F JUMPI PUSH2 0x11B JUMP JUMPDEST DUP1 PUSH4 0x70A08231 EQ PUSH2 0x2F4 JUMPI DUP1 PUSH4 0x95D89B41 EQ PUSH2 0x327 JUMPI DUP1 PUSH4 0xA0712D68 EQ PUSH2 0x32F JUMPI DUP1 PUSH4 0xA2309FF8 EQ PUSH2 0x34E JUMPI PUSH2 0x11B JUMP JUMPDEST DUP1 PUSH4 0x23B872DD GT PUSH2 0xEE JUMPI DUP1 PUSH4 0x23B872DD EQ PUSH2 0x23D JUMPI DUP1 PUSH4 0x313CE567 EQ PUSH2 0x280 JUMPI DUP1 PUSH4 0x5F2E2B45 EQ PUSH2 0x29E JUMPI DUP1 PUSH4 0x6366B936 EQ PUSH2 0x2D7 JUMPI PUSH2 0x11B JUMP JUMPDEST DUP1 PUSH4 0x6FDDE03 EQ PUSH2 0x120 JUMPI DUP1 PUSH4 0x79D229F EQ PUSH2 0x19D JUMPI DUP1 PUSH4 0x95EA7B3 EQ PUSH2 0x1E8 JUMPI DUP1 PUSH4 0x18160DDD EQ PUSH2 0x235 JUMPI JUMPDEST PUSH1 0x0 DUP1 REVERT JUMPDEST PUSH2 0x128 PUSH2 0x435 JUMP JUMPDEST PUSH1 0x40 DUP1 MLOAD PUSH1 0x20 DUP1 DUP3 MSTORE DUP4 MLOAD DUP2 DUP4 ADD MSTORE DUP4 MLOAD SWAP2 SWAP3 DUP4 SWAP3 SWAP1 DUP4 ADD SWAP2 DUP6 ADD SWAP1 DUP1 DUP4 DUP4 PUSH1 0x0 JUMPDEST DUP4 DUP2 LT ISZERO PUSH2 0x162 JUMPI DUP2 DUP2 ADD MLOAD DUP4 DUP3 ADD MSTORE PUSH1 0x20 ADD PUSH2 0x14A JUMP JUMPDEST POP POP POP POP SWAP1 POP SWAP1 DUP2 ADD SWAP1 PUSH1 0x1F AND DUP1 ISZERO PUSH2 0x18F JUMPI DUP1 DUP3 SUB DUP1 MLOAD PUSH1 0x1 DUP4 PUSH1 0x20 SUB PUSH2 0x100 EXP SUB NOT AND DUP2 MSTORE PUSH1 0x20 ADD SWAP2 POP JUMPDEST POP SWAP3 POP POP POP PUSH1 0x40 MLOAD DUP1 SWAP2 SUB SWAP1 RETURN JUMPDEST PUSH2 0x1D6 PUSH1 0x4 DUP1 CALLDATASIZE SUB PUSH1 0x40 DUP2 LT ISZERO PUSH2 0x1B3 JUMPI PUSH1 0x0 DUP1 REVERT JUMPDEST POP PUSH20 0xFFFFFFFFFFFFFFFFFFFFFFFFFFFFFFFFFFFFFFFF DUP2 CALLDATALOAD AND SWAP1 PUSH1 0x20 ADD CALLDATALOAD PUSH2 0x46E JUMP JUMPDEST PUSH1 0x40 DUP1 MLOAD SWAP2 DUP3 MSTORE MLOAD SWAP1 DUP2 SWAP1 SUB PUSH1 0x20 ADD SWAP1 RETURN JUMPDEST PUSH2 0x221 PUSH1 0x4 DUP1 CALLDATASIZE SUB PUSH1 0x40 DUP2 LT ISZERO PUSH2 0x1FE JUMPI PUSH1 0x0 DUP1 REVERT JUMPDEST POP PUSH20 0xFFFFFFFFFFFFFFFFFFFFFFFFFFFFFFFFFFFFFFFF DUP2 CALLDATALOAD AND SWAP1 PUSH1 0x20 ADD CALLDATALOAD PUSH2 0x49F JUMP JUMPDEST PUSH1 0x40 DUP1 MLOAD SWAP2 ISZERO ISZERO DUP3 MSTORE MLOAD SWAP1 DUP2 SWAP1 SUB PUSH1 0x20 ADD SWAP1 RETURN JUMPDEST PUSH2 0x1D6 PUSH2 0x4B5 JUMP JUMPDEST PUSH2 0x221 PUSH1 0x4 DUP1 CALLDATASIZE SUB PUSH1 0x60 DUP2 LT ISZERO PUSH2 0x253 JUMPI PUSH1 0x0 DUP1 REVERT JUMPDEST POP PUSH20 0xFFFFFFFFFFFFFFFFFFFFFFFFFFFFFFFFFFFFFFFF DUP2 CALLDATALOAD DUP2 AND SWAP2 PUSH1 0x20 DUP2 ADD CALLDATALOAD SWAP1 SWAP2 AND SWAP1 PUSH1 0x40 ADD CALLDATALOAD PUSH2 0x4BF JUMP JUMPDEST PUSH2 0x288 PUSH2 0x540 JUMP JUMPDEST PUSH1 0x40 DUP1 MLOAD PUSH1 0xFF SWAP1 SWAP3 AND DUP3 MSTORE MLOAD SWAP1 DUP2 SWAP1 SUB PUSH1 0x20 ADD SWAP1 RETURN JUMPDEST PUSH2 0x1D6 PUSH1 0x4 DUP1 CALLDATASIZE SUB PUSH1 0x40 DUP2 LT ISZERO PUSH2 0x2B4 JUMPI PUSH1 0x0 DUP1 REVERT JUMPDEST POP PUSH20 0xFFFFFFFFFFFFFFFFFFFFFFFFFFFFFFFFFFFFFFFF DUP2 CALLDATALOAD AND SWAP1 PUSH1 0x20 ADD CALLDATALOAD PUSH2 0x545 JUMP JUMPDEST PUSH2 0x1D6 PUSH1 0x4 DUP1 CALLDATASIZE SUB PUSH1 0x20 DUP2 LT ISZERO PUSH2 0x2ED JUMPI PUSH1 0x0 DUP1 REVERT JUMPDEST POP CALLDATALOAD PUSH2 0x566 JUMP JUMPDEST PUSH2 0x1D6 PUSH1 0x4 DUP1 CALLDATASIZE SUB PUSH1 0x20 DUP2 LT ISZERO PUSH2 0x30A JUMPI PUSH1 0x0 DUP1 REVERT JUMPDEST POP CALLDATALOAD PUSH20 0xFFFFFFFFFFFFFFFFFFFFFFFFFFFFFFFFFFFFFFFF AND PUSH2 0x583 JUMP JUMPDEST PUSH2 0x128 PUSH2 0x5AB JUMP JUMPDEST PUSH2 0x34C PUSH1 0x4 DUP1 CALLDATASIZE SUB PUSH1 0x20 DUP2 LT ISZERO PUSH2 0x345 JUMPI PUSH1 0x0 DUP1 REVERT JUMPDEST POP CALLDATALOAD PUSH2 0x5E4 JUMP JUMPDEST STOP JUMPDEST PUSH2 0x1D6 PUSH2 0x7F4 JUMP JUMPDEST PUSH2 0x221 PUSH1 0x4 DUP1 CALLDATASIZE SUB PUSH1 0x40 DUP2 LT ISZERO PUSH2 0x36C JUMPI PUSH1 0x0 DUP1 REVERT JUMPDEST POP PUSH20 0xFFFFFFFFFFFFFFFFFFFFFFFFFFFFFFFFFFFFFFFF DUP2 CALLDATALOAD AND SWAP1 PUSH1 0x20 ADD CALLDATALOAD PUSH2 0x7FA JUMP JUMPDEST PUSH2 0x3AC PUSH1 0x4 DUP1 CALLDATASIZE SUB PUSH1 0x20 DUP2 LT ISZERO PUSH2 0x3A5 JUMPI PUSH1 0x0 DUP1 REVERT JUMPDEST POP CALLDATALOAD PUSH2 0x807 JUMP JUMPDEST PUSH1 0x40 DUP1 MLOAD PUSH20 0xFFFFFFFFFFFFFFFFFFFFFFFFFFFFFFFFFFFFFFFF SWAP1 SWAP3 AND DUP3 MSTORE MLOAD SWAP1 DUP2 SWAP1 SUB PUSH1 0x20 ADD SWAP1 RETURN JUMPDEST PUSH2 0x1D6 PUSH2 0x878 JUMP JUMPDEST PUSH2 0x1D6 PUSH1 0x4 DUP1 CALLDATASIZE SUB PUSH1 0x20 DUP2 LT ISZERO PUSH2 0x3F3 JUMPI PUSH1 0x0 DUP1 REVERT JUMPDEST POP CALLDATALOAD PUSH2 0x87E JUMP JUMPDEST PUSH2 0x1D6 PUSH1 0x4 DUP1 CALLDATASIZE SUB PUSH1 0x40 DUP2 LT ISZERO PUSH2 0x410 JUMPI PUSH1 0x0 DUP1 REVERT JUMPDEST POP PUSH20 0xFFFFFFFFFFFFFFFFFFFFFFFFFFFFFFFFFFFFFFFF DUP2 CALLDATALOAD DUP2 AND SWAP2 PUSH1 0x20 ADD CALLDATALOAD AND PUSH2 0x89D JUMP JUMPDEST PUSH1 0x40 MLOAD DUP1 PUSH1 0x40 ADD PUSH1 0x40 MSTORE DUP1 PUSH1 0x12 DUP2 MSTORE PUSH1 0x20 ADD PUSH32 0x43686920546F6B656E2062792031696E63680000000000000000000000000000 DUP2 MSTORE POP DUP2 JUMP JUMPDEST PUSH1 0x0 PUSH2 0x498 DUP4 PUSH2 0x493 PUSH2 0x489 DUP6 PUSH2 0x484 DUP9 PUSH2 0x583 JUMP JUMPDEST PUSH2 0x8D5 JUMP JUMPDEST PUSH2 0x484 DUP8 CALLER PUSH2 0x89D JUMP JUMPDEST PUSH2 0x545 JUMP JUMPDEST SWAP4 SWAP3 POP POP POP JUMP JUMPDEST PUSH1 0x0 PUSH2 0x4AC CALLER DUP5 DUP5 PUSH2 0x8EB JUMP JUMPDEST POP PUSH1 0x1 SWAP3 SWAP2 POP POP JUMP JUMPDEST PUSH1 0x3 SLOAD PUSH1 0x2 SLOAD SUB SWAP1 JUMP JUMPDEST PUSH1 0x0 PUSH2 0x4CC DUP5 DUP5 DUP5 PUSH2 0x95A JUMP JUMPDEST PUSH20 0xFFFFFFFFFFFFFFFFFFFFFFFFFFFFFFFFFFFFFFFF DUP5 AND PUSH1 0x0 SWAP1 DUP2 MSTORE PUSH1 0x1 PUSH1 0x20 SWAP1 DUP2 MSTORE PUSH1 0x40 DUP1 DUP4 KECCAK256 CALLER DUP5 MSTORE SWAP1 SWAP2 MSTORE SWAP1 KECCAK256 SLOAD PUSH1 0xFF DUP2 SWAP1 SHR PUSH2 0x535 JUMPI PUSH2 0x535 DUP6 CALLER PUSH2 0x530 DUP7 PUSH1 0x40 MLOAD DUP1 PUSH1 0x60 ADD PUSH1 0x40 MSTORE DUP1 PUSH1 0x28 DUP2 MSTORE PUSH1 0x20 ADD PUSH2 0xDEE PUSH1 0x28 SWAP2 CODECOPY DUP7 SWAP2 SWAP1 PUSH2 0xA47 JUMP JUMPDEST PUSH2 0x8EB JUMP JUMPDEST POP PUSH1 0x1 SWAP5 SWAP4 POP POP POP POP JUMP JUMPDEST PUSH1 0x0 DUP2 JUMP JUMPDEST PUSH1 0x0 DUP2 ISZERO PUSH2 0x560 JUMPI PUSH2 0x557 DUP4 DUP4 PUSH2 0xAF8 JUMP JUMPDEST PUSH2 0x560 DUP3 PUSH2 0xB6B JUMP JUMPDEST POP SWAP2 SWAP1 POP JUMP JUMPDEST PUSH1 0x0 PUSH2 0x57D PUSH2 0x578 DUP4 PUSH2 0x484 CALLER PUSH2 0x583 JUMP JUMPDEST PUSH2 0x87E JUMP JUMPDEST SWAP3 SWAP2 POP POP JUMP JUMPDEST PUSH20 0xFFFFFFFFFFFFFFFFFFFFFFFFFFFFFFFFFFFFFFFF AND PUSH1 0x0 SWAP1 DUP2 MSTORE PUSH1 0x20 DUP2 SWAP1 MSTORE PUSH1 0x40 SWAP1 KECCAK256 SLOAD SWAP1 JUMP JUMPDEST PUSH1 0x40 MLOAD DUP1 PUSH1 0x40 ADD PUSH1 0x40 MSTORE DUP1 PUSH1 0x3 DUP2 MSTORE PUSH1 0x20 ADD PUSH32 0x4348490000000000000000000000000000000000000000000000000000000000 DUP2 MSTORE POP DUP2 JUMP JUMPDEST PUSH1 0x2 SLOAD PUSH32 0x746D4946C0E9F43F4DEE607B0EF1FA1C3318585733FF6000526015600BF30000 PUSH1 0x0 MSTORE PUSH1 0x20 DUP3 DIV JUMPDEST DUP1 ISZERO PUSH2 0x7A1 JUMPI DUP2 PUSH1 0x1E PUSH1 0x0 DUP1 CREATE2 POP PUSH1 0x1 DUP3 ADD PUSH1 0x1E PUSH1 0x0 DUP1 CREATE2 POP PUSH1 0x2 DUP3 ADD PUSH1 0x1E PUSH1 0x0 DUP1 CREATE2 POP PUSH1 0x3 DUP3 ADD PUSH1 0x1E PUSH1 0x0 DUP1 CREATE2 POP PUSH1 0x4 DUP3 ADD PUSH1 0x1E PUSH1 0x0 DUP1 CREATE2 POP PUSH1 0x5 DUP3 ADD PUSH1 0x1E PUSH1 0x0 DUP1 CREATE2 POP PUSH1 0x6 DUP3 ADD PUSH1 0x1E PUSH1 0x0 DUP1 CREATE2 POP PUSH1 0x7 DUP3 ADD PUSH1 0x1E PUSH1 0x0 DUP1 CREATE2 POP PUSH1 0x8 DUP3 ADD PUSH1 0x1E PUSH1 0x0 DUP1 CREATE2 POP PUSH1 0x9 DUP3 ADD PUSH1 0x1E PUSH1 0x0 DUP1 CREATE2 POP PUSH1 0xA DUP3 ADD PUSH1 0x1E PUSH1 0x0 DUP1 CREATE2 POP PUSH1 0xB DUP3 ADD PUSH1 0x1E PUSH1 0x0 DUP1 CREATE2 POP PUSH1 0xC DUP3 ADD PUSH1 0x1E PUSH1 0x0 DUP1 CREATE2 POP PUSH1 0xD DUP3 ADD PUSH1 0x1E PUSH1 0x0 DUP1 CREATE2 POP PUSH1 0xE DUP3 ADD PUSH1 0x1E PUSH1 0x0 DUP1 CREATE2 POP PUSH1 0xF DUP3 ADD PUSH1 0x1E PUSH1 0x0 DUP1 CREATE2 POP PUSH1 0x10 DUP3 ADD PUSH1 0x1E PUSH1 0x0 DUP1 CREATE2 POP PUSH1 0x11 DUP3 ADD PUSH1 0x1E PUSH1 0x0 DUP1 CREATE2 POP PUSH1 0x12 DUP3 ADD PUSH1 0x1E PUSH1 0x0 DUP1 CREATE2 POP PUSH1 0x13 DUP3 ADD PUSH1 0x1E PUSH1 0x0 DUP1 CREATE2 POP PUSH1 0x14 DUP3 ADD PUSH1 0x1E PUSH1 0x0 DUP1 CREATE2 POP PUSH1 0x15 DUP3 ADD PUSH1 0x1E PUSH1 0x0 DUP1 CREATE2 POP PUSH1 0x16 DUP3 ADD PUSH1 0x1E PUSH1 0x0 DUP1 CREATE2 POP PUSH1 0x17 DUP3 ADD PUSH1 0x1E PUSH1 0x0 DUP1 CREATE2 POP PUSH1 0x18 DUP3 ADD PUSH1 0x1E PUSH1 0x0 DUP1 CREATE2 POP PUSH1 0x19 DUP3 ADD PUSH1 0x1E PUSH1 0x0 DUP1 CREATE2 POP PUSH1 0x1A DUP3 ADD PUSH1 0x1E PUSH1 0x0 DUP1 CREATE2 POP PUSH1 0x1B DUP3 ADD PUSH1 0x1E PUSH1 0x0 DUP1 CREATE2 POP PUSH1 0x1C DUP3 ADD PUSH1 0x1E PUSH1 0x0 DUP1 CREATE2 POP PUSH1 0x1D DUP3 ADD PUSH1 0x1E PUSH1 0x0 DUP1 CREATE2 POP PUSH1 0x1E DUP3 ADD PUSH1 0x1E PUSH1 0x0 DUP1 CREATE2 POP PUSH1 0x1F DUP3 ADD PUSH1 0x1E PUSH1 0x0 DUP1 CREATE2 POP PUSH1 0x20 SWAP2 SWAP1 SWAP2 ADD SWAP1 PUSH32 0xFFFFFFFFFFFFFFFFFFFFFFFFFFFFFFFFFFFFFFFFFFFFFFFFFFFFFFFFFFFFFFFF ADD PUSH2 0x610 JUMP JUMPDEST POP PUSH1 0x1F DUP3 AND JUMPDEST DUP1 ISZERO PUSH2 0x7E3 JUMPI DUP2 PUSH1 0x1E PUSH1 0x0 DUP1 CREATE2 POP PUSH1 0x1 SWAP2 SWAP1 SWAP2 ADD SWAP1 PUSH32 0xFFFFFFFFFFFFFFFFFFFFFFFFFFFFFFFFFFFFFFFFFFFFFFFFFFFFFFFFFFFFFFFF ADD PUSH2 0x7A7 JUMP JUMPDEST POP PUSH2 0x7EE CALLER DUP4 PUSH2 0xBF2 JUMP JUMPDEST PUSH1 0x2 SSTORE POP JUMP JUMPDEST PUSH1 0x2 SLOAD DUP2 JUMP JUMPDEST PUSH1 0x0 PUSH2 0x4AC CALLER DUP5 DUP5 PUSH2 0x95A JUMP JUMPDEST PUSH1 0x40 MLOAD PUSH32 0xFF0000000000004946C0E9F43F4DEE607B0EF1FA1C0000000000000000000000 DUP2 MSTORE PUSH1 0x15 DUP2 ADD SWAP2 SWAP1 SWAP2 MSTORE PUSH32 0x3C1644C68E5D6CB380C36D1BF847FDBC0C7AC28030025A2FC5E63CCE23C16348 PUSH1 0x35 DUP3 ADD MSTORE PUSH1 0x55 SWAP1 KECCAK256 PUSH20 0xFFFFFFFFFFFFFFFFFFFFFFFFFFFFFFFFFFFFFFFF AND SWAP1 JUMP JUMPDEST PUSH1 0x3 SLOAD DUP2 JUMP JUMPDEST PUSH1 0x0 DUP2 ISZERO PUSH2 0x899 JUMPI PUSH2 0x890 CALLER DUP4 PUSH2 0xC85 JUMP JUMPDEST PUSH2 0x899 DUP3 PUSH2 0xB6B JUMP JUMPDEST POP SWAP1 JUMP JUMPDEST PUSH20 0xFFFFFFFFFFFFFFFFFFFFFFFFFFFFFFFFFFFFFFFF SWAP2 DUP3 AND PUSH1 0x0 SWAP1 DUP2 MSTORE PUSH1 0x1 PUSH1 0x20 SWAP1 DUP2 MSTORE PUSH1 0x40 DUP1 DUP4 KECCAK256 SWAP4 SWAP1 SWAP5 AND DUP3 MSTORE SWAP2 SWAP1 SWAP2 MSTORE KECCAK256 SLOAD SWAP1 JUMP JUMPDEST PUSH1 0x0 DUP2 DUP4 LT PUSH2 0x8E4 JUMPI DUP2 PUSH2 0x498 JUMP JUMPDEST POP SWAP1 SWAP2 SWAP1 POP JUMP JUMPDEST PUSH20 0xFFFFFFFFFFFFFFFFFFFFFFFFFFFFFFFFFFFFFFFF DUP1 DUP5 AND PUSH1 0x0 DUP2 DUP2 MSTORE PUSH1 0x1 PUSH1 0x20 SWAP1 DUP2 MSTORE PUSH1 0x40 DUP1 DUP4 KECCAK256 SWAP5 DUP8 AND DUP1 DUP5 MSTORE SWAP5 DUP3 MSTORE SWAP2 DUP3 SWAP1 KECCAK256 DUP6 SWAP1 SSTORE DUP2 MLOAD DUP6 DUP2 MSTORE SWAP2 MLOAD PUSH32 0x8C5BE1E5EBEC7D5BD14F71427D1E84F3DD0314C0F7B2291E5B200AC8C7C3B925 SWAP3 DUP2 SWAP1 SUB SWAP1 SWAP2 ADD SWAP1 LOG3 POP POP POP JUMP JUMPDEST PUSH2 0x9A4 DUP2 PUSH1 0x40 MLOAD DUP1 PUSH1 0x60 ADD PUSH1 0x40 MSTORE DUP1 PUSH1 0x26 DUP2 MSTORE PUSH1 0x20 ADD PUSH2 0xDC8 PUSH1 0x26 SWAP2 CODECOPY PUSH20 0xFFFFFFFFFFFFFFFFFFFFFFFFFFFFFFFFFFFFFFFF DUP7 AND PUSH1 0x0 SWAP1 DUP2 MSTORE PUSH1 0x20 DUP2 SWAP1 MSTORE PUSH1 0x40 SWAP1 KECCAK256 SLOAD SWAP2 SWAP1 PUSH2 0xA47 JUMP JUMPDEST PUSH20 0xFFFFFFFFFFFFFFFFFFFFFFFFFFFFFFFFFFFFFFFF DUP1 DUP6 AND PUSH1 0x0 SWAP1 DUP2 MSTORE PUSH1 0x20 DUP2 SWAP1 MSTORE PUSH1 0x40 DUP1 DUP3 KECCAK256 SWAP4 SWAP1 SWAP4 SSTORE SWAP1 DUP5 AND DUP2 MSTORE KECCAK256 SLOAD PUSH2 0x9E0 SWAP1 DUP3 PUSH2 0xD31 JUMP JUMPDEST PUSH20 0xFFFFFFFFFFFFFFFFFFFFFFFFFFFFFFFFFFFFFFFF DUP1 DUP5 AND PUSH1 0x0 DUP2 DUP2 MSTORE PUSH1 0x20 DUP2 DUP2 MSTORE PUSH1 0x40 SWAP2 DUP3 SWAP1 KECCAK256 SWAP5 SWAP1 SWAP5 SSTORE DUP1 MLOAD DUP6 DUP2 MSTORE SWAP1 MLOAD SWAP2 SWAP4 SWAP3 DUP8 AND SWAP3 PUSH32 0xDDF252AD1BE2C89B69C2B068FC378DAA952BA7F163C4A11628F55A4DF523B3EF SWAP3 SWAP2 DUP3 SWAP1 SUB ADD SWAP1 LOG3 POP POP POP JUMP JUMPDEST PUSH1 0x0 DUP2 DUP5 DUP5 GT ISZERO PUSH2 0xAF0 JUMPI PUSH1 0x40 MLOAD PUSH32 0x8C379A000000000000000000000000000000000000000000000000000000000 DUP2 MSTORE PUSH1 0x4 ADD DUP1 DUP1 PUSH1 0x20 ADD DUP3 DUP2 SUB DUP3 MSTORE DUP4 DUP2 DUP2 MLOAD DUP2 MSTORE PUSH1 0x20 ADD SWAP2 POP DUP1 MLOAD SWAP1 PUSH1 0x20 ADD SWAP1 DUP1 DUP4 DUP4 PUSH1 0x0 JUMPDEST DUP4 DUP2 LT ISZERO PUSH2 0xAB5 JUMPI DUP2 DUP2 ADD MLOAD DUP4 DUP3 ADD MSTORE PUSH1 0x20 ADD PUSH2 0xA9D JUMP JUMPDEST POP POP POP POP SWAP1 POP SWAP1 DUP2 ADD SWAP1 PUSH1 0x1F AND DUP1 ISZERO PUSH2 0xAE2 JUMPI DUP1 DUP3 SUB DUP1 MLOAD PUSH1 0x1 DUP4 PUSH1 0x20 SUB PUSH2 0x100 EXP SUB NOT AND DUP2 MSTORE PUSH1 0x20 ADD SWAP2 POP JUMPDEST POP SWAP3 POP POP POP PUSH1 0x40 MLOAD DUP1 SWAP2 SUB SWAP1 REVERT JUMPDEST POP POP POP SWAP1 SUB SWAP1 JUMP JUMPDEST PUSH2 0xB02 DUP3 DUP3 PUSH2 0xC85 JUMP JUMPDEST PUSH20 0xFFFFFFFFFFFFFFFFFFFFFFFFFFFFFFFFFFFFFFFF DUP3 AND PUSH1 0x0 SWAP1 DUP2 MSTORE PUSH1 0x1 PUSH1 0x20 SWAP1 DUP2 MSTORE PUSH1 0x40 DUP1 DUP4 KECCAK256 CALLER DUP5 MSTORE SWAP1 SWAP2 MSTORE SWAP1 KECCAK256 SLOAD PUSH1 0xFF DUP2 SWAP1 SHR PUSH2 0xB66 JUMPI PUSH2 0xB66 DUP4 CALLER PUSH2 0x530 DUP6 PUSH1 0x40 MLOAD DUP1 PUSH1 0x60 ADD PUSH1 0x40 MSTORE DUP1 PUSH1 0x24 DUP2 MSTORE PUSH1 0x20 ADD PUSH2 0xE16 PUSH1 0x24 SWAP2 CODECOPY DUP7 SWAP2 SWAP1 PUSH2 0xA47 JUMP JUMPDEST POP POP POP JUMP JUMPDEST PUSH1 0x3 SLOAD DUP2 DUP2 ADD DUP1 PUSH1 0x3 SSTORE PUSH1 0x40 MLOAD PUSH32 0xFF0000000000004946C0E9F43F4DEE607B0EF1FA1C0000000000000000000000 DUP2 MSTORE PUSH32 0x3C1644C68E5D6CB380C36D1BF847FDBC0C7AC28030025A2FC5E63CCE23C16348 PUSH1 0x35 DUP3 ADD MSTORE PUSH1 0x15 DUP2 ADD JUMPDEST DUP3 DUP5 LT ISZERO PUSH2 0xBEB JUMPI DUP4 DUP2 MSTORE PUSH1 0x0 DUP1 PUSH1 0x0 DUP1 PUSH1 0x0 PUSH1 0x55 DUP8 KECCAK256 GAS CALL POP PUSH1 0x1 DUP5 ADD SWAP4 POP PUSH2 0xBC6 JUMP JUMPDEST POP POP POP POP POP JUMP JUMPDEST PUSH20 0xFFFFFFFFFFFFFFFFFFFFFFFFFFFFFFFFFFFFFFFF DUP3 AND PUSH1 0x0 SWAP1 DUP2 MSTORE PUSH1 0x20 DUP2 SWAP1 MSTORE PUSH1 0x40 SWAP1 KECCAK256 SLOAD PUSH2 0xC22 SWAP1 DUP3 PUSH2 0xD31 JUMP JUMPDEST PUSH20 0xFFFFFFFFFFFFFFFFFFFFFFFFFFFFFFFFFFFFFFFF DUP4 AND PUSH1 0x0 DUP2 DUP2 MSTORE PUSH1 0x20 DUP2 DUP2 MSTORE PUSH1 0x40 DUP1 DUP4 KECCAK256 SWAP5 SWAP1 SWAP5 SSTORE DUP4 MLOAD DUP6 DUP2 MSTORE SWAP4 MLOAD SWAP3 SWAP4 SWAP2 SWAP3 PUSH32 0xDDF252AD1BE2C89B69C2B068FC378DAA952BA7F163C4A11628F55A4DF523B3EF SWAP3 DUP2 SWAP1 SUB SWAP1 SWAP2 ADD SWAP1 LOG3 POP POP JUMP JUMPDEST PUSH2 0xCCF DUP2 PUSH1 0x40 MLOAD DUP1 PUSH1 0x60 ADD PUSH1 0x40 MSTORE DUP1 PUSH1 0x22 DUP2 MSTORE PUSH1 0x20 ADD PUSH2 0xDA6 PUSH1 0x22 SWAP2 CODECOPY PUSH20 0xFFFFFFFFFFFFFFFFFFFFFFFFFFFFFFFFFFFFFFFF DUP6 AND PUSH1 0x0 SWAP1 DUP2 MSTORE PUSH1 0x20 DUP2 SWAP1 MSTORE PUSH1 0x40 SWAP1 KECCAK256 SLOAD SWAP2 SWAP1 PUSH2 0xA47 JUMP JUMPDEST PUSH20 0xFFFFFFFFFFFFFFFFFFFFFFFFFFFFFFFFFFFFFFFF DUP4 AND PUSH1 0x0 DUP2 DUP2 MSTORE PUSH1 0x20 DUP2 DUP2 MSTORE PUSH1 0x40 DUP1 DUP4 KECCAK256 SWAP5 SWAP1 SWAP5 SSTORE DUP4 MLOAD DUP6 DUP2 MSTORE SWAP4 MLOAD SWAP2 SWAP4 PUSH32 0xDDF252AD1BE2C89B69C2B068FC378DAA952BA7F163C4A11628F55A4DF523B3EF SWAP3 SWAP1 DUP2 SWAP1 SUB SWAP1 SWAP2 ADD SWAP1 LOG3 POP POP JUMP JUMPDEST PUSH1 0x0 DUP3 DUP3 ADD DUP4 DUP2 LT ISZERO PUSH2 0x498 JUMPI PUSH1 0x40 DUP1 MLOAD PUSH32 0x8C379A000000000000000000000000000000000000000000000000000000000 DUP2 MSTORE PUSH1 0x20 PUSH1 0x4 DUP3 ADD MSTORE PUSH1 0x1B PUSH1 0x24 DUP3 ADD MSTORE PUSH32 0x536166654D6174683A206164646974696F6E206F766572666C6F770000000000 PUSH1 0x44 DUP3 ADD MSTORE SWAP1 MLOAD SWAP1 DUP2 SWAP1 SUB PUSH1 0x64 ADD SWAP1 REVERT INVALID GASLIMIT MSTORE NUMBER ORIGIN ADDRESS GASPRICE KECCAK256 PUSH3 0x75726E KECCAK256 PUSH2 0x6D6F PUSH22 0x6E7420657863656564732062616C616E636545524332 ADDRESS GASPRICE KECCAK256 PUSH21 0x72616E7366657220616D6F756E7420657863656564 PUSH20 0x2062616C616E636545524332303A207472616E73 PUSH7 0x657220616D6F75 PUSH15 0x74206578636565647320616C6C6F77 PUSH2 0x6E63 PUSH6 0x45524332303A KECCAK256 PUSH3 0x75726E KECCAK256 PUSH2 0x6D6F PUSH22 0x6E74206578636565647320616C6C6F77616E6365A264 PUSH10 0x70667358221220D2B67E SHR 0xB2 CALLDATACOPY STATICCALL CALLCODE SWAP7 AND 0x24 LOG3 MLOAD PUSH8 0x52CF0327CE3A4568 0xFB PUSH30 0xAA701F18C7E2A6AE64736F6C634300070600330000000000000000000000 "
        },
        "gasEstimates": {
          "creation": {
            "codeDepositCost": "739000",
            "executionCost": "773",
            "totalCost": "739773"
          },
          "external": {
            "allowance(address,address)": "1314",
            "approve(address,uint256)": "22363",
            "balanceOf(address)": "1144",
            "computeAddress2(uint256)": "430",
            "decimals()": "252",
            "free(uint256)": "infinite",
            "freeFrom(address,uint256)": "infinite",
            "freeFromUpTo(address,uint256)": "infinite",
            "freeUpTo(uint256)": "infinite",
            "mint(uint256)": "infinite",
            "name()": "infinite",
            "symbol()": "infinite",
            "totalBurned()": "1042",
            "totalMinted()": "1087",
            "totalSupply()": "1894",
            "transfer(address,uint256)": "infinite",
            "transferFrom(address,address,uint256)": "infinite"
          },
          "internal": {
            "_destroyChildren(uint256)": "infinite"
          }
        },
        "methodIdentifiers": {
          "allowance(address,address)": "dd62ed3e",
          "approve(address,uint256)": "095ea7b3",
          "balanceOf(address)": "70a08231",
          "computeAddress2(uint256)": "b0ac19a0",
          "decimals()": "313ce567",
          "free(uint256)": "d8ccd0f3",
          "freeFrom(address,uint256)": "5f2e2b45",
          "freeFromUpTo(address,uint256)": "079d229f",
          "freeUpTo(uint256)": "6366b936",
          "mint(uint256)": "a0712d68",
          "name()": "06fdde03",
          "symbol()": "95d89b41",
          "totalBurned()": "d89135cd",
          "totalMinted()": "a2309ff8",
          "totalSupply()": "18160ddd",
          "transfer(address,uint256)": "a9059cbb",
          "transferFrom(address,address,uint256)": "23b872dd"
        }
      },
      "storageLayout": {
        "storage": [
          {
            "astId": 3047,
            "contract": "src/contracts/test/vendor/ChiToken.sol:ChiToken",
            "label": "_balances",
            "offset": 0,
            "slot": "0",
            "type": "t_mapping(t_address,t_uint256)"
          },
          {
            "astId": 3053,
            "contract": "src/contracts/test/vendor/ChiToken.sol:ChiToken",
            "label": "_allowances",
            "offset": 0,
            "slot": "1",
            "type": "t_mapping(t_address,t_mapping(t_address,t_uint256))"
          },
          {
            "astId": 3349,
            "contract": "src/contracts/test/vendor/ChiToken.sol:ChiToken",
            "label": "totalMinted",
            "offset": 0,
            "slot": "2",
            "type": "t_uint256"
          },
          {
            "astId": 3351,
            "contract": "src/contracts/test/vendor/ChiToken.sol:ChiToken",
            "label": "totalBurned",
            "offset": 0,
            "slot": "3",
            "type": "t_uint256"
          }
        ],
        "types": {
          "t_address": {
            "encoding": "inplace",
            "label": "address",
            "numberOfBytes": "20"
          },
          "t_mapping(t_address,t_mapping(t_address,t_uint256))": {
            "encoding": "mapping",
            "key": "t_address",
            "label": "mapping(address => mapping(address => uint256))",
            "numberOfBytes": "32",
            "value": "t_mapping(t_address,t_uint256)"
          },
          "t_mapping(t_address,t_uint256)": {
            "encoding": "mapping",
            "key": "t_address",
            "label": "mapping(address => uint256)",
            "numberOfBytes": "32",
            "value": "t_uint256"
          },
          "t_uint256": {
            "encoding": "inplace",
            "label": "uint256",
            "numberOfBytes": "32"
          }
        }
      },
      "userdoc": {
        "kind": "user",
        "methods": {},
        "version": 1
      }
    }
  }
}