{
  "src/contracts/test/EventEmitter.sol": {
    "EventEmitter": {
      "abi": [
        {
          "anonymous": false,
          "inputs": [
            {
              "indexed": false,
              "internalType": "uint256",
              "name": "value",
              "type": "uint256"
            },
            {
              "indexed": false,
              "internalType": "uint256",
              "name": "number",
              "type": "uint256"
            }
          ],
          "name": "Event",
          "type": "event"
        },
        {
          "inputs": [
            {
              "internalType": "uint256",
              "name": "number",
              "type": "uint256"
            }
          ],
          "name": "emitEvent",
          "outputs": [],
          "stateMutability": "payable",
          "type": "function"
        }
      ],
      "devdoc": {
        "kind": "dev",
        "methods": {},
        "version": 1
      },
      "evm": {
        "bytecode": {
          "linkReferences": {},
          "object": "6080604052348015600f57600080fd5b5060b18061001e6000396000f3fe608060405260043610601c5760003560e01c80634d43bec9146021575b600080fd5b603b60048036036020811015603557600080fd5b5035603d565b005b604080513481526020810183905281517f34e802e5ebd1f132e05852c5064046c1b535831ec52f1c4997fc6fdc4d5345b3929181900390910190a15056fea2646970667358221220a37fa36a0acb1a2417bdb80e7a36a35248eecc52879460593eee6c7a0e931c1e64736f6c63430007060033",
          "opcodes": "PUSH1 0x80 PUSH1 0x40 MSTORE CALLVALUE DUP1 ISZERO PUSH1 0xF JUMPI PUSH1 0x0 DUP1 REVERT JUMPDEST POP PUSH1 0xB1 DUP1 PUSH2 0x1E PUSH1 0x0 CODECOPY PUSH1 0x0 RETURN INVALID PUSH1 0x80 PUSH1 0x40 MSTORE PUSH1 0x4 CALLDATASIZE LT PUSH1 0x1C JUMPI PUSH1 0x0 CALLDATALOAD PUSH1 0xE0 SHR DUP1 PUSH4 0x4D43BEC9 EQ PUSH1 0x21 JUMPI JUMPDEST PUSH1 0x0 DUP1 REVERT JUMPDEST PUSH1 0x3B PUSH1 0x4 DUP1 CALLDATASIZE SUB PUSH1 0x20 DUP2 LT ISZERO PUSH1 0x35 JUMPI PUSH1 0x0 DUP1 REVERT JUMPDEST POP CALLDATALOAD PUSH1 0x3D JUMP JUMPDEST STOP JUMPDEST PUSH1 0x40 DUP1 MLOAD CALLVALUE DUP2 MSTORE PUSH1 0x20 DUP2 ADD DUP4 SWAP1 MSTORE DUP2 MLOAD PUSH32 0x34E802E5EBD1F132E05852C5064046C1B535831EC52F1C4997FC6FDC4D5345B3 SWAP3 SWAP2 DUP2 SWAP1 SUB SWAP1 SWAP2 ADD SWAP1 LOG1 POP JUMP INVALID LOG2 PUSH5 0x6970667358 0x22 SLT KECCAK256 LOG3 PUSH32 0xA36A0ACB1A2417BDB80E7A36A35248EECC52879460593EEE6C7A0E931C1E6473 PUSH16 0x6C634300070600330000000000000000 "
        },
        "gasEstimates": {
          "creation": {
            "codeDepositCost": "35400",
            "executionCost": "87",
            "totalCost": "35487"
          },
          "external": {
            "emitEvent(uint256)": "1484"
          }
        },
        "methodIdentifiers": {
          "emitEvent(uint256)": "4d43bec9"
        }
      },
      "storageLayout": {
        "storage": [],
        "types": null
      },
      "userdoc": {
        "kind": "user",
        "methods": {},
        "version": 1
      }
    }
  }
}