{
  "_format": "hh-sol-artifact-1",
  "contractName": "ERC20ReturningUint",
  "sourceName": "src/contracts/test/NonStandardERC20.sol",
  "abi": [
    {
      "inputs": [
        {
          "internalType": "address",
          "name": "",
          "type": "address"
        },
        {
          "internalType": "address",
          "name": "",
          "type": "address"
        }
      ],
      "name": "allowance",
      "outputs": [
        {
          "internalType": "uint256",
          "name": "",
          "type": "uint256"
        }
      ],
      "stateMutability": "view",
      "type": "function"
    },
    {
      "inputs": [
        {
          "internalType": "address",
          "name": "spender",
          "type": "address"
        },
        {
          "internalType": "uint256",
          "name": "amount",
          "type": "uint256"
        }
      ],
      "name": "approve",
      "outputs": [],
      "stateMutability": "nonpayable",
      "type": "function"
    },
    {
      "inputs": [
        {
          "internalType": "address",
          "name": "",
          "type": "address"
        }
      ],
      "name": "balanceOf",
      "outputs": [
        {
          "internalType": "uint256",
          "name": "",
          "type": "uint256"
        }
      ],
      "stateMutability": "view",
      "type": "function"
    },
    {
      "inputs": [
        {
          "internalType": "address",
          "name": "to",
          "type": "address"
        },
        {
          "internalType": "uint256",
          "name": "amount",
          "type": "uint256"
        }
      ],
      "name": "mint",
      "outputs": [],
      "stateMutability": "nonpayable",
      "type": "function"
    },
    {
      "inputs": [
        {
          "internalType": "address",
          "name": "to",
          "type": "address"
        },
        {
          "internalType": "uint256",
          "name": "amount",
          "type": "uint256"
        }
      ],
      "name": "transfer",
      "outputs": [
        {
          "internalType": "uint256",
          "name": "",
          "type": "uint256"
        }
      ],
      "stateMutability": "nonpayable",
      "type": "function"
    },
    {
      "inputs": [
        {
          "internalType": "address",
          "name": "from",
          "type": "address"
        },
        {
          "internalType": "address",
          "name": "to",
          "type": "address"
        },
        {
          "internalType": "uint256",
          "name": "amount",
          "type": "uint256"
        }
      ],
      "name": "transferFrom",
      "outputs": [
        {
          "internalType": "uint256",
          "name": "",
          "type": "uint256"
        }
      ],
      "stateMutability": "nonpayable",
      "type": "function"
    }
  ],
  "bytecode": "0x608060405234801561001057600080fd5b5061057b806100206000396000f3fe608060405234801561001057600080fd5b50600436106100725760003560e01c806370a082311161005057806370a0823114610140578063a9059cbb14610173578063dd62ed3e146101ac57610072565b8063095ea7b31461007757806323b872dd146100b257806340c10f1914610107575b600080fd5b6100b06004803603604081101561008d57600080fd5b5073ffffffffffffffffffffffffffffffffffffffff81351690602001356101e7565b005b6100f5600480360360608110156100c857600080fd5b5073ffffffffffffffffffffffffffffffffffffffff81358116916020810135909116906040013561021e565b60408051918252519081900360200190f35b6100b06004803603604081101561011d57600080fd5b5073ffffffffffffffffffffffffffffffffffffffff8135169060200135610254565b6100f56004803603602081101561015657600080fd5b503573ffffffffffffffffffffffffffffffffffffffff166102b1565b6100f56004803603604081101561018957600080fd5b5073ffffffffffffffffffffffffffffffffffffffff81351690602001356102c3565b6100f5600480360360408110156101c257600080fd5b5073ffffffffffffffffffffffffffffffffffffffff813581169160200135166102f7565b33600090815260016020908152604080832073ffffffffffffffffffffffffffffffffffffffff9590951683529390529190912055565b600061022b848484610314565b507fffffffffffffffffffffffffffffffffffffffffffffffffffffffffffffff439392505050565b73ffffffffffffffffffffffffffffffffffffffff82166000908152602081905260409020546102849082610400565b73ffffffffffffffffffffffffffffffffffffffff90921660009081526020819052604090209190915550565b60006020819052908152604090205481565b60006102cf838361047b565b507fffffffffffffffffffffffffffffffffffffffffffffffffffffffffffffff4392915050565b600160209081526000928352604080842090915290825290205481565b73ffffffffffffffffffffffffffffffffffffffff8316600090815260016020908152604080832033845290915290205461034f90826104ce565b73ffffffffffffffffffffffffffffffffffffffff8416600081815260016020908152604080832033845282528083209490945591815290819052205461039690826104ce565b73ffffffffffffffffffffffffffffffffffffffff80851660009081526020819052604080822093909355908416815220546103d29082610400565b73ffffffffffffffffffffffffffffffffffffffff9092166000908152602081905260409020919091555050565b60008282018381101561047457604080517f08c379a000000000000000000000000000000000000000000000000000000000815260206004820152601b60248201527f536166654d6174683a206164646974696f6e206f766572666c6f770000000000604482015290519081900360640190fd5b9392505050565b3360009081526020819052604090205461049590826104ce565b336000908152602081905260408082209290925573ffffffffffffffffffffffffffffffffffffffff8416815220546102849082610400565b60008282111561053f57604080517f08c379a000000000000000000000000000000000000000000000000000000000815260206004820152601e60248201527f536166654d6174683a207375627472616374696f6e206f766572666c6f770000604482015290519081900360640190fd5b5090039056fea2646970667358221220a8d0b7cbe98d2f36ef543622f88d65ebc54ca819d89b8d2a19f660a4092a27c964736f6c63430007060033",
  "linkReferences": {},
  "deployedLinkReferences": {}
}