{
  "_format": "hh-sol-artifact-1",
  "contractName": "ERC20NoReturn",
  "sourceName": "src/contracts/test/NonStandardERC20.sol",
  "abi": [
    {
      "inputs": [
        {
          "internalType": "address",
          "name": "",
          "type": "address"
        },
        {
          "internalType": "address",
          "name": "",
          "type": "address"
        }
      ],
      "name": "allowance",
      "outputs": [
        {
          "internalType": "uint256",
          "name": "",
          "type": "uint256"
        }
      ],
      "stateMutability": "view",
      "type": "function"
    },
    {
      "inputs": [
        {
          "internalType": "address",
          "name": "spender",
          "type": "address"
        },
        {
          "internalType": "uint256",
          "name": "amount",
          "type": "uint256"
        }
      ],
      "name": "approve",
      "outputs": [],
      "stateMutability": "nonpayable",
      "type": "function"
    },
    {
      "inputs": [
        {
          "internalType": "address",
          "name": "",
          "type": "address"
        }
      ],
      "name": "balanceOf",
      "outputs": [
        {
          "internalType": "uint256",
          "name": "",
          "type": "uint256"
        }
      ],
      "stateMutability": "view",
      "type": "function"
    },
    {
      "inputs": [
        {
          "internalType": "address",
          "name": "to",
          "type": "address"
        },
        {
          "internalType": "uint256",
          "name": "amount",
          "type": "uint256"
        }
      ],
      "name": "mint",
      "outputs": [],
      "stateMutability": "nonpayable",
      "type": "function"
    },
    {
      "inputs": [
        {
          "internalType": "address",
          "name": "to",
          "type": "address"
        },
        {
          "internalType": "uint256",
          "name": "amount",
          "type": "uint256"
        }
      ],
      "name": "transfer",
      "outputs": [],
      "stateMutability": "nonpayable",
      "type": "function"
    },
    {
      "inputs": [
        {
          "internalType": "address",
          "name": "from",
          "type": "address"
        },
        {
          "internalType": "address",
          "name": "to",
          "type": "address"
        },
        {
          "internalType": "uint256",
          "name": "amount",
          "type": "uint256"
        }
      ],
      "name": "transferFrom",
      "outputs": [],
      "stateMutability": "nonpayable",
      "type": "function"
    }
  ],
  "bytecode": "0x608060405234801561001057600080fd5b5061052f806100206000396000f3fe608060405234801561001057600080fd5b50600436106100725760003560e01c806370a082311161005057806370a082311461012e578063a9059cbb14610173578063dd62ed3e146101ac57610072565b8063095ea7b31461007757806323b872dd146100b257806340c10f19146100f5575b600080fd5b6100b06004803603604081101561008d57600080fd5b5073ffffffffffffffffffffffffffffffffffffffff81351690602001356101e7565b005b6100b0600480360360608110156100c857600080fd5b5073ffffffffffffffffffffffffffffffffffffffff81358116916020810135909116906040013561021e565b6100b06004803603604081101561010b57600080fd5b5073ffffffffffffffffffffffffffffffffffffffff813516906020013561022e565b6101616004803603602081101561014457600080fd5b503573ffffffffffffffffffffffffffffffffffffffff1661028b565b60408051918252519081900360200190f35b6100b06004803603604081101561018957600080fd5b5073ffffffffffffffffffffffffffffffffffffffff813516906020013561029d565b610161600480360360408110156101c257600080fd5b5073ffffffffffffffffffffffffffffffffffffffff813581169160200135166102ab565b33600090815260016020908152604080832073ffffffffffffffffffffffffffffffffffffffff9590951683529390529190912055565b6102298383836102c8565b505050565b73ffffffffffffffffffffffffffffffffffffffff821660009081526020819052604090205461025e90826103b4565b73ffffffffffffffffffffffffffffffffffffffff90921660009081526020819052604090209190915550565b60006020819052908152604090205481565b6102a7828261042f565b5050565b600160209081526000928352604080842090915290825290205481565b73ffffffffffffffffffffffffffffffffffffffff831660009081526001602090815260408083203384529091529020546103039082610482565b73ffffffffffffffffffffffffffffffffffffffff8416600081815260016020908152604080832033845282528083209490945591815290819052205461034a9082610482565b73ffffffffffffffffffffffffffffffffffffffff808516600090815260208190526040808220939093559084168152205461038690826103b4565b73ffffffffffffffffffffffffffffffffffffffff9092166000908152602081905260409020919091555050565b60008282018381101561042857604080517f08c379a000000000000000000000000000000000000000000000000000000000815260206004820152601b60248201527f536166654d6174683a206164646974696f6e206f766572666c6f770000000000604482015290519081900360640190fd5b9392505050565b336000908152602081905260409020546104499082610482565b336000908152602081905260408082209290925573ffffffffffffffffffffffffffffffffffffffff84168152205461025e90826103b4565b6000828211156104f357604080517f08c379a000000000000000000000000000000000000000000000000000000000815260206004820152601e60248201527f536166654d6174683a207375627472616374696f6e206f766572666c6f770000604482015290519081900360640190fd5b5090039056fea2646970667358221220fb6e5751d12d77b495c95db6d90bd4405e2151d0c0fa3e37f5fc0b2932ffb75364736f6c63430007060033",
  "linkReferences": {},
  "deployedLinkReferences": {}
}