{
  "_format": "hh-sol-artifact-1",
  "contractName": "GPv2OrderTestInterface",
  "sourceName": "src/contracts/test/GPv2OrderTestInterface.sol",
  "abi": [
    {
      "inputs": [
        {
          "internalType": "bytes",
          "name": "orderUid",
          "type": "bytes"
        }
      ],
      "name": "extractOrderUidParamsTest",
      "outputs": [
        {
          "internalType": "bytes32",
          "name": "orderDigest",
          "type": "bytes32"
        },
        {
          "internalType": "address",
          "name": "owner",
          "type": "address"
        },
        {
          "internalType": "uint32",
          "name": "validTo",
          "type": "uint32"
        }
      ],
      "stateMutability": "pure",
      "type": "function"
    },
    {
      "inputs": [
        {
          "components": [
            {
              "internalType": "contract IERC20",
              "name": "sellToken",
              "type": "address"
            },
            {
              "internalType": "contract IERC20",
              "name": "buyToken",
              "type": "address"
            },
            {
              "internalType": "address",
              "name": "receiver",
              "type": "address"
            },
            {
              "internalType": "uint256",
              "name": "sellAmount",
              "type": "uint256"
            },
            {
              "internalType": "uint256",
              "name": "buyAmount",
              "type": "uint256"
            },
            {
              "internalType": "uint32",
              "name": "validTo",
              "type": "uint32"
            },
            {
              "internalType": "bytes32",
              "name": "appData",
              "type": "bytes32"
            },
            {
              "internalType": "uint256",
              "name": "feeAmount",
              "type": "uint256"
            },
            {
              "internalType": "bytes32",
              "name": "kind",
              "type": "bytes32"
            },
            {
              "internalType": "bool",
              "name": "partiallyFillable",
              "type": "bool"
            },
            {
              "internalType": "bytes32",
              "name": "sellTokenBalance",
              "type": "bytes32"
            },
            {
              "internalType": "bytes32",
              "name": "buyTokenBalance",
              "type": "bytes32"
            }
          ],
          "internalType": "struct GPv2Order.Data",
          "name": "order",
          "type": "tuple"
        },
        {
          "internalType": "bytes32",
          "name": "domainSeparator",
          "type": "bytes32"
        }
      ],
      "name": "hashTest",
      "outputs": [
        {
          "internalType": "bytes32",
          "name": "orderDigest",
          "type": "bytes32"
        }
      ],
      "stateMutability": "pure",
      "type": "function"
    },
    {
      "inputs": [
        {
          "internalType": "uint256",
          "name": "bufferLength",
          "type": "uint256"
        },
        {
          "internalType": "bytes32",
          "name": "orderDigest",
          "type": "bytes32"
        },
        {
          "internalType": "address",
          "name": "owner",
          "type": "address"
        },
        {
          "internalType": "uint32",
          "name": "validTo",
          "type": "uint32"
        }
      ],
      "name": "packOrderUidParamsTest",
      "outputs": [
        {
          "internalType": "bytes",
          "name": "orderUid",
          "type": "bytes"
        }
      ],
      "stateMutability": "pure",
      "type": "function"
    },
    {
      "inputs": [],
      "name": "typeHashTest",
      "outputs": [
        {
          "internalType": "bytes32",
          "name": "",
          "type": "bytes32"
        }
      ],
      "stateMutability": "pure",
      "type": "function"
    }
  ],
  "bytecode": "0x608060405234801561001057600080fd5b506105f2806100206000396000f3fe608060405234801561001057600080fd5b506004361061004c5760003560e01c80631164d4e7146100515780631af5a7aa1461007a57806391f84bb21461008f578063feb6545f146100b1575b600080fd5b61006461005f366004610480565b6100c4565b6040516100719190610502565b60405180910390f35b61008261011f565b60405161007191906104c7565b6100a261009d366004610340565b610143565b604051610071939291906104d0565b6100826100bf3660046103ad565b61015f565b60608467ffffffffffffffff811180156100dd57600080fd5b506040519080825280601f01601f191660200182016040528015610108576020820181803683370190505b50905061011781858585610172565b949350505050565b7fd5a25ba2e97094ad7d83dc28a6572da797d6b3e7fc6663bd93efb789fc17e48990565b600080600061015285856101f4565b9250925092509250925092565b600061016b8383610282565b9392505050565b60388451146101e257604080517f08c379a000000000000000000000000000000000000000000000000000000000815260206004820152601960248201527f475076323a2075696420627566666572206f766572666c6f7700000000000000604482015290519081900360640190fd5b60388401526034830152602090910152565b600080806038841461026757604080517f08c379a000000000000000000000000000000000000000000000000000000000815260206004820152601160248201527f475076323a20696e76616c696420756964000000000000000000000000000000604482015290519081900360640190fd5b5050823593602084013560601c936034013560e01c92509050565b7fffffffffffffffffffffffffffffffffffffffffffffffffffffffffffffffe090910180517fd5a25ba2e97094ad7d83dc28a6572da797d6b3e7fc6663bd93efb789fc17e48982526101a0822091526040517f19010000000000000000000000000000000000000000000000000000000000008152600281019290925260228201526042902090565b803561031781610597565b919050565b8035801515811461031757600080fd5b803563ffffffff8116811461031757600080fd5b60008060208385031215610352578182fd5b823567ffffffffffffffff80821115610369578384fd5b818501915085601f83011261037c578384fd5b81358181111561038a578485fd5b86602082850101111561039b578485fd5b60209290920196919550909350505050565b6000808284036101a08112156103c1578283fd5b610180808212156103d0578384fd5b6103d981610573565b91506103e48561030c565b82526103f26020860161030c565b60208301526104036040860161030c565b6040830152606085013560608301526080850135608083015261042860a0860161032c565b60a083015260c085013560c083015260e085013560e083015261010080860135818401525061012061045b81870161031c565b9083015261014085810135908301526101608086013590830152909593013593505050565b60008060008060808587031215610495578182fd5b843593506020850135925060408501356104ae81610597565b91506104bc6060860161032c565b905092959194509250565b90815260200190565b92835273ffffffffffffffffffffffffffffffffffffffff91909116602083015263ffffffff16604082015260600190565b6000602080835283518082850152825b8181101561052e57858101830151858201604001528201610512565b8181111561053f5783604083870101525b50601f017fffffffffffffffffffffffffffffffffffffffffffffffffffffffffffffffe016929092016040019392505050565b60405181810167ffffffffffffffff8111828210171561058f57fe5b604052919050565b73ffffffffffffffffffffffffffffffffffffffff811681146105b957600080fd5b5056fea2646970667358221220994c681ca33d426ab3e67f5451bcf865fc2c2454201a34ac21bf50d37895b1a964736f6c63430007060033",
  "linkReferences": {},
  "deployedLinkReferences": {}
}