{
  "_format": "hh-sol-artifact-1",
  "contractName": "SmartSellOrder",
  "sourceName": "src/contracts/test/SmartSellOrder.sol",
  "abi": [
    {
      "inputs": [
        {
          "internalType": "contract GPv2Settlement",
          "name": "settlement",
          "type": "address"
        },
        {
          "internalType": "contract IERC20",
          "name": "sellToken_",
          "type": "address"
        },
        {
          "internalType": "contract IERC20",
          "name": "buyToken_",
          "type": "address"
        },
        {
          "internalType": "uint32",
          "name": "validTo_",
          "type": "uint32"
        },
        {
          "internalType": "uint256",
          "name": "totalSellAmount_",
          "type": "uint256"
        },
        {
          "internalType": "uint256",
          "name": "totalFeeAmount_",
          "type": "uint256"
        }
      ],
      "stateMutability": "nonpayable",
      "type": "constructor"
    },
    {
      "inputs": [],
      "name": "APPDATA",
      "outputs": [
        {
          "internalType": "bytes32",
          "name": "",
          "type": "bytes32"
        }
      ],
      "stateMutability": "view",
      "type": "function"
    },
    {
      "inputs": [],
      "name": "buyToken",
      "outputs": [
        {
          "internalType": "contract IERC20",
          "name": "",
          "type": "address"
        }
      ],
      "stateMutability": "view",
      "type": "function"
    },
    {
      "inputs": [],
      "name": "close",
      "outputs": [],
      "stateMutability": "nonpayable",
      "type": "function"
    },
    {
      "inputs": [],
      "name": "domainSeparator",
      "outputs": [
        {
          "internalType": "bytes32",
          "name": "",
          "type": "bytes32"
        }
      ],
      "stateMutability": "view",
      "type": "function"
    },
    {
      "inputs": [
        {
          "internalType": "bytes32",
          "name": "hash",
          "type": "bytes32"
        },
        {
          "internalType": "bytes",
          "name": "signature",
          "type": "bytes"
        }
      ],
      "name": "isValidSignature",
      "outputs": [
        {
          "internalType": "bytes4",
          "name": "magicValue",
          "type": "bytes4"
        }
      ],
      "stateMutability": "view",
      "type": "function"
    },
    {
      "inputs": [
        {
          "internalType": "uint256",
          "name": "sellAmount",
          "type": "uint256"
        }
      ],
      "name": "orderForSellAmount",
      "outputs": [
        {
          "components": [
            {
              "internalType": "contract IERC20",
              "name": "sellToken",
              "type": "address"
            },
            {
              "internalType": "contract IERC20",
              "name": "buyToken",
              "type": "address"
            },
            {
              "internalType": "address",
              "name": "receiver",
              "type": "address"
            },
            {
              "internalType": "uint256",
              "name": "sellAmount",
              "type": "uint256"
            },
            {
              "internalType": "uint256",
              "name": "buyAmount",
              "type": "uint256"
            },
            {
              "internalType": "uint32",
              "name": "validTo",
              "type": "uint32"
            },
            {
              "internalType": "bytes32",
              "name": "appData",
              "type": "bytes32"
            },
            {
              "internalType": "uint256",
              "name": "feeAmount",
              "type": "uint256"
            },
            {
              "internalType": "bytes32",
              "name": "kind",
              "type": "bytes32"
            },
            {
              "internalType": "bool",
              "name": "partiallyFillable",
              "type": "bool"
            },
            {
              "internalType": "bytes32",
              "name": "sellTokenBalance",
              "type": "bytes32"
            },
            {
              "internalType": "bytes32",
              "name": "buyTokenBalance",
              "type": "bytes32"
            }
          ],
          "internalType": "struct GPv2Order.Data",
          "name": "order",
          "type": "tuple"
        }
      ],
      "stateMutability": "view",
      "type": "function"
    },
    {
      "inputs": [],
      "name": "owner",
      "outputs": [
        {
          "internalType": "address",
          "name": "",
          "type": "address"
        }
      ],
      "stateMutability": "view",
      "type": "function"
    },
    {
      "inputs": [],
      "name": "sellToken",
      "outputs": [
        {
          "internalType": "contract IERC20",
          "name": "",
          "type": "address"
        }
      ],
      "stateMutability": "view",
      "type": "function"
    },
    {
      "inputs": [],
      "name": "totalFeeAmount",
      "outputs": [
        {
          "internalType": "uint256",
          "name": "",
          "type": "uint256"
        }
      ],
      "stateMutability": "view",
      "type": "function"
    },
    {
      "inputs": [],
      "name": "totalSellAmount",
      "outputs": [
        {
          "internalType": "uint256",
          "name": "",
          "type": "uint256"
        }
      ],
      "stateMutability": "view",
      "type": "function"
    },
    {
      "inputs": [],
      "name": "validTo",
      "outputs": [
        {
          "internalType": "uint32",
          "name": "",
          "type": "uint32"
        }
      ],
      "stateMutability": "view",
      "type": "function"
    },
    {
      "inputs": [
        {
          "internalType": "uint256",
          "name": "amount",
          "type": "uint256"
        }
      ],
      "name": "withdraw",
      "outputs": [],
      "stateMutability": "nonpayable",
      "type": "function"
    }
  ],
  "bytecode": "0x6101606040523480156200001257600080fd5b506040516200141e3803806200141e833981016040819052620000359162000244565b3360601b6080526040805163f698da2560e01b815290516001600160a01b0388169163f698da25916004808301926020929190829003018186803b1580156200007d57600080fd5b505afa15801562000092573d6000803e3d6000fd5b505050506040513d601f19601f82011682018060405250810190620000b891906200022b565b60a0526001600160601b0319606086811b821660c05285901b1660e09081526001600160e01b03199084901b166101405261010082905261012081905260408051634daa966160e11b815290516001600160a01b038088169263095ea7b392918a1691639b552cc291600480820192602092909190829003018186803b1580156200014257600080fd5b505afa15801562000157573d6000803e3d6000fd5b505050506040513d601f19601f820116820180604052508101906200017d9190620002c6565b6000196040518363ffffffff1660e01b81526004016200019f929190620002e5565b602060405180830381600087803b158015620001ba57600080fd5b505af1158015620001cf573d6000803e3d6000fd5b505050506040513d601f19601f82011682018060405250810190620001f5919062000202565b5050505050505062000317565b60006020828403121562000214578081fd5b8151801515811462000224578182fd5b9392505050565b6000602082840312156200023d578081fd5b5051919050565b60008060008060008060c087890312156200025d578182fd5b86516200026a81620002fe565b60208801519096506200027d81620002fe565b60408801519095506200029081620002fe565b606088015190945063ffffffff81168114620002aa578283fd5b809350506080870151915060a087015190509295509295509295565b600060208284031215620002d8578081fd5b81516200022481620002fe565b6001600160a01b03929092168252602082015260400190565b6001600160a01b03811681146200031457600080fd5b50565b60805160601c60a05160c05160601c60e05160601c61010051610120516101405160e01c611039620003e5600039806105b5528061068452508061054952806106fc528061094a52508061050152806106d6528061092952806109735280610a485280610a765280610a9e525080610591528061061b5250806102df52806103d8528061047f528061056d52806105f652806109945250806101d352806107945250806102655280610301528061034152806104a152806104c85280610525528061064352506110396000f3fe608060405234801561001057600080fd5b50600436106100d45760003560e01c80639652171611610081578063a88780ef1161005b578063a88780ef14610169578063eb3582b71461017e578063f698da251461019e576100d4565b806396521716146101515780639769f0b014610159578063a482171914610161576100d4565b806343d726d6116100b257806343d726d61461012c5780635dd8d06d146101345780638da5cb5b1461013c576100d4565b80631626ba7e146100d9578063175598d3146101025780632e1a7d4d14610117575b600080fd5b6100ec6100e7366004610d98565b6101a6565b6040516100f99190610edb565b60405180910390f35b61010a610229565b6040516100f99190610ed2565b61012a610125366004610e57565b61024d565b005b61012a610329565b61010a6104ff565b610144610523565b6040516100f99190610eb1565b61010a610547565b61014461056b565b61014461058f565b6101716105b3565b6040516100f99190610ff2565b61019161018c366004610e57565b6105d7565b6040516100f99190610f3f565b61010a610792565b600080828060200190518101906101bd9190610e6f565b905060006101ca826105d7565b9050846101f7827f00000000000000000000000000000000000000000000000000000000000000006107b6565b1415610221577f1626ba7e0000000000000000000000000000000000000000000000000000000092505b505092915050565b7fcfee8434d5246c71c4dc9e730e0cb573c063c628571ae7433b72c509840fa94981565b3373ffffffffffffffffffffffffffffffffffffffff7f000000000000000000000000000000000000000000000000000000000000000016146102c5576040517f08c379a00000000000000000000000000000000000000000000000000000000081526004016102bc90610f08565b60405180910390fd5b61032673ffffffffffffffffffffffffffffffffffffffff7f0000000000000000000000000000000000000000000000000000000000000000167f000000000000000000000000000000000000000000000000000000000000000083610840565b50565b3373ffffffffffffffffffffffffffffffffffffffff7f00000000000000000000000000000000000000000000000000000000000000001614610398576040517f08c379a00000000000000000000000000000000000000000000000000000000081526004016102bc90610f08565b6040517f70a0823100000000000000000000000000000000000000000000000000000000815260009073ffffffffffffffffffffffffffffffffffffffff7f000000000000000000000000000000000000000000000000000000000000000016906370a082319061040d903090600401610eb1565b60206040518083038186803b15801561042557600080fd5b505afa158015610439573d6000803e3d6000fd5b505050506040513d601f19601f8201168201806040525081019061045d9190610e6f565b905080156104c6576104c673ffffffffffffffffffffffffffffffffffffffff7f0000000000000000000000000000000000000000000000000000000000000000167f000000000000000000000000000000000000000000000000000000000000000083610840565b7f000000000000000000000000000000000000000000000000000000000000000073ffffffffffffffffffffffffffffffffffffffff16ff5b7f000000000000000000000000000000000000000000000000000000000000000081565b7f000000000000000000000000000000000000000000000000000000000000000081565b7f000000000000000000000000000000000000000000000000000000000000000081565b7f000000000000000000000000000000000000000000000000000000000000000081565b7f000000000000000000000000000000000000000000000000000000000000000081565b7f000000000000000000000000000000000000000000000000000000000000000081565b6105df610d34565b73ffffffffffffffffffffffffffffffffffffffff7f0000000000000000000000000000000000000000000000000000000000000000811682527f0000000000000000000000000000000000000000000000000000000000000000811660208301527f0000000000000000000000000000000000000000000000000000000000000000166040820152606081018290526106788261091e565b608082015263ffffffff7f0000000000000000000000000000000000000000000000000000000000000000811660a08301527fcfee8434d5246c71c4dc9e730e0cb573c063c628571ae7433b72c509840fa94960c083015261072a907f000000000000000000000000000000000000000000000000000000000000000090610724907f0000000000000000000000000000000000000000000000000000000000000000908690610ae316565b90610b75565b60e08201527ff3b277728b3fee749481eb3e0b3b48980dbbab78658fc419025cb16eee34677561010082015260006101208201527f5a28e9363bb942b639270062aa6bb295f434bcdfc42c97267bf003f272060dc96101408201819052610160820152919050565b7f000000000000000000000000000000000000000000000000000000000000000081565b7fffffffffffffffffffffffffffffffffffffffffffffffffffffffffffffffe090910180517fd5a25ba2e97094ad7d83dc28a6572da797d6b3e7fc6663bd93efb789fc17e48982526101a0822091526040517f19010000000000000000000000000000000000000000000000000000000000008152600281019290925260228201526042902090565b6040517fa9059cbb0000000000000000000000000000000000000000000000000000000080825273ffffffffffffffffffffffffffffffffffffffff84166004830152602482018390529060008060448382895af16108a3573d6000803e3d6000fd5b506108ad84610bf6565b61091857604080517f08c379a000000000000000000000000000000000000000000000000000000000815260206004820152601560248201527f475076323a206661696c6564207472616e736665720000000000000000000000604482015290519081900360640190fd5b50505050565b600080610a4161096e7f00000000000000000000000000000000000000000000000000000000000000007f0000000000000000000000000000000000000000000000000000000000000000610cc0565b6107247f00000000000000000000000000000000000000000000000000000000000000007f000000000000000000000000000000000000000000000000000000000000000073ffffffffffffffffffffffffffffffffffffffff166370a08231306040518263ffffffff1660e01b81526004016109eb9190610eb1565b60206040518083038186803b158015610a0357600080fd5b505afa158015610a17573d6000803e3d6000fd5b505050506040513d601f19601f82011682018060405250810190610a3b9190610e6f565b90610ae3565b90506000817f000000000000000000000000000000000000000000000000000000000000000011610a73576000610a97565b817f0000000000000000000000000000000000000000000000000000000000000000035b9050610adb7f0000000000000000000000000000000000000000000000000000000000000000610724610ad484610ace848a610cc0565b90610cc0565b8790610ae3565b949350505050565b600082610af257506000610b6f565b82820282848281610aff57fe5b0414610b6c57604080517f08c379a000000000000000000000000000000000000000000000000000000000815260206004820152601660248201527f536166654d6174683a206d756c206f766572666c6f7700000000000000000000604482015290519081900360640190fd5b90505b92915050565b6000808211610be557604080517f08c379a000000000000000000000000000000000000000000000000000000000815260206004820152601760248201527f536166654d6174683a206469766973696f6e2062792030000000000000000000604482015290519081900360640190fd5b818381610bee57fe5b049392505050565b6000610c34565b7f08c379a0000000000000000000000000000000000000000000000000000000006000526020600452806024528160445260646000fd5b3d8015610c735760208114610cad57610c6e7f475076323a206d616c666f726d6564207472616e7366657220726573756c7400601f610bfd565b610cba565b823b610ca457610ca47f475076323a206e6f74206120636f6e74726163740000000000000000000000006014610bfd565b60019150610cba565b3d6000803e600051151591505b50919050565b600082820183811015610b6c57604080517f08c379a000000000000000000000000000000000000000000000000000000000815260206004820152601b60248201527f536166654d6174683a206164646974696f6e206f766572666c6f770000000000604482015290519081900360640190fd5b6040805161018081018252600080825260208201819052918101829052606081018290526080810182905260a0810182905260c0810182905260e0810182905261010081018290526101208101829052610140810182905261016081019190915290565b60008060408385031215610daa578182fd5b8235915060208084013567ffffffffffffffff80821115610dc9578384fd5b818601915086601f830112610ddc578384fd5b813581811115610de857fe5b604051847fffffffffffffffffffffffffffffffffffffffffffffffffffffffffffffffe0601f8401168201018181108482111715610e2357fe5b6040528181528382018501891015610e39578586fd5b81858501868301378585838301015280955050505050509250929050565b600060208284031215610e68578081fd5b5035919050565b600060208284031215610e80578081fd5b5051919050565b73ffffffffffffffffffffffffffffffffffffffff169052565b15159052565b63ffffffff169052565b73ffffffffffffffffffffffffffffffffffffffff91909116815260200190565b90815260200190565b7fffffffff0000000000000000000000000000000000000000000000000000000091909116815260200190565b60208082526009908201527f6e6f74206f776e65720000000000000000000000000000000000000000000000604082015260600190565b600061018082019050610f53828451610e87565b6020830151610f656020840182610e87565b506040830151610f786040840182610e87565b50606083015160608301526080830151608083015260a0830151610f9f60a0840182610ea7565b5060c083015160c083015260e083015160e083015261010080840151818401525061012080840151610fd382850182610ea1565b5050610140838101519083015261016092830151929091019190915290565b63ffffffff9190911681526020019056fea2646970667358221220ffec4c1d320e4ec2a63dcf9d4ac8fc5785d7c8aee0625d1e50a295d386113cec64736f6c63430007060033",
  "linkReferences": {},
  "deployedLinkReferences": {}
}