{
  "_format": "hh-sol-artifact-1",
  "contractName": "GPv2TransferTestInterface",
  "sourceName": "src/contracts/test/GPv2TransferTestInterface.sol",
  "abi": [
    {
      "inputs": [
        {
          "internalType": "contract IVault",
          "name": "vault",
          "type": "address"
        },
        {
          "components": [
            {
              "internalType": "address",
              "name": "account",
              "type": "address"
            },
            {
              "internalType": "contract IERC20",
              "name": "token",
              "type": "address"
            },
            {
              "internalType": "uint256",
              "name": "amount",
              "type": "uint256"
            },
            {
              "internalType": "bytes32",
              "name": "balance",
              "type": "bytes32"
            }
          ],
          "internalType": "struct GPv2Transfer.Data",
          "name": "transfer",
          "type": "tuple"
        },
        {
          "internalType": "address",
          "name": "recipient",
          "type": "address"
        }
      ],
      "name": "fastTransferFromAccountTest",
      "outputs": [],
      "stateMutability": "nonpayable",
      "type": "function"
    },
    {
      "inputs": [
        {
          "internalType": "contract IVault",
          "name": "vault",
          "type": "address"
        },
        {
          "components": [
            {
              "internalType": "address",
              "name": "account",
              "type": "address"
            },
            {
              "internalType": "contract IERC20",
              "name": "token",
              "type": "address"
            },
            {
              "internalType": "uint256",
              "name": "amount",
              "type": "uint256"
            },
            {
              "internalType": "bytes32",
              "name": "balance",
              "type": "bytes32"
            }
          ],
          "internalType": "struct GPv2Transfer.Data[]",
          "name": "transfers",
          "type": "tuple[]"
        },
        {
          "internalType": "address",
          "name": "recipient",
          "type": "address"
        }
      ],
      "name": "transferFromAccountsTest",
      "outputs": [],
      "stateMutability": "nonpayable",
      "type": "function"
    },
    {
      "inputs": [
        {
          "internalType": "contract IVault",
          "name": "vault",
          "type": "address"
        },
        {
          "components": [
            {
              "internalType": "address",
              "name": "account",
              "type": "address"
            },
            {
              "internalType": "contract IERC20",
              "name": "token",
              "type": "address"
            },
            {
              "internalType": "uint256",
              "name": "amount",
              "type": "uint256"
            },
            {
              "internalType": "bytes32",
              "name": "balance",
              "type": "bytes32"
            }
          ],
          "internalType": "struct GPv2Transfer.Data[]",
          "name": "transfers",
          "type": "tuple[]"
        }
      ],
      "name": "transferToAccountsTest",
      "outputs": [],
      "stateMutability": "nonpayable",
      "type": "function"
    },
    {
      "stateMutability": "payable",
      "type": "receive"
    }
  ],
  "bytecode": "0x608060405234801561001057600080fd5b50610f59806100206000396000f3fe6080604052600436106100385760003560e01c8063344628f4146100445780638186257d14610066578063fcf015b4146100865761003f565b3661003f57005b600080fd5b34801561005057600080fd5b5061006461005f366004610bc8565b6100a6565b005b34801561007257600080fd5b50610064610081366004610c5e565b6100b8565b34801561009257600080fd5b506100646100a1366004610d6a565b6100c6565b6100b2848484846100d6565b50505050565b6100c282826103c2565b5050565b6100d183838361069f565b505050565b60008267ffffffffffffffff811180156100ef57600080fd5b5060405190808252806020026020018201604052801561012957816020015b610116610b75565b81526020019060019003908161010e5790505b5090506000805b84811015610324573686868381811061014557fe5b60800291909101915073eeeeeeeeeeeeeeeeeeeeeeeeeeeeeeeeeeeeeeee90506101756040830160208401610ba5565b73ffffffffffffffffffffffffffffffffffffffff1614156101cc576040517f08c379a00000000000000000000000000000000000000000000000000000000081526004016101c390610ea5565b60405180910390fd5b7f5a28e9363bb942b639270062aa6bb295f434bcdfc42c97267bf003f272060dc9816060013514156102405761023b6102086020830183610ba5565b866040840180359061021d9060208701610ba5565b73ffffffffffffffffffffffffffffffffffffffff169291906108e8565b61031b565b600084848060010195508151811061025457fe5b602002602001015190507fabee3b73373acd583a130924aad6dc38cfdc44ba0555ba94ce2ff63980ea0632826060013514610290576001610293565b60035b819060038111156102a057fe5b908160038111156102ad57fe5b9052506102c06040830160208401610ba5565b73ffffffffffffffffffffffffffffffffffffffff16602080830191909152604080840135908301526102f590830183610ba5565b73ffffffffffffffffffffffffffffffffffffffff908116606083015286166080909101525b50600101610130565b5080156103ba5761033582826109cf565b6040517f0e8e3e8400000000000000000000000000000000000000000000000000000000815273ffffffffffffffffffffffffffffffffffffffff871690630e8e3e8490610387908590600401610ddb565b600060405180830381600087803b1580156103a157600080fd5b505af11580156103b5573d6000803e3d6000fd5b505050505b505050505050565b6000815167ffffffffffffffff811180156103dc57600080fd5b5060405190808252806020026020018201604052801561041657816020015b610403610b75565b8152602001906001900390816103fb5790505b5090506000805b835181101561060457600084828151811061043457fe5b6020026020010151905073eeeeeeeeeeeeeeeeeeeeeeeeeeeeeeeeeeeeeeee73ffffffffffffffffffffffffffffffffffffffff16816020015173ffffffffffffffffffffffffffffffffffffffff161415610538577f4ac99ace14ee0a5ef932dc609df0943ab7ac16b7583634612f8dc35a4289a6ce816060015114156104e8576040517f08c379a00000000000000000000000000000000000000000000000000000000081526004016101c390610e6e565b8051604080830151905173ffffffffffffffffffffffffffffffffffffffff9092169181156108fc0291906000818181858888f19350505050158015610532573d6000803e3d6000fd5b506105fb565b7f5a28e9363bb942b639270062aa6bb295f434bcdfc42c97267bf003f272060dc981606001511415610597578051604082015160208301516105929273ffffffffffffffffffffffffffffffffffffffff909116916109d3565b6105fb565b60008484806001019550815181106105ab57fe5b602090810291909101810151600081528382015173ffffffffffffffffffffffffffffffffffffffff90811692820192909252604080850151908201523060608201528351909116608090910152505b5060010161041d565b5080156100b25761061582826109cf565b6040517f0e8e3e8400000000000000000000000000000000000000000000000000000000815273ffffffffffffffffffffffffffffffffffffffff851690630e8e3e8490610667908590600401610ddb565b600060405180830381600087803b15801561068157600080fd5b505af1158015610695573d6000803e3d6000fd5b5050505050505050565b73eeeeeeeeeeeeeeeeeeeeeeeeeeeeeeeeeeeeeeee6106c46040840160208501610ba5565b73ffffffffffffffffffffffffffffffffffffffff161415610712576040517f08c379a00000000000000000000000000000000000000000000000000000000081526004016101c390610ea5565b7f5a28e9363bb942b639270062aa6bb295f434bcdfc42c97267bf003f272060dc9826060013514156107685761076361074e6020840184610ba5565b826040850180359061021d9060208801610ba5565b6100d1565b604080516001808252818301909252600091816020015b610787610b75565b81526020019060019003908161077f5790505090506000816000815181106107ab57fe5b602002602001015190507fabee3b73373acd583a130924aad6dc38cfdc44ba0555ba94ce2ff63980ea06328460600135146107e75760026107ea565b60035b819060038111156107f757fe5b9081600381111561080457fe5b9052506108176040850160208601610ba5565b73ffffffffffffffffffffffffffffffffffffffff166020808301919091526040808601359083015261084c90850185610ba5565b73ffffffffffffffffffffffffffffffffffffffff908116606083015283811660808301526040517f0e8e3e8400000000000000000000000000000000000000000000000000000000815290861690630e8e3e84906108af908590600401610ddb565b600060405180830381600087803b1580156108c957600080fd5b505af11580156108dd573d6000803e3d6000fd5b505050505050505050565b6040517f23b872dd0000000000000000000000000000000000000000000000000000000080825273ffffffffffffffffffffffffffffffffffffffff8581166004840152841660248301526044820183905290600080606483828a5af1610953573d6000803e3d6000fd5b5061095d85610aab565b6109c857604080517f08c379a000000000000000000000000000000000000000000000000000000000815260206004820152601960248201527f475076323a206661696c6564207472616e7366657246726f6d00000000000000604482015290519081900360640190fd5b5050505050565b9052565b6040517fa9059cbb0000000000000000000000000000000000000000000000000000000080825273ffffffffffffffffffffffffffffffffffffffff84166004830152602482018390529060008060448382895af1610a36573d6000803e3d6000fd5b50610a4084610aab565b6100b257604080517f08c379a000000000000000000000000000000000000000000000000000000000815260206004820152601560248201527f475076323a206661696c6564207472616e736665720000000000000000000000604482015290519081900360640190fd5b6000610ae9565b7f08c379a0000000000000000000000000000000000000000000000000000000006000526020600452806024528160445260646000fd5b3d8015610b285760208114610b6257610b237f475076323a206d616c666f726d6564207472616e7366657220726573756c7400601f610ab2565b610b6f565b823b610b5957610b597f475076323a206e6f74206120636f6e74726163740000000000000000000000006014610ab2565b60019150610b6f565b3d6000803e600051151591505b50919050565b6040805160a081019091528060008152600060208201819052604082018190526060820181905260809091015290565b600060208284031215610bb6578081fd5b8135610bc181610efe565b9392505050565b60008060008060608587031215610bdd578283fd5b8435610be881610efe565b9350602085013567ffffffffffffffff80821115610c04578485fd5b818701915087601f830112610c17578485fd5b813581811115610c25578586fd5b886020608083028501011115610c39578586fd5b6020830195508094505050506040850135610c5381610efe565b939692955090935050565b6000806040808486031215610c71578283fd5b8335610c7c81610efe565b925060208481013567ffffffffffffffff80821115610c99578485fd5b818701915087601f830112610cac578485fd5b813581811115610cb857fe5b610cc58485830201610eda565b818152848101908486016080808502870188018d1015610ce357898afd5b8996505b84871015610d585780828e031215610cfd57898afd5b88518181018181108882111715610d1057fe5b8a528235610d1d81610efe565b815282890135610d2c81610efe565b818a0152828a01358a820152606080840135908201528452600196909601959287019290810190610ce7565b50989b909a5098505050505050505050565b600080600083850360c0811215610d7f578384fd5b8435610d8a81610efe565b935060807fffffffffffffffffffffffffffffffffffffffffffffffffffffffffffffffe082011215610dbb578283fd5b5060208401915060a0840135610dd081610efe565b809150509250925092565b602080825282518282018190526000919060409081850190868401855b82811015610e61578151805160048110610e0e57fe5b85528087015173ffffffffffffffffffffffffffffffffffffffff908116888701528682015187870152606080830151821690870152608091820151169085015260a09093019290850190600101610df8565b5091979650505050505050565b6020808252601e908201527f475076323a20756e737570706f7274656420696e7465726e616c204554480000604082015260600190565b6020808252818101527f475076323a2063616e6e6f74207472616e73666572206e617469766520455448604082015260600190565b60405181810167ffffffffffffffff81118282101715610ef657fe5b604052919050565b73ffffffffffffffffffffffffffffffffffffffff81168114610f2057600080fd5b5056fea26469706673582212208125e8f7a48fb5d5a8dd2084c045f21b8c2da638b3db287a6d1dcfd133a2ec9164736f6c63430007060033",
  "linkReferences": {},
  "deployedLinkReferences": {}
}