{
  "_format": "hh-sol-artifact-1",
  "contractName": "GPv2SettlementTestInterface",
  "sourceName": "src/contracts/test/GPv2SettlementTestInterface.sol",
  "abi": [
    {
      "inputs": [
        {
          "internalType": "contract GPv2Authentication",
          "name": "authenticator_",
          "type": "address"
        },
        {
          "internalType": "contract IVault",
          "name": "vault",
          "type": "address"
        }
      ],
      "stateMutability": "nonpayable",
      "type": "constructor"
    },
    {
      "anonymous": false,
      "inputs": [
        {
          "indexed": true,
          "internalType": "address",
          "name": "target",
          "type": "address"
        },
        {
          "indexed": false,
          "internalType": "uint256",
          "name": "value",
          "type": "uint256"
        },
        {
          "indexed": false,
          "internalType": "bytes4",
          "name": "selector",
          "type": "bytes4"
        }
      ],
      "name": "Interaction",
      "type": "event"
    },
    {
      "anonymous": false,
      "inputs": [
        {
          "indexed": true,
          "internalType": "address",
          "name": "owner",
          "type": "address"
        },
        {
          "indexed": false,
          "internalType": "bytes",
          "name": "orderUid",
          "type": "bytes"
        }
      ],
      "name": "OrderInvalidated",
      "type": "event"
    },
    {
      "anonymous": false,
      "inputs": [
        {
          "indexed": true,
          "internalType": "address",
          "name": "owner",
          "type": "address"
        },
        {
          "indexed": false,
          "internalType": "bytes",
          "name": "orderUid",
          "type": "bytes"
        },
        {
          "indexed": false,
          "internalType": "bool",
          "name": "signed",
          "type": "bool"
        }
      ],
      "name": "PreSignature",
      "type": "event"
    },
    {
      "anonymous": false,
      "inputs": [
        {
          "indexed": true,
          "internalType": "address",
          "name": "solver",
          "type": "address"
        }
      ],
      "name": "Settlement",
      "type": "event"
    },
    {
      "anonymous": false,
      "inputs": [
        {
          "indexed": true,
          "internalType": "address",
          "name": "owner",
          "type": "address"
        },
        {
          "indexed": false,
          "internalType": "contract IERC20",
          "name": "sellToken",
          "type": "address"
        },
        {
          "indexed": false,
          "internalType": "contract IERC20",
          "name": "buyToken",
          "type": "address"
        },
        {
          "indexed": false,
          "internalType": "uint256",
          "name": "sellAmount",
          "type": "uint256"
        },
        {
          "indexed": false,
          "internalType": "uint256",
          "name": "buyAmount",
          "type": "uint256"
        },
        {
          "indexed": false,
          "internalType": "uint256",
          "name": "feeAmount",
          "type": "uint256"
        },
        {
          "indexed": false,
          "internalType": "bytes",
          "name": "orderUid",
          "type": "bytes"
        }
      ],
      "name": "Trade",
      "type": "event"
    },
    {
      "inputs": [],
      "name": "authenticator",
      "outputs": [
        {
          "internalType": "contract GPv2Authentication",
          "name": "",
          "type": "address"
        }
      ],
      "stateMutability": "view",
      "type": "function"
    },
    {
      "inputs": [],
      "name": "computeTradeExecutionMemoryTest",
      "outputs": [
        {
          "internalType": "uint256",
          "name": "mem",
          "type": "uint256"
        }
      ],
      "stateMutability": "nonpayable",
      "type": "function"
    },
    {
      "inputs": [
        {
          "internalType": "contract IERC20[]",
          "name": "tokens",
          "type": "address[]"
        },
        {
          "internalType": "uint256[]",
          "name": "clearingPrices",
          "type": "uint256[]"
        },
        {
          "components": [
            {
              "internalType": "uint256",
              "name": "sellTokenIndex",
              "type": "uint256"
            },
            {
              "internalType": "uint256",
              "name": "buyTokenIndex",
              "type": "uint256"
            },
            {
              "internalType": "address",
              "name": "receiver",
              "type": "address"
            },
            {
              "internalType": "uint256",
              "name": "sellAmount",
              "type": "uint256"
            },
            {
              "internalType": "uint256",
              "name": "buyAmount",
              "type": "uint256"
            },
            {
              "internalType": "uint32",
              "name": "validTo",
              "type": "uint32"
            },
            {
              "internalType": "bytes32",
              "name": "appData",
              "type": "bytes32"
            },
            {
              "internalType": "uint256",
              "name": "feeAmount",
              "type": "uint256"
            },
            {
              "internalType": "uint256",
              "name": "flags",
              "type": "uint256"
            },
            {
              "internalType": "uint256",
              "name": "executedAmount",
              "type": "uint256"
            },
            {
              "internalType": "bytes",
              "name": "signature",
              "type": "bytes"
            }
          ],
          "internalType": "struct GPv2Trade.Data[]",
          "name": "trades",
          "type": "tuple[]"
        }
      ],
      "name": "computeTradeExecutionsTest",
      "outputs": [
        {
          "components": [
            {
              "internalType": "address",
              "name": "account",
              "type": "address"
            },
            {
              "internalType": "contract IERC20",
              "name": "token",
              "type": "address"
            },
            {
              "internalType": "uint256",
              "name": "amount",
              "type": "uint256"
            },
            {
              "internalType": "bytes32",
              "name": "balance",
              "type": "bytes32"
            }
          ],
          "internalType": "struct GPv2Transfer.Data[]",
          "name": "inTransfers",
          "type": "tuple[]"
        },
        {
          "components": [
            {
              "internalType": "address",
              "name": "account",
              "type": "address"
            },
            {
              "internalType": "contract IERC20",
              "name": "token",
              "type": "address"
            },
            {
              "internalType": "uint256",
              "name": "amount",
              "type": "uint256"
            },
            {
              "internalType": "bytes32",
              "name": "balance",
              "type": "bytes32"
            }
          ],
          "internalType": "struct GPv2Transfer.Data[]",
          "name": "outTransfers",
          "type": "tuple[]"
        }
      ],
      "stateMutability": "nonpayable",
      "type": "function"
    },
    {
      "inputs": [],
      "name": "domainSeparator",
      "outputs": [
        {
          "internalType": "bytes32",
          "name": "",
          "type": "bytes32"
        }
      ],
      "stateMutability": "view",
      "type": "function"
    },
    {
      "inputs": [
        {
          "components": [
            {
              "internalType": "address",
              "name": "target",
              "type": "address"
            },
            {
              "internalType": "uint256",
              "name": "value",
              "type": "uint256"
            },
            {
              "internalType": "bytes",
              "name": "callData",
              "type": "bytes"
            }
          ],
          "internalType": "struct GPv2Interaction.Data[]",
          "name": "interactions",
          "type": "tuple[]"
        }
      ],
      "name": "executeInteractionsTest",
      "outputs": [],
      "stateMutability": "nonpayable",
      "type": "function"
    },
    {
      "inputs": [
        {
          "internalType": "bytes",
          "name": "",
          "type": "bytes"
        }
      ],
      "name": "filledAmount",
      "outputs": [
        {
          "internalType": "uint256",
          "name": "",
          "type": "uint256"
        }
      ],
      "stateMutability": "view",
      "type": "function"
    },
    {
      "inputs": [
        {
          "internalType": "bytes[]",
          "name": "orderUids",
          "type": "bytes[]"
        }
      ],
      "name": "freeFilledAmountStorage",
      "outputs": [],
      "stateMutability": "nonpayable",
      "type": "function"
    },
    {
      "inputs": [
        {
          "internalType": "bytes[]",
          "name": "orderUids",
          "type": "bytes[]"
        }
      ],
      "name": "freeFilledAmountStorageTest",
      "outputs": [],
      "stateMutability": "nonpayable",
      "type": "function"
    },
    {
      "inputs": [
        {
          "internalType": "bytes[]",
          "name": "orderUids",
          "type": "bytes[]"
        }
      ],
      "name": "freePreSignatureStorage",
      "outputs": [],
      "stateMutability": "nonpayable",
      "type": "function"
    },
    {
      "inputs": [
        {
          "internalType": "bytes[]",
          "name": "orderUids",
          "type": "bytes[]"
        }
      ],
      "name": "freePreSignatureStorageTest",
      "outputs": [],
      "stateMutability": "nonpayable",
      "type": "function"
    },
    {
      "inputs": [
        {
          "internalType": "uint256",
          "name": "offset",
          "type": "uint256"
        },
        {
          "internalType": "uint256",
          "name": "length",
          "type": "uint256"
        }
      ],
      "name": "getStorageAt",
      "outputs": [
        {
          "internalType": "bytes",
          "name": "",
          "type": "bytes"
        }
      ],
      "stateMutability": "view",
      "type": "function"
    },
    {
      "inputs": [
        {
          "internalType": "bytes",
          "name": "orderUid",
          "type": "bytes"
        }
      ],
      "name": "invalidateOrder",
      "outputs": [],
      "stateMutability": "nonpayable",
      "type": "function"
    },
    {
      "inputs": [
        {
          "internalType": "bytes",
          "name": "",
          "type": "bytes"
        }
      ],
      "name": "preSignature",
      "outputs": [
        {
          "internalType": "uint256",
          "name": "",
          "type": "uint256"
        }
      ],
      "stateMutability": "view",
      "type": "function"
    },
    {
      "inputs": [
        {
          "internalType": "bytes",
          "name": "orderUid",
          "type": "bytes"
        },
        {
          "internalType": "uint256",
          "name": "amount",
          "type": "uint256"
        }
      ],
      "name": "setFilledAmount",
      "outputs": [],
      "stateMutability": "nonpayable",
      "type": "function"
    },
    {
      "inputs": [
        {
          "internalType": "bytes",
          "name": "orderUid",
          "type": "bytes"
        },
        {
          "internalType": "bool",
          "name": "signed",
          "type": "bool"
        }
      ],
      "name": "setPreSignature",
      "outputs": [],
      "stateMutability": "nonpayable",
      "type": "function"
    },
    {
      "inputs": [
        {
          "internalType": "contract IERC20[]",
          "name": "tokens",
          "type": "address[]"
        },
        {
          "internalType": "uint256[]",
          "name": "clearingPrices",
          "type": "uint256[]"
        },
        {
          "components": [
            {
              "internalType": "uint256",
              "name": "sellTokenIndex",
              "type": "uint256"
            },
            {
              "internalType": "uint256",
              "name": "buyTokenIndex",
              "type": "uint256"
            },
            {
              "internalType": "address",
              "name": "receiver",
              "type": "address"
            },
            {
              "internalType": "uint256",
              "name": "sellAmount",
              "type": "uint256"
            },
            {
              "internalType": "uint256",
              "name": "buyAmount",
              "type": "uint256"
            },
            {
              "internalType": "uint32",
              "name": "validTo",
              "type": "uint32"
            },
            {
              "internalType": "bytes32",
              "name": "appData",
              "type": "bytes32"
            },
            {
              "internalType": "uint256",
              "name": "feeAmount",
              "type": "uint256"
            },
            {
              "internalType": "uint256",
              "name": "flags",
              "type": "uint256"
            },
            {
              "internalType": "uint256",
              "name": "executedAmount",
              "type": "uint256"
            },
            {
              "internalType": "bytes",
              "name": "signature",
              "type": "bytes"
            }
          ],
          "internalType": "struct GPv2Trade.Data[]",
          "name": "trades",
          "type": "tuple[]"
        },
        {
          "components": [
            {
              "internalType": "address",
              "name": "target",
              "type": "address"
            },
            {
              "internalType": "uint256",
              "name": "value",
              "type": "uint256"
            },
            {
              "internalType": "bytes",
              "name": "callData",
              "type": "bytes"
            }
          ],
          "internalType": "struct GPv2Interaction.Data[][3]",
          "name": "interactions",
          "type": "tuple[][3]"
        }
      ],
      "name": "settle",
      "outputs": [],
      "stateMutability": "nonpayable",
      "type": "function"
    },
    {
      "inputs": [
        {
          "internalType": "address",
          "name": "targetContract",
          "type": "address"
        },
        {
          "internalType": "bytes",
          "name": "calldataPayload",
          "type": "bytes"
        }
      ],
      "name": "simulateDelegatecall",
      "outputs": [
        {
          "internalType": "bytes",
          "name": "response",
          "type": "bytes"
        }
      ],
      "stateMutability": "nonpayable",
      "type": "function"
    },
    {
      "inputs": [
        {
          "internalType": "address",
          "name": "targetContract",
          "type": "address"
        },
        {
          "internalType": "bytes",
          "name": "calldataPayload",
          "type": "bytes"
        }
      ],
      "name": "simulateDelegatecallInternal",
      "outputs": [
        {
          "internalType": "bytes",
          "name": "response",
          "type": "bytes"
        }
      ],
      "stateMutability": "nonpayable",
      "type": "function"
    },
    {
      "inputs": [
        {
          "components": [
            {
              "internalType": "bytes32",
              "name": "poolId",
              "type": "bytes32"
            },
            {
              "internalType": "uint256",
              "name": "assetInIndex",
              "type": "uint256"
            },
            {
              "internalType": "uint256",
              "name": "assetOutIndex",
              "type": "uint256"
            },
            {
              "internalType": "uint256",
              "name": "amount",
              "type": "uint256"
            },
            {
              "internalType": "bytes",
              "name": "userData",
              "type": "bytes"
            }
          ],
          "internalType": "struct IVault.BatchSwapStep[]",
          "name": "swaps",
          "type": "tuple[]"
        },
        {
          "internalType": "contract IERC20[]",
          "name": "tokens",
          "type": "address[]"
        },
        {
          "components": [
            {
              "internalType": "uint256",
              "name": "sellTokenIndex",
              "type": "uint256"
            },
            {
              "internalType": "uint256",
              "name": "buyTokenIndex",
              "type": "uint256"
            },
            {
              "internalType": "address",
              "name": "receiver",
              "type": "address"
            },
            {
              "internalType": "uint256",
              "name": "sellAmount",
              "type": "uint256"
            },
            {
              "internalType": "uint256",
              "name": "buyAmount",
              "type": "uint256"
            },
            {
              "internalType": "uint32",
              "name": "validTo",
              "type": "uint32"
            },
            {
              "internalType": "bytes32",
              "name": "appData",
              "type": "bytes32"
            },
            {
              "internalType": "uint256",
              "name": "feeAmount",
              "type": "uint256"
            },
            {
              "internalType": "uint256",
              "name": "flags",
              "type": "uint256"
            },
            {
              "internalType": "uint256",
              "name": "executedAmount",
              "type": "uint256"
            },
            {
              "internalType": "bytes",
              "name": "signature",
              "type": "bytes"
            }
          ],
          "internalType": "struct GPv2Trade.Data",
          "name": "trade",
          "type": "tuple"
        }
      ],
      "name": "swap",
      "outputs": [],
      "stateMutability": "nonpayable",
      "type": "function"
    },
    {
      "inputs": [],
      "name": "vault",
      "outputs": [
        {
          "internalType": "contract IVault",
          "name": "",
          "type": "address"
        }
      ],
      "stateMutability": "view",
      "type": "function"
    },
    {
      "inputs": [],
      "name": "vaultRelayer",
      "outputs": [
        {
          "internalType": "contract GPv2VaultRelayer",
          "name": "",
          "type": "address"
        }
      ],
      "stateMutability": "view",
      "type": "function"
    },
    {
      "stateMutability": "payable",
      "type": "receive"
    }
  ],
  "bytecode": "0x6101006040523480156200001257600080fd5b506040516200580a3803806200580a833981016040819052620000359162000161565b604080517f8b73c3c69bb8fe3d512ecc4cf759cc79239f7b179b0ffacaa9a75d522b39400f6020808301919091527f6c85c0337eba1661327f94f3bf46c8a7f9311a563f4d5c948362567f5d8ed60c828401527ff9446b8e937d86f0bc87cac73923491692b123ca5f8761908494703758206adf606080840191909152466080808501919091523060a08086019190915285518086038201815260c09586019687905280519401939093209052600180556001600160601b031986821b811690925284901b1690528290829081906200010e9062000153565b6200011a91906200019f565b604051809103906000f08015801562000137573d6000803e3d6000fd5b5060601b6001600160601b03191660e05250620001cc92505050565b61129e806200456c83390190565b6000806040838503121562000174578182fd5b82516200018181620001b3565b60208401519092506200019481620001b3565b809150509250929050565b6001600160a01b0391909116815260200190565b6001600160a01b0381168114620001c957600080fd5b50565b60805160a05160601c60c05160601c60e05160601c61433e6200022e6000398061067e5280610f70528061129f528061188452508061070f528061181f52508061054b52806108755280610bac5250806115b2528061266b525061433e6000f3fe60806040526004361061016e5760003560e01c8063845a101f116100cb578063d08d33d11161007f578063f698da2511610059578063f698da25146103d9578063f84436bd146103ee578063fbfa77cf1461040e57610175565b8063d08d33d114610379578063ec6cb13f14610399578063ed9f35ce146103b957610175565b80639c5cf459116100b05780639c5cf45914610324578063a2a7d51b14610344578063cd54ef511461036457610175565b8063845a101f146102ef5780639b552cc21461030f57610175565b806325cd84f31161012257806343218e191161010757806343218e19146102825780635624b25b146102af57806360655602146102cf57610175565b806325cd84f3146102345780634309838a1461026257610175565b806315337bc01161015357806315337bc0146101bc5780632335c76b146101dc5780632479fb6e1461020757610175565b80630b33f6dc1461017a57806313d79a0b1461019c57610175565b3661017557005b600080fd5b34801561018657600080fd5b5061019a61019536600461347a565b610423565b005b3480156101a857600080fd5b5061019a6101b7366004613550565b610497565b3480156101c857600080fd5b5061019a6101d7366004613763565b61077a565b3480156101e857600080fd5b506101f1610873565b6040516101fe9190613a93565b60405180910390f35b34801561021357600080fd5b50610227610222366004613836565b610897565b6040516101fe9190613bf4565b34801561024057600080fd5b5061025461024f3660046134ba565b6108b4565b6040516101fe929190613b49565b34801561026e57600080fd5b5061019a61027d36600461347a565b6108d4565b34801561028e57600080fd5b506102a261029d36600461342c565b6108e2565b6040516101fe9190613c11565b3480156102bb57600080fd5b506102a26102ca366004613869565b610a5a565b3480156102db57600080fd5b5061019a6102ea3660046137ec565b610ad0565b3480156102fb57600080fd5b5061019a61030a3660046136b0565b610af8565b34801561031b57600080fd5b506101f161129d565b34801561033057600080fd5b5061019a61033f36600461347a565b6112c1565b34801561035057600080fd5b5061019a61035f36600461347a565b6112ff565b34801561037057600080fd5b50610227611344565b34801561038557600080fd5b50610227610394366004613836565b61138f565b3480156103a557600080fd5b5061019a6103b4366004613797565b6113ac565b3480156103c557600080fd5b5061019a6103d436600461347a565b61156b565b3480156103e557600080fd5b506102276115b0565b3480156103fa57600080fd5b506102a261040936600461342c565b6115d4565b34801561041a57600080fd5b506101f161181d565b6040517fa2a7d51b000000000000000000000000000000000000000000000000000000008152309063a2a7d51b906104619085908590600401613ab4565b600060405180830381600087803b15801561047b57600080fd5b505af115801561048f573d6000803e3d6000fd5b505050505050565b6002600154141561050957604080517f08c379a000000000000000000000000000000000000000000000000000000000815260206004820152601f60248201527f5265656e7472616e637947756172643a207265656e7472616e742063616c6c00604482015290519081900360640190fd5b60026001556040517f02cc250d00000000000000000000000000000000000000000000000000000000815273ffffffffffffffffffffffffffffffffffffffff7f000000000000000000000000000000000000000000000000000000000000000016906302cc250d90610580903390600401613a93565b60206040518083038186803b15801561059857600080fd5b505afa1580156105ac573d6000803e3d6000fd5b505050506040513d601f19601f820116820180604052508101906105d09190613747565b61060f576040517f08c379a00000000000000000000000000000000000000000000000000000000081526004016106069061402e565b60405180910390fd5b61062b8160005b60200281019061062691906140cc565b611841565b60008061063c89898989898961197e565b6040517f7d10d11f000000000000000000000000000000000000000000000000000000008152919350915073ffffffffffffffffffffffffffffffffffffffff7f00000000000000000000000000000000000000000000000000000000000000001690637d10d11f906106b3908590600401613b36565b600060405180830381600087803b1580156106cd57600080fd5b505af11580156106e1573d6000803e3d6000fd5b505050506106f58360016003811061061657fe5b61073573ffffffffffffffffffffffffffffffffffffffff7f00000000000000000000000000000000000000000000000000000000000000001682611ae5565b610740836002610616565b60405133907f40338ce1a7c49204f0099533b1e9a7ee0a3d261f84974ab7af36105b8c4e9db490600090a250506001805550505050505050565b60006107868383611dc3565b5091505073ffffffffffffffffffffffffffffffffffffffff811633146107d9576040517f08c379a000000000000000000000000000000000000000000000000000000000815260040161060690613dd1565b7fffffffffffffffffffffffffffffffffffffffffffffffffffffffffffffffff6002848460405161080c929190613a67565b9081526020016040518091039020819055508073ffffffffffffffffffffffffffffffffffffffff167f875b6cb035bbd4ac6500fabc6d1e4ca5bdc58a3e2b424ccb5c24cdbebeb009a98484604051610866929190613bfd565b60405180910390a2505050565b7f000000000000000000000000000000000000000000000000000000000000000081565b805160208183018101805160028252928201919093012091525481565b6060806108c588888888888861197e565b90999098509650505050505050565b6108de8282611841565b5050565b606060008373ffffffffffffffffffffffffffffffffffffffff16836040518082805190602001908083835b6020831061094b57805182527fffffffffffffffffffffffffffffffffffffffffffffffffffffffffffffffe0909201916020918201910161090e565b6001836020036101000a038019825116818451168082178552505050505050905001915050600060405180830381855af49150503d80600081146109ab576040519150601f19603f3d011682016040523d82523d6000602084013e6109b0565b606091505b508093508192505050610a5382826040516020018083805190602001908083835b60208310610a0e57805182527fffffffffffffffffffffffffffffffffffffffffffffffffffffffffffffffe090920191602091820191016109d1565b6001836020036101000a03801982511681845116808217855250505050505090500182151560f81b815260010192505050604051602081830303815290604052611e51565b5092915050565b606060008260200267ffffffffffffffff81118015610a7857600080fd5b506040519080825280601f01601f191660200182016040528015610aa3576020820181803683370190505b50905060005b83811015610ac65784810154602080830284010152600101610aa9565b5090505b92915050565b8060028484604051610ae3929190613a67565b90815260405190819003602001902055505050565b60026001541415610b6a57604080517f08c379a000000000000000000000000000000000000000000000000000000000815260206004820152601f60248201527f5265656e7472616e637947756172643a207265656e7472616e742063616c6c00604482015290519081900360640190fd5b60026001556040517f02cc250d00000000000000000000000000000000000000000000000000000000815273ffffffffffffffffffffffffffffffffffffffff7f000000000000000000000000000000000000000000000000000000000000000016906302cc250d90610be1903390600401613a93565b60206040518083038186803b158015610bf957600080fd5b505afa158015610c0d573d6000803e3d6000fd5b505050506040513d601f19601f82011682018060405250810190610c319190613747565b610c67576040517f08c379a00000000000000000000000000000000000000000000000000000000081526004016106069061402e565b6000610c71611e59565b8051909150610c8282868686611e86565b60007ff3b277728b3fee749481eb3e0b3b48980dbbab78658fc419025cb16eee34677582610100015114610cb7576001610cba565b60005b9050610cc461321c565b60408085015173ffffffffffffffffffffffffffffffffffffffff90811683526101408501517f4ac99ace14ee0a5ef932dc609df0943ab7ac16b7583634612f8dc35a4289a6ce9081146020850152606080880151909216928401929092526101608501519091149082015260008667ffffffffffffffff81118015610d4957600080fd5b50604051908082528060200260200182016040528015610d73578160200160208202803683370190505b50610100850151909150610120870135907ff3b277728b3fee749481eb3e0b3b48980dbbab78658fc419025cb16eee3467751415610e3f578460800151811015610de9576040517f08c379a000000000000000000000000000000000000000000000000000000000815260040161060690613ff7565b610df68560600151611f24565b82886000013581518110610e0657fe5b602002602001018181525050610e1b81611f24565b60000382886020013581518110610e2e57fe5b602002602001018181525050610ecf565b8460600151811115610e7d576040517f08c379a000000000000000000000000000000000000000000000000000000000815260040161060690613f52565b610e8681611f24565b82886000013581518110610e9657fe5b602002602001018181525050610eaf8560800151611f24565b60000382886020013581518110610ec257fe5b6020026020010181815250505b610ed761321c565b8660400151816000019073ffffffffffffffffffffffffffffffffffffffff16908173ffffffffffffffffffffffffffffffffffffffff16815250508560000151816020019073ffffffffffffffffffffffffffffffffffffffff16908173ffffffffffffffffffffffffffffffffffffffff16815250508560e0015181604001818152505085610140015181606001818152505060007f000000000000000000000000000000000000000000000000000000000000000073ffffffffffffffffffffffffffffffffffffffff16634817a286878f8f8f8f8b8b8f60a001518b6040518a63ffffffff1660e01b8152600401610fdb99989796959493929190613c7b565b600060405180830381600087803b158015610ff557600080fd5b505af1158015611009573d6000803e3d6000fd5b505050506040513d6000823e601f3d9081017fffffffffffffffffffffffffffffffffffffffffffffffffffffffffffffffe016820160405261104f919081019061360f565b9050600088602001519050600061107c838c600001358151811061106f57fe5b6020026020010151611fb9565b905060006110a3848d602001358151811061109357fe5b6020026020010151600003611fb9565b90506002836040516110b59190613a77565b9081526020016040518091039020546000146110fd576040517f08c379a000000000000000000000000000000000000000000000000000000000815260040161060690613f89565b7ff3b277728b3fee749481eb3e0b3b48980dbbab78658fc419025cb16eee3467758a610100015114156111915789606001518214611167576040517f08c379a000000000000000000000000000000000000000000000000000000000815260040161060690613e76565b896060015160028460405161117c9190613a77565b908152604051908190036020019020556111f4565b896080015181146111ce576040517f08c379a000000000000000000000000000000000000000000000000000000000815260040161060690613ead565b89608001516002846040516111e39190613a77565b908152604051908190036020019020555b8a6040015173ffffffffffffffffffffffffffffffffffffffff167fa07a543ab8a018198e99ca0184c93fe9050a79400a0a723441f84de1d972cc178b600001518c6020015185858f60e001518960405161125496959493929190613c24565b60405180910390a260405133907f40338ce1a7c49204f0099533b1e9a7ee0a3d261f84974ab7af36105b8c4e9db490600090a25050600180555050505050505050505050505050565b7f000000000000000000000000000000000000000000000000000000000000000081565b6040517fed9f35ce000000000000000000000000000000000000000000000000000000008152309063ed9f35ce906104619085908590600401613ab4565b303314611338576040517f08c379a000000000000000000000000000000000000000000000000000000000815260040161060690613f1b565b6108de6000838361202a565b600061134e613243565b61135661321c565b61135e61321c565b604051835163ffffffff421660a090910152935061138283600180600086866120da565b8360405103935050505090565b805160208183018101805160008252928201919093012091525481565b60006113b88484611dc3565b5091505073ffffffffffffffffffffffffffffffffffffffff8116331461144057604080517f08c379a000000000000000000000000000000000000000000000000000000000815260206004820152601a60248201527f475076323a2063616e6e6f74207072657369676e206f72646572000000000000604482015290519081900360640190fd5b811561149a577ff59c009283ff87aa78203fc4d9c2df025ee851130fb69cc3e068941f6b5e2d6f60001c600085856040518083838082843780830192505050925050509081526020016040518091039020819055506114c6565b600080858560405180838380828437919091019485525050604051928390036020019092209290925550505b8073ffffffffffffffffffffffffffffffffffffffff167f01bf7c8b0ca55deecbea89d7e58295b7ffbf685fd0d96801034ba8c6ffe1c68d858585604051808060200183151581526020018281038252858582818152602001925080828437600083820152604051601f9091017fffffffffffffffffffffffffffffffffffffffffffffffffffffffffffffffe016909201829003965090945050505050a250505050565b3033146115a4576040517f08c379a000000000000000000000000000000000000000000000000000000000815260040161060690613f1b565b6108de6002838361202a565b7f000000000000000000000000000000000000000000000000000000000000000081565b606060006343218e1960e01b8484604051602401808373ffffffffffffffffffffffffffffffffffffffff16815260200180602001828103825283818151815260200191508051906020019080838360005b8381101561163e578181015183820152602001611626565b50505050905090810190601f16801561166b5780820380516001836020036101000a031916815260200191505b50604080517fffffffffffffffffffffffffffffffffffffffffffffffffffffffffffffffe08184030181529181526020820180517bffffffffffffffffffffffffffffffffffffffffffffffffffffffff167fffffffff00000000000000000000000000000000000000000000000000000000909816979097178752518151919750309688965090945084935091508083835b6020831061173c57805182527fffffffffffffffffffffffffffffffffffffffffffffffffffffffffffffffe090920191602091820191016116ff565b6001836020036101000a0380198251168184511680821785525050505050509050019150506000604051808303816000865af19150503d806000811461179e576040519150601f19603f3d011682016040523d82523d6000602084013e6117a3565b606091505b509050809250506000826001845103815181106117bc57fe5b602001015160f81c60f81b7effffffffffffffffffffffffffffffffffffffffffffffffffffffffffffff1916600160f81b1490506117ff836001855103612425565b801561180c575050610aca565b61181583611e51565b505092915050565b7f000000000000000000000000000000000000000000000000000000000000000081565b60005b81811015611979573683838381811061185957fe5b905060200281019061186b9190614194565b905073ffffffffffffffffffffffffffffffffffffffff7f0000000000000000000000000000000000000000000000000000000000000000166118b16020830183613410565b73ffffffffffffffffffffffffffffffffffffffff1614156118ff576040517f08c379a000000000000000000000000000000000000000000000000000000000815260040161060690614065565b61190881612429565b6119156020820182613410565b73ffffffffffffffffffffffffffffffffffffffff167fed99827efb37016f2275f98c4bcf71c7551c75d59e9b450f79fa32e60be672c2826020013561195a84612478565b60405161196892919061409c565b60405180910390a250600101611844565b505050565b606080600061198b611e59565b90508367ffffffffffffffff811180156119a457600080fd5b506040519080825280602002602001820160405280156119de57816020015b6119cb61321c565b8152602001906001900390816119c35790505b5092508367ffffffffffffffff811180156119f857600080fd5b50604051908082528060200260200182016040528015611a3257816020015b611a1f61321c565b815260200190600190039081611a175790505b50915060005b84811015611ad85736868683818110611a4d57fe5b9050602002810190611a5f91906141c7565b9050611a6d838c8c84611e86565b611acf838a8a8435818110611a7e57fe5b905060200201358b8b8560200135818110611a9557fe5b90506020020135846101200135898781518110611aae57fe5b6020026020010151898881518110611ac257fe5b60200260200101516120da565b50600101611a38565b5050965096945050505050565b6000815167ffffffffffffffff81118015611aff57600080fd5b50604051908082528060200260200182016040528015611b3957816020015b611b26613270565b815260200190600190039081611b1e5790505b5090506000805b8351811015611d27576000848281518110611b5757fe5b6020026020010151905073eeeeeeeeeeeeeeeeeeeeeeeeeeeeeeeeeeeeeeee73ffffffffffffffffffffffffffffffffffffffff16816020015173ffffffffffffffffffffffffffffffffffffffff161415611c5b577f4ac99ace14ee0a5ef932dc609df0943ab7ac16b7583634612f8dc35a4289a6ce81606001511415611c0b576040517f08c379a000000000000000000000000000000000000000000000000000000000815260040161060690613ee4565b8051604080830151905173ffffffffffffffffffffffffffffffffffffffff9092169181156108fc0291906000818181858888f19350505050158015611c55573d6000803e3d6000fd5b50611d1e565b7f5a28e9363bb942b639270062aa6bb295f434bcdfc42c97267bf003f272060dc981606001511415611cba57805160408201516020830151611cb59273ffffffffffffffffffffffffffffffffffffffff909116916124a2565b611d1e565b6000848480600101955081518110611cce57fe5b602090810291909101810151600081528382015173ffffffffffffffffffffffffffffffffffffffff90811692820192909252604080850151908201523060608201528351909116608090910152505b50600101611b40565b508015611dbd57611d388282612425565b6040517f0e8e3e8400000000000000000000000000000000000000000000000000000000815273ffffffffffffffffffffffffffffffffffffffff851690630e8e3e8490611d8a908590600401613b6e565b600060405180830381600087803b158015611da457600080fd5b505af1158015611db8573d6000803e3d6000fd5b505050505b50505050565b6000808060388414611e3657604080517f08c379a000000000000000000000000000000000000000000000000000000000815260206004820152601160248201527f475076323a20696e76616c696420756964000000000000000000000000000000604482015290519081900360640190fd5b5050823593602084013560601c936034013560e01c92509050565b805160208201fd5b611e61613243565b6040805160388082526060820190925290602082018180368337505050602082015290565b83516000611e968386868561257a565b9050600080611eb38484611eae610140890189614131565b612662565b91509150611ed682828660a001518b60200151612711909392919063ffffffff16565b73ffffffffffffffffffffffffffffffffffffffff81166040890152611efc8482612793565b73ffffffffffffffffffffffffffffffffffffffff1660609098019790975250505050505050565b60007f7fffffffffffffffffffffffffffffffffffffffffffffffffffffffffffffff821115611fb557604080517f08c379a000000000000000000000000000000000000000000000000000000000815260206004820152601960248201527f53616665436173743a20696e74323536206f766572666c6f7700000000000000604482015290519081900360640190fd5b5090565b600080821215611fb557604080517f08c379a000000000000000000000000000000000000000000000000000000000815260206004820152601660248201527f53616665436173743a206e6f7420706f73697469766500000000000000000000604482015290519081900360640190fd5b60005b81811015611dbd5736600084848481811061204457fe5b90506020028101906120569190614131565b9150915060006120668383611dc3565b92505050428163ffffffff16106120a9576040517f08c379a000000000000000000000000000000000000000000000000000000000815260040161060690613fc0565b60008784846040516120bc929190613a67565b9081526040519081900360200190205550506001909101905061202d565b8551602087015160a08201514263ffffffff9091161015612127576040517f08c379a000000000000000000000000000000000000000000000000000000000815260040161060690613e08565b608082015161213690876127c5565b606083015161214590896127c5565b101561217d576040517f08c379a000000000000000000000000000000000000000000000000000000000815260040161060690613e3f565b6000806000807ff3b277728b3fee749481eb3e0b3b48980dbbab78658fc419025cb16eee346775866101000151141561227e57856101200151156121ea578893506121e386606001516121dd868960e001516127c590919063ffffffff16565b90612855565b91506121f9565b856060015193508560e0015191505b61220d8a612207868e6127c5565b906128d6565b9250612239846002876040516122239190613a77565b9081526040519081900360200190205490612974565b90508560600151811115612279576040517f08c379a000000000000000000000000000000000000000000000000000000000815260040161060690613f89565b612325565b856101200151156122b2578892506122ab86608001516121dd858960e001516127c590919063ffffffff16565b91506122c1565b856080015192508560e0015191505b6122cf8b6121dd858d6127c5565b93506122e5836002876040516122239190613a77565b90508560800151811115612325576040517f08c379a000000000000000000000000000000000000000000000000000000000815260040161060690613f89565b61232f8483612974565b9350806002866040516123429190613a77565b9081526020016040518091039020819055508b6040015173ffffffffffffffffffffffffffffffffffffffff167fa07a543ab8a018198e99ca0184c93fe9050a79400a0a723441f84de1d972cc17876000015188602001518787878b6040516123b096959493929190613c24565b60405180910390a250506040808b015173ffffffffffffffffffffffffffffffffffffffff9081168852855181166020808a0191909152888301949094526101408601516060988901529a8701518b16865282850151909a169185019190915297830197909752610160015191015250505050565b9052565b73ffffffffffffffffffffffffffffffffffffffff81351660208201353660006124566040860186614131565b9150915060405181838237600080838387895af161048f573d6000803e3d6000fd5b600036816124896040850185614131565b90925090506004811061249b57813592505b5050919050565b6040517fa9059cbb0000000000000000000000000000000000000000000000000000000080825273ffffffffffffffffffffffffffffffffffffffff84166004830152602482018390529060008060448382895af1612505573d6000803e3d6000fd5b5061250f846129e8565b611dbd57604080517f08c379a000000000000000000000000000000000000000000000000000000000815260206004820152601560248201527f475076323a206661696c6564207472616e736665720000000000000000000000604482015290519081900360640190fd5b60008383863581811061258957fe5b6020908102929092013573ffffffffffffffffffffffffffffffffffffffff16845250849084908701358181106125bc57fe5b73ffffffffffffffffffffffffffffffffffffffff602091820293909301358316908501525060408087013590911690830152606080860135908301526080808601359083015263ffffffff60a080870135919091169083015260c0808601359083015260e08086013590830152612638610100860135612ab2565b61016087019190915261014086019190915290151561012085015261010090930152509392505050565b60008061268f867f0000000000000000000000000000000000000000000000000000000000000000612c07565b9150600085600381111561269f57fe5b14156126b7576126b0828585612c91565b9050612708565b60018560038111156126c557fe5b14156126d6576126b0828585612ca6565b60028560038111156126e457fe5b14156126f5576126b0828585612d0e565b6127058285858960a00151612eac565b90505b94509492505050565b603884511461278157604080517f08c379a000000000000000000000000000000000000000000000000000000000815260206004820152601960248201527f475076323a2075696420627566666572206f766572666c6f7700000000000000604482015290519081900360640190fd5b60388401526034830152602090910152565b604082015160009073ffffffffffffffffffffffffffffffffffffffff166127bc575080610aca565b50506040015190565b6000826127d457506000610aca565b828202828482816127e157fe5b041461284e57604080517f08c379a000000000000000000000000000000000000000000000000000000000815260206004820152601660248201527f536166654d6174683a206d756c206f766572666c6f7700000000000000000000604482015290519081900360640190fd5b9392505050565b60008082116128c557604080517f08c379a000000000000000000000000000000000000000000000000000000000815260206004820152601760248201527f536166654d6174683a206469766973696f6e2062792030000000000000000000604482015290519081900360640190fd5b8183816128ce57fe5b049392505050565b600080821161294657604080517f08c379a000000000000000000000000000000000000000000000000000000000815260206004820152601f60248201527f536166654d6174683a206365696c696e67206469766973696f6e206279203000604482015290519081900360640190fd5b81838161294f57fe5b061561295c57600161295f565b60005b60ff1682848161296b57fe5b04019392505050565b60008282018381101561284e57604080517f08c379a000000000000000000000000000000000000000000000000000000000815260206004820152601b60248201527f536166654d6174683a206164646974696f6e206f766572666c6f770000000000604482015290519081900360640190fd5b6000612a26565b7f08c379a0000000000000000000000000000000000000000000000000000000006000526020600452806024528160445260646000fd5b3d8015612a655760208114612a9f57612a607f475076323a206d616c666f726d6564207472616e7366657220726573756c7400601f6129ef565b612aac565b823b612a9657612a967f475076323a206e6f74206120636f6e747261637400000000000000000000000060146129ef565b60019150612aac565b3d6000803e600051151591505b50919050565b60008080808060018616612ae8577ff3b277728b3fee749481eb3e0b3b48980dbbab78658fc419025cb16eee3467759450612b0c565b7f6ed88e868af0a1983e3886d5f3e95a2fafbd6c3450bc229e27342283dc429ccc94505b600286161515935060088616612b44577f5a28e9363bb942b639270062aa6bb295f434bcdfc42c97267bf003f272060dc99250612b98565b60048616612b74577fabee3b73373acd583a130924aad6dc38cfdc44ba0555ba94ce2ff63980ea06329250612b98565b7f4ac99ace14ee0a5ef932dc609df0943ab7ac16b7583634612f8dc35a4289a6ce92505b60108616612bc8577f5a28e9363bb942b639270062aa6bb295f434bcdfc42c97267bf003f272060dc99150612bec565b7f4ac99ace14ee0a5ef932dc609df0943ab7ac16b7583634612f8dc35a4289a6ce91505b600586901c6003811115612bfc57fe5b905091939590929450565b7fffffffffffffffffffffffffffffffffffffffffffffffffffffffffffffffe090910180517fd5a25ba2e97094ad7d83dc28a6572da797d6b3e7fc6663bd93efb789fc17e48982526101a0822091526040517f19010000000000000000000000000000000000000000000000000000000000008152600281019290925260228201526042902090565b6000612c9e848484613071565b949350505050565b6000808460405160200180807f19457468657265756d205369676e6564204d6573736167653a0a333200000000815250601c01828152602001915050604051602081830303815290604052805190602001209050612d05818585613071565b95945050505050565b813560601c366000612d238460148188614281565b604080517f1626ba7e00000000000000000000000000000000000000000000000000000000808252600482018b81526024830193845260448301859052949650929450919273ffffffffffffffffffffffffffffffffffffffff871692631626ba7e928b928892889290606401848480828437600083820152604051601f9091017fffffffffffffffffffffffffffffffffffffffffffffffffffffffffffffffe016909201965060209550909350505081840390508186803b158015612de957600080fd5b505afa158015612dfd573d6000803e3d6000fd5b505050506040513d6020811015612e1357600080fd5b50517fffffffff000000000000000000000000000000000000000000000000000000001614612ea357604080517f08c379a000000000000000000000000000000000000000000000000000000000815260206004820152601f60248201527f475076323a20696e76616c69642065697031323731207369676e617475726500604482015290519081900360640190fd5b50509392505050565b600060148314612f1d57604080517f08c379a000000000000000000000000000000000000000000000000000000000815260206004820152601c60248201527f475076323a206d616c666f726d6564207072657369676e617475726500000000604482015290519081900360640190fd5b506040805160388082526060828101909352853590921c9160009190602082018180368337019050509050612f5481878486612711565b7ff59c009283ff87aa78203fc4d9c2df025ee851130fb69cc3e068941f6b5e2d6f60001c6000826040518082805190602001908083835b60208310612fc857805182527fffffffffffffffffffffffffffffffffffffffffffffffffffffffffffffffe09092019160209182019101612f8b565b6001836020036101000a0380198251168184511680821785525050505050509050019150509081526020016040518091039020541461306857604080517f08c379a000000000000000000000000000000000000000000000000000000000815260206004820152601960248201527f475076323a206f72646572206e6f74207072657369676e656400000000000000604482015290519081900360640190fd5b50949350505050565b6000604182146130e257604080517f08c379a000000000000000000000000000000000000000000000000000000000815260206004820152601f60248201527f475076323a206d616c666f726d6564206563647361207369676e617475726500604482015290519081900360640190fd5b604080516000815260208181018084528790528286013560f81c82840181905286356060840181905282880135608085018190529451909493919260019260a0808201937fffffffffffffffffffffffffffffffffffffffffffffffffffffffffffffffe081019281900390910190855afa158015613165573d6000803e3d6000fd5b50506040517fffffffffffffffffffffffffffffffffffffffffffffffffffffffffffffffe0015194505073ffffffffffffffffffffffffffffffffffffffff841661321257604080517f08c379a000000000000000000000000000000000000000000000000000000000815260206004820152601d60248201527f475076323a20696e76616c6964206563647361207369676e6174757265000000604482015290519081900360640190fd5b5050509392505050565b60408051608081018252600080825260208201819052918101829052606081019190915290565b60405180608001604052806132566132a0565b815260606020820181905260006040830181905291015290565b6040805160a081019091528060008152600060208201819052604082018190526060820181905260809091015290565b6040805161018081018252600080825260208201819052918101829052606081018290526080810182905260a0810182905260c0810182905260e0810182905261010081018290526101208101829052610140810182905261016081019190915290565b60008083601f840112613315578182fd5b50813567ffffffffffffffff81111561332c578182fd5b602083019150836020808302850101111561334657600080fd5b9250929050565b60008083601f84011261335e578182fd5b50813567ffffffffffffffff811115613375578182fd5b60208301915083602082850101111561334657600080fd5b600082601f83011261339d578081fd5b813567ffffffffffffffff8111156133b157fe5b6133e260207fffffffffffffffffffffffffffffffffffffffffffffffffffffffffffffffe0601f840116016141fa565b8181528460208386010111156133f6578283fd5b816020850160208301379081016020019190915292915050565b600060208284031215613421578081fd5b813561284e816142d5565b6000806040838503121561343e578081fd5b8235613449816142d5565b9150602083013567ffffffffffffffff811115613464578182fd5b6134708582860161338d565b9150509250929050565b6000806020838503121561348c578182fd5b823567ffffffffffffffff8111156134a2578283fd5b6134ae85828601613304565b90969095509350505050565b600080600080600080606087890312156134d2578182fd5b863567ffffffffffffffff808211156134e9578384fd5b6134f58a838b01613304565b9098509650602089013591508082111561350d578384fd5b6135198a838b01613304565b90965094506040890135915080821115613531578384fd5b5061353e89828a01613304565b979a9699509497509295939492505050565b60008060008060008060006080888a03121561356a578081fd5b873567ffffffffffffffff80821115613581578283fd5b61358d8b838c01613304565b909950975060208a01359150808211156135a5578283fd5b6135b18b838c01613304565b909750955060408a01359150808211156135c9578283fd5b6135d58b838c01613304565b909550935060608a01359150808211156135ed578283fd5b508801606081018a10156135ff578182fd5b8091505092959891949750929550565b60006020808385031215613621578182fd5b825167ffffffffffffffff80821115613638578384fd5b818501915085601f83011261364b578384fd5b81518181111561365757fe5b83810291506136678483016141fa565b8181528481019084860184860187018a1015613681578788fd5b8795505b838610156136a3578051835260019590950194918601918601613685565b5098975050505050505050565b6000806000806000606086880312156136c7578283fd5b853567ffffffffffffffff808211156136de578485fd5b6136ea89838a01613304565b90975095506020880135915080821115613702578485fd5b61370e89838a01613304565b90955093506040880135915080821115613726578283fd5b5086016101608189031215613739578182fd5b809150509295509295909350565b600060208284031215613758578081fd5b815161284e816142fa565b60008060208385031215613775578182fd5b823567ffffffffffffffff81111561378b578283fd5b6134ae8582860161334d565b6000806000604084860312156137ab578081fd5b833567ffffffffffffffff8111156137c1578182fd5b6137cd8682870161334d565b90945092505060208401356137e1816142fa565b809150509250925092565b600080600060408486031215613800578081fd5b833567ffffffffffffffff811115613816578182fd5b6138228682870161334d565b909790965060209590950135949350505050565b600060208284031215613847578081fd5b813567ffffffffffffffff81111561385d578182fd5b612c9e8482850161338d565b6000806040838503121561387b578182fd5b50508035926020909101359150565b60008284526020808501945082825b858110156138d45781356138ac816142d5565b73ffffffffffffffffffffffffffffffffffffffff1687529582019590820190600101613899565b509495945050505050565b6000815180845260208085019450808401835b838110156138d4578151875295820195908201906001016138f2565b6000815180845260208085019450808401835b838110156138d4576139348783516139d9565b6080969096019590820190600101613921565b600082845282826020860137806020848601015260207fffffffffffffffffffffffffffffffffffffffffffffffffffffffffffffffe0601f85011685010190509392505050565b600081518084526139a78160208601602086016142a9565b601f017fffffffffffffffffffffffffffffffffffffffffffffffffffffffffffffffe0169290920160200192915050565b73ffffffffffffffffffffffffffffffffffffffff8082511683528060208301511660208401525060408101516040830152606081015160608301525050565b73ffffffffffffffffffffffffffffffffffffffff808251168352602082015115156020840152806040830151166040840152506060810151151560608301525050565b63ffffffff169052565b6000828483379101908152919050565b60008251613a898184602087016142a9565b9190910192915050565b73ffffffffffffffffffffffffffffffffffffffff91909116815260200190565b602080825281810183905260009060408482028401810190840186845b87811015613b29577fffffffffffffffffffffffffffffffffffffffffffffffffffffffffffffffc0878503018352613b0a828a61421e565b613b15868284613947565b955050509184019190840190600101613ad1565b5091979650505050505050565b60006020825261284e602083018461390e565b600060408252613b5c604083018561390e565b8281036020840152612d05818561390e565b602080825282518282018190526000919060409081850190868401855b82811015613b29578151805160048110613ba157fe5b85528087015173ffffffffffffffffffffffffffffffffffffffff908116888701528682015187870152606080830151821690870152608091820151169085015260a09093019290850190600101613b8b565b90815260200190565b600060208252612c9e602083018486613947565b60006020825261284e602083018461398f565b600073ffffffffffffffffffffffffffffffffffffffff808916835280881660208401525085604083015284606083015283608083015260c060a0830152613c6f60c083018461398f565b98975050505050505050565b60006101a0820160028c10613c8c57fe5b8b835260206101a081850152818b83526101c0850190506101c0828d0286010192508c845b8d811015613d6c577ffffffffffffffffffffffffffffffffffffffffffffffffffffffffffffffe408786030183527fffffffffffffffffffffffffffffffffffffffffffffffffffffffffffffff618f360301823512613d10578586fd5b8e8235018035865284810135858701526040810135604087015260608101356060870152613d41608082018261421e565b915060a06080880152613d5860a088018383613947565b965050509183019190830190600101613cb1565b505050508281036040840152613d8381898b61388a565b9050613d926060840188613a19565b82810360e0840152613da481876138df565b915050613db5610100830185613a5d565b613dc36101208301846139d9565b9a9950505050505050505050565b6020808252601f908201527f475076323a2063616c6c657220646f6573206e6f74206f776e206f7264657200604082015260600190565b60208082526013908201527f475076323a206f72646572206578706972656400000000000000000000000000604082015260600190565b6020808252601f908201527f475076323a206c696d6974207072696365206e6f742072657370656374656400604082015260600190565b6020808252601f908201527f475076323a2073656c6c20616d6f756e74206e6f742072657370656374656400604082015260600190565b6020808252601e908201527f475076323a2062757920616d6f756e74206e6f74207265737065637465640000604082015260600190565b6020808252601e908201527f475076323a20756e737570706f7274656420696e7465726e616c204554480000604082015260600190565b60208082526018908201527f475076323a206e6f7420616e20696e746572616374696f6e0000000000000000604082015260600190565b60208082526014908201527f475076323a206c696d697420746f6f2068696768000000000000000000000000604082015260600190565b60208082526012908201527f475076323a206f726465722066696c6c65640000000000000000000000000000604082015260600190565b60208082526017908201527f475076323a206f72646572207374696c6c2076616c6964000000000000000000604082015260600190565b60208082526013908201527f475076323a206c696d697420746f6f206c6f7700000000000000000000000000604082015260600190565b60208082526012908201527f475076323a206e6f74206120736f6c7665720000000000000000000000000000604082015260600190565b6020808252601b908201527f475076323a20666f7262696464656e20696e746572616374696f6e0000000000604082015260600190565b9182527fffffffff0000000000000000000000000000000000000000000000000000000016602082015260400190565b60008083357fffffffffffffffffffffffffffffffffffffffffffffffffffffffffffffffe1843603018112614100578283fd5b83018035915067ffffffffffffffff82111561411a578283fd5b602090810192508102360382131561334657600080fd5b60008083357fffffffffffffffffffffffffffffffffffffffffffffffffffffffffffffffe1843603018112614165578283fd5b83018035915067ffffffffffffffff82111561417f578283fd5b60200191503681900382131561334657600080fd5b600082357fffffffffffffffffffffffffffffffffffffffffffffffffffffffffffffffa1833603018112613a89578182fd5b600082357ffffffffffffffffffffffffffffffffffffffffffffffffffffffffffffffea1833603018112613a89578182fd5b60405181810167ffffffffffffffff8111828210171561421657fe5b604052919050565b60008083357fffffffffffffffffffffffffffffffffffffffffffffffffffffffffffffffe1843603018112614252578283fd5b830160208101925035905067ffffffffffffffff81111561427257600080fd5b80360383131561334657600080fd5b60008085851115614290578182fd5b8386111561429c578182fd5b5050820193919092039150565b60005b838110156142c45781810151838201526020016142ac565b83811115611dbd5750506000910152565b73ffffffffffffffffffffffffffffffffffffffff811681146142f757600080fd5b50565b80151581146142f757600080fdfea264697066735822122086839f7ce0ba2458125672470255fba242ccf49516146cf7e13a34c717f37cf664736f6c6343000706003360c060405234801561001057600080fd5b5060405161129e38038061129e83398101604081905261002f9161004b565b33606090811b6080521b6001600160601b03191660a052610079565b60006020828403121561005c578081fd5b81516001600160a01b0381168114610072578182fd5b9392505050565b60805160601c60a05160601c6111ee6100b060003980610130528061020152806102bd5250806093528061024c52506111ee6000f3fe608060405234801561001057600080fd5b50600436106100365760003560e01c80634817a2861461003b5780637d10d11f14610064575b600080fd5b61004e610049366004610cd9565b610079565b60405161005b9190610eb3565b60405180910390f35b610077610072366004610c69565b610234565b005b60603373ffffffffffffffffffffffffffffffffffffffff7f000000000000000000000000000000000000000000000000000000000000000016146100f3576040517f08c379a00000000000000000000000000000000000000000000000000000000081526004016100ea906110e5565b60405180910390fd5b6040517f945bcec900000000000000000000000000000000000000000000000000000000815273ffffffffffffffffffffffffffffffffffffffff7f0000000000000000000000000000000000000000000000000000000000000000169063945bcec990610171908c908c908c908c908c908c908c90600401610f59565b600060405180830381600087803b15801561018b57600080fd5b505af115801561019f573d6000803e3d6000fd5b505050506040513d6000823e601f3d9081017fffffffffffffffffffffffffffffffffffffffffffffffffffffffffffffffe01682016040526101e59190810190610bd9565b905061022873ffffffffffffffffffffffffffffffffffffffff7f00000000000000000000000000000000000000000000000000000000000000001683336102e9565b98975050505050505050565b3373ffffffffffffffffffffffffffffffffffffffff7f000000000000000000000000000000000000000000000000000000000000000016146102a3576040517f08c379a00000000000000000000000000000000000000000000000000000000081526004016100ea906110e5565b6102e573ffffffffffffffffffffffffffffffffffffffff7f000000000000000000000000000000000000000000000000000000000000000016838333610551565b5050565b73eeeeeeeeeeeeeeeeeeeeeeeeeeeeeeeeeeeeeeee61030e6040840160208501610bb6565b73ffffffffffffffffffffffffffffffffffffffff16141561035c576040517f08c379a00000000000000000000000000000000000000000000000000000000081526004016100ea9061111c565b7f5a28e9363bb942b639270062aa6bb295f434bcdfc42c97267bf003f272060dc9826060013514156103d0576103cb6103986020840184610bb6565b82604085018035906103ad9060208801610bb6565b73ffffffffffffffffffffffffffffffffffffffff16929190610816565b61054c565b604080516001808252818301909252600091816020015b6103ef6109cb565b8152602001906001900390816103e757905050905060008160008151811061041357fe5b602002602001015190507fabee3b73373acd583a130924aad6dc38cfdc44ba0555ba94ce2ff63980ea063284606001351461044f576002610452565b60035b8190600381111561045f57fe5b9081600381111561046c57fe5b90525061047f6040850160208601610bb6565b73ffffffffffffffffffffffffffffffffffffffff16602080830191909152604080860135908301526104b490850185610bb6565b73ffffffffffffffffffffffffffffffffffffffff908116606083015283811660808301526040517f0e8e3e8400000000000000000000000000000000000000000000000000000000815290861690630e8e3e8490610517908590600401610ec6565b600060405180830381600087803b15801561053157600080fd5b505af1158015610545573d6000803e3d6000fd5b5050505050505b505050565b60008267ffffffffffffffff8111801561056a57600080fd5b506040519080825280602002602001820160405280156105a457816020015b6105916109cb565b8152602001906001900390816105895790505b5090506000805b8481101561077857368686838181106105c057fe5b60800291909101915073eeeeeeeeeeeeeeeeeeeeeeeeeeeeeeeeeeeeeeee90506105f06040830160208401610bb6565b73ffffffffffffffffffffffffffffffffffffffff16141561063e576040517f08c379a00000000000000000000000000000000000000000000000000000000081526004016100ea9061111c565b7f5a28e9363bb942b639270062aa6bb295f434bcdfc42c97267bf003f272060dc9816060013514156106945761068f61067a6020830183610bb6565b86604084018035906103ad9060208701610bb6565b61076f565b60008484806001019550815181106106a857fe5b602002602001015190507fabee3b73373acd583a130924aad6dc38cfdc44ba0555ba94ce2ff63980ea06328260600135146106e45760016106e7565b60035b819060038111156106f457fe5b9081600381111561070157fe5b9052506107146040830160208401610bb6565b73ffffffffffffffffffffffffffffffffffffffff166020808301919091526040808401359083015261074990830183610bb6565b73ffffffffffffffffffffffffffffffffffffffff908116606083015286166080909101525b506001016105ab565b50801561080e5761078982826108fd565b6040517f0e8e3e8400000000000000000000000000000000000000000000000000000000815273ffffffffffffffffffffffffffffffffffffffff871690630e8e3e84906107db908590600401610ec6565b600060405180830381600087803b1580156107f557600080fd5b505af1158015610809573d6000803e3d6000fd5b505050505b505050505050565b6040517f23b872dd0000000000000000000000000000000000000000000000000000000080825273ffffffffffffffffffffffffffffffffffffffff8581166004840152841660248301526044820183905290600080606483828a5af1610881573d6000803e3d6000fd5b5061088b85610901565b6108f657604080517f08c379a000000000000000000000000000000000000000000000000000000000815260206004820152601960248201527f475076323a206661696c6564207472616e7366657246726f6d00000000000000604482015290519081900360640190fd5b5050505050565b9052565b600061093f565b7f08c379a0000000000000000000000000000000000000000000000000000000006000526020600452806024528160445260646000fd5b3d801561097e57602081146109b8576109797f475076323a206d616c666f726d6564207472616e7366657220726573756c7400601f610908565b6109c5565b823b6109af576109af7f475076323a206e6f74206120636f6e74726163740000000000000000000000006014610908565b600191506109c5565b3d6000803e600051151591505b50919050565b6040805160a081019091528060008152600060208201819052604082018190526060820181905260809091015290565b600082601f830112610a0b578081fd5b81356020610a20610a1b83611175565b611151565b8281528181019085830183850287018401881015610a3c578586fd5b855b85811015610a63578135610a5181611193565b84529284019290840190600101610a3e565b5090979650505050505050565b600082601f830112610a80578081fd5b81356020610a90610a1b83611175565b8281528181019085830183850287018401881015610aac578586fd5b855b85811015610a6357813584529284019290840190600101610aae565b60008083601f840112610adb578182fd5b50813567ffffffffffffffff811115610af2578182fd5b6020830191508360208083028501011115610b0c57600080fd5b9250929050565b80358015158114610b2357600080fd5b919050565b6000608082840312156109c5578081fd5b600060808284031215610b4a578081fd5b6040516080810181811067ffffffffffffffff82111715610b6757fe5b6040529050808235610b7881611193565b8152610b8660208401610b13565b60208201526040830135610b9981611193565b6040820152610baa60608401610b13565b60608201525092915050565b600060208284031215610bc7578081fd5b8135610bd281611193565b9392505050565b60006020808385031215610beb578182fd5b825167ffffffffffffffff811115610c01578283fd5b8301601f81018513610c11578283fd5b8051610c1f610a1b82611175565b8181528381019083850185840285018601891015610c3b578687fd5b8694505b83851015610c5d578051835260019490940193918501918501610c3f565b50979650505050505050565b60008060208385031215610c7b578081fd5b823567ffffffffffffffff80821115610c92578283fd5b818501915085601f830112610ca5578283fd5b813581811115610cb3578384fd5b866020608083028501011115610cc7578384fd5b60209290920196919550909350505050565b6000806000806000806000806101a0898b031215610cf5578384fd5b883560028110610d03578485fd5b9750602089013567ffffffffffffffff80821115610d1f578586fd5b610d2b8c838d01610aca565b909950975060408b0135915080821115610d43578586fd5b610d4f8c838d016109fb565b9650610d5e8c60608d01610b39565b955060e08b0135915080821115610d73578485fd5b50610d808b828c01610a70565b9350506101008901359150610d998a6101208b01610b28565b90509295985092959890939650565b6000815180845260208085019450808401835b83811015610ded57815173ffffffffffffffffffffffffffffffffffffffff1687529582019590820190600101610dbb565b509495945050505050565b6000815180845260208085019450808401835b83811015610ded57815187529582019590820190600101610e0b565b600082845282826020860137806020848601015260207fffffffffffffffffffffffffffffffffffffffffffffffffffffffffffffffe0601f85011685010190509392505050565b73ffffffffffffffffffffffffffffffffffffffff808251168352602082015115156020840152806040830151166040840152506060810151151560608301525050565b600060208252610bd26020830184610df8565b602080825282518282018190526000919060409081850190868401855b82811015610f4c578151805160048110610ef957fe5b85528087015173ffffffffffffffffffffffffffffffffffffffff908116888701528682015187870152606080830151821690870152608091820151169085015260a09093019290850190600101610ee3565b5091979650505050505050565b600061012080830160028b10610f6b57fe5b8a8452602080850192909252889052610140808401918981028501909101908a845b8b811015611098577ffffffffffffffffffffffffffffffffffffffffffffffffffffffffffffffec087850301855281357fffffffffffffffffffffffffffffffffffffffffffffffffffffffffffffff618e3603018112610fed578687fd5b8d01803585528381013584860152604080820135908601526060808201359086015260a0608080830135368490037fffffffffffffffffffffffffffffffffffffffffffffffffffffffffffffffe101811261104757898afd5b8301803567ffffffffffffffff81111561105f578a8bfd5b80360385131561106d578a8bfd5b83838a0152611081848a01828a8501610e27565b998801999850505093850193505050600101610f8d565b50505083810360408501526110ad8189610da8565b9150506110bd6060840187610e6f565b82810360e08401526110cf8186610df8565b9150508261010083015298975050505050505050565b60208082526011908201527f475076323a206e6f742063726561746f72000000000000000000000000000000604082015260600190565b6020808252818101527f475076323a2063616e6e6f74207472616e73666572206e617469766520455448604082015260600190565b60405181810167ffffffffffffffff8111828210171561116d57fe5b604052919050565b600067ffffffffffffffff82111561118957fe5b5060209081020190565b73ffffffffffffffffffffffffffffffffffffffff811681146111b557600080fd5b5056fea264697066735822122099788e3f7d116744ab53c427bf32aa960214ab953814fc5f0885fd4e363c08c564736f6c63430007060033",
  "linkReferences": {},
  "deployedLinkReferences": {}
}