{
  "_format": "hh-sol-artifact-1",
  "contractName": "ERC20PresetPermit",
  "sourceName": "src/contracts/test/ERC20PresetPermit.sol",
  "abi": [
    {
      "inputs": [
        {
          "internalType": "string",
          "name": "symbol",
          "type": "string"
        }
      ],
      "stateMutability": "nonpayable",
      "type": "constructor"
    },
    {
      "anonymous": false,
      "inputs": [
        {
          "indexed": true,
          "internalType": "address",
          "name": "owner",
          "type": "address"
        },
        {
          "indexed": true,
          "internalType": "address",
          "name": "spender",
          "type": "address"
        },
        {
          "indexed": false,
          "internalType": "uint256",
          "name": "value",
          "type": "uint256"
        }
      ],
      "name": "Approval",
      "type": "event"
    },
    {
      "anonymous": false,
      "inputs": [
        {
          "indexed": true,
          "internalType": "address",
          "name": "from",
          "type": "address"
        },
        {
          "indexed": true,
          "internalType": "address",
          "name": "to",
          "type": "address"
        },
        {
          "indexed": false,
          "internalType": "uint256",
          "name": "value",
          "type": "uint256"
        }
      ],
      "name": "Transfer",
      "type": "event"
    },
    {
      "inputs": [],
      "name": "DOMAIN_SEPARATOR",
      "outputs": [
        {
          "internalType": "bytes32",
          "name": "",
          "type": "bytes32"
        }
      ],
      "stateMutability": "view",
      "type": "function"
    },
    {
      "inputs": [
        {
          "internalType": "address",
          "name": "owner",
          "type": "address"
        },
        {
          "internalType": "address",
          "name": "spender",
          "type": "address"
        }
      ],
      "name": "allowance",
      "outputs": [
        {
          "internalType": "uint256",
          "name": "",
          "type": "uint256"
        }
      ],
      "stateMutability": "view",
      "type": "function"
    },
    {
      "inputs": [
        {
          "internalType": "address",
          "name": "spender",
          "type": "address"
        },
        {
          "internalType": "uint256",
          "name": "amount",
          "type": "uint256"
        }
      ],
      "name": "approve",
      "outputs": [
        {
          "internalType": "bool",
          "name": "",
          "type": "bool"
        }
      ],
      "stateMutability": "nonpayable",
      "type": "function"
    },
    {
      "inputs": [
        {
          "internalType": "address",
          "name": "account",
          "type": "address"
        }
      ],
      "name": "balanceOf",
      "outputs": [
        {
          "internalType": "uint256",
          "name": "",
          "type": "uint256"
        }
      ],
      "stateMutability": "view",
      "type": "function"
    },
    {
      "inputs": [],
      "name": "decimals",
      "outputs": [
        {
          "internalType": "uint8",
          "name": "",
          "type": "uint8"
        }
      ],
      "stateMutability": "view",
      "type": "function"
    },
    {
      "inputs": [
        {
          "internalType": "address",
          "name": "spender",
          "type": "address"
        },
        {
          "internalType": "uint256",
          "name": "subtractedValue",
          "type": "uint256"
        }
      ],
      "name": "decreaseAllowance",
      "outputs": [
        {
          "internalType": "bool",
          "name": "",
          "type": "bool"
        }
      ],
      "stateMutability": "nonpayable",
      "type": "function"
    },
    {
      "inputs": [
        {
          "internalType": "address",
          "name": "spender",
          "type": "address"
        },
        {
          "internalType": "uint256",
          "name": "addedValue",
          "type": "uint256"
        }
      ],
      "name": "increaseAllowance",
      "outputs": [
        {
          "internalType": "bool",
          "name": "",
          "type": "bool"
        }
      ],
      "stateMutability": "nonpayable",
      "type": "function"
    },
    {
      "inputs": [
        {
          "internalType": "address",
          "name": "to",
          "type": "address"
        },
        {
          "internalType": "uint256",
          "name": "amount",
          "type": "uint256"
        }
      ],
      "name": "mint",
      "outputs": [],
      "stateMutability": "nonpayable",
      "type": "function"
    },
    {
      "inputs": [],
      "name": "name",
      "outputs": [
        {
          "internalType": "string",
          "name": "",
          "type": "string"
        }
      ],
      "stateMutability": "view",
      "type": "function"
    },
    {
      "inputs": [
        {
          "internalType": "address",
          "name": "owner",
          "type": "address"
        }
      ],
      "name": "nonces",
      "outputs": [
        {
          "internalType": "uint256",
          "name": "",
          "type": "uint256"
        }
      ],
      "stateMutability": "view",
      "type": "function"
    },
    {
      "inputs": [
        {
          "internalType": "address",
          "name": "owner",
          "type": "address"
        },
        {
          "internalType": "address",
          "name": "spender",
          "type": "address"
        },
        {
          "internalType": "uint256",
          "name": "value",
          "type": "uint256"
        },
        {
          "internalType": "uint256",
          "name": "deadline",
          "type": "uint256"
        },
        {
          "internalType": "uint8",
          "name": "v",
          "type": "uint8"
        },
        {
          "internalType": "bytes32",
          "name": "r",
          "type": "bytes32"
        },
        {
          "internalType": "bytes32",
          "name": "s",
          "type": "bytes32"
        }
      ],
      "name": "permit",
      "outputs": [],
      "stateMutability": "nonpayable",
      "type": "function"
    },
    {
      "inputs": [],
      "name": "symbol",
      "outputs": [
        {
          "internalType": "string",
          "name": "",
          "type": "string"
        }
      ],
      "stateMutability": "view",
      "type": "function"
    },
    {
      "inputs": [],
      "name": "totalSupply",
      "outputs": [
        {
          "internalType": "uint256",
          "name": "",
          "type": "uint256"
        }
      ],
      "stateMutability": "view",
      "type": "function"
    },
    {
      "inputs": [
        {
          "internalType": "address",
          "name": "recipient",
          "type": "address"
        },
        {
          "internalType": "uint256",
          "name": "amount",
          "type": "uint256"
        }
      ],
      "name": "transfer",
      "outputs": [
        {
          "internalType": "bool",
          "name": "",
          "type": "bool"
        }
      ],
      "stateMutability": "nonpayable",
      "type": "function"
    },
    {
      "inputs": [
        {
          "internalType": "address",
          "name": "sender",
          "type": "address"
        },
        {
          "internalType": "address",
          "name": "recipient",
          "type": "address"
        },
        {
          "internalType": "uint256",
          "name": "amount",
          "type": "uint256"
        }
      ],
      "name": "transferFrom",
      "outputs": [
        {
          "internalType": "bool",
          "name": "",
          "type": "bool"
        }
      ],
      "stateMutability": "nonpayable",
      "type": "function"
    }
  ],
  "bytecode": "0x6101406040527f6e71edae12b1b97f4d1f60370fef10105fa2faae0126114a169c64845d6126c9610120523480156200003757600080fd5b50604051620017dd380380620017dd833981810160405260208110156200005d57600080fd5b81019080805160405193929190846401000000008211156200007e57600080fd5b9083019060208201858111156200009457600080fd5b8251640100000000811182820188101715620000af57600080fd5b82525081516020918201929091019080838360005b83811015620000de578181015183820152602001620000c4565b50505050905090810190601f1680156200010c5780820380516001836020036101000a031916815260200191505b506040525050508080604051806040016040528060018152602001603160f81b815250838481600390805190602001906200014992919062000244565b5080516200015f90600490602084019062000244565b50506005805460ff1916601217905550815160208084019190912082519183019190912060c082905260e08190527f8b73c3c69bb8fe3d512ecc4cf759cc79239f7b179b0ffacaa9a75d522b39400f620001b8620001dc565b60a052620001c8818484620001e0565b6080526101005250620002f0945050505050565b4690565b6000838383620001ef620001dc565b3060405160200180868152602001858152602001848152602001838152602001826001600160a01b03168152602001955050505050506040516020818303038152906040528051906020012090509392505050565b828054600181600116156101000203166002900490600052602060002090601f0160209004810192826200027c5760008555620002c7565b82601f106200029757805160ff1916838001178555620002c7565b82800160010185558215620002c7579182015b82811115620002c7578251825591602001919060010190620002aa565b50620002d5929150620002d9565b5090565b5b80821115620002d55760008155600101620002da565b60805160a05160c05160e05161010051610120516114a36200033a60003980610828525080610e2c525080610e6e525080610e4d525080610dd3525080610e0352506114a36000f3fe608060405234801561001057600080fd5b50600436106100f55760003560e01c806340c10f1911610097578063a457c2d711610066578063a457c2d714610329578063a9059cbb14610362578063d505accf1461039b578063dd62ed3e146103f9576100f5565b806340c10f191461028057806370a08231146102bb5780637ecebe00146102ee57806395d89b4114610321576100f5565b806323b872dd116100d357806323b872dd146101de578063313ce567146102215780633644e5151461023f5780633950935114610247576100f5565b806306fdde03146100fa578063095ea7b31461017757806318160ddd146101c4575b600080fd5b610102610434565b6040805160208082528351818301528351919283929083019185019080838360005b8381101561013c578181015183820152602001610124565b50505050905090810190601f1680156101695780820380516001836020036101000a031916815260200191505b509250505060405180910390f35b6101b06004803603604081101561018d57600080fd5b5073ffffffffffffffffffffffffffffffffffffffff81351690602001356104e9565b604080519115158252519081900360200190f35b6101cc610506565b60408051918252519081900360200190f35b6101b0600480360360608110156101f457600080fd5b5073ffffffffffffffffffffffffffffffffffffffff81358116916020810135909116906040013561050c565b6102296105ad565b6040805160ff9092168252519081900360200190f35b6101cc6105b6565b6101b06004803603604081101561025d57600080fd5b5073ffffffffffffffffffffffffffffffffffffffff81351690602001356105c5565b6102b96004803603604081101561029657600080fd5b5073ffffffffffffffffffffffffffffffffffffffff8135169060200135610620565b005b6101cc600480360360208110156102d157600080fd5b503573ffffffffffffffffffffffffffffffffffffffff1661062e565b6101cc6004803603602081101561030457600080fd5b503573ffffffffffffffffffffffffffffffffffffffff16610656565b61010261068a565b6101b06004803603604081101561033f57600080fd5b5073ffffffffffffffffffffffffffffffffffffffff8135169060200135610709565b6101b06004803603604081101561037857600080fd5b5073ffffffffffffffffffffffffffffffffffffffff813516906020013561077e565b6102b9600480360360e08110156103b157600080fd5b5073ffffffffffffffffffffffffffffffffffffffff813581169160208101359091169060408101359060608101359060ff6080820135169060a08101359060c00135610792565b6101cc6004803603604081101561040f57600080fd5b5073ffffffffffffffffffffffffffffffffffffffff813581169160200135166109cb565b60038054604080516020601f60027fffffffffffffffffffffffffffffffffffffffffffffffffffffffffffffffff6101006001881615020190951694909404938401819004810282018101909252828152606093909290918301828280156104de5780601f106104b3576101008083540402835291602001916104de565b820191906000526020600020905b8154815290600101906020018083116104c157829003601f168201915b505050505090505b90565b60006104fd6104f6610a03565b8484610a07565b50600192915050565b60025490565b6000610519848484610b4e565b6105a384610525610a03565b61059e856040518060600160405280602881526020016113d86028913973ffffffffffffffffffffffffffffffffffffffff8a16600090815260016020526040812090610570610a03565b73ffffffffffffffffffffffffffffffffffffffff1681526020810191909152604001600020549190610d1e565b610a07565b5060019392505050565b60055460ff1690565b60006105c0610dcf565b905090565b60006104fd6105d2610a03565b8461059e85600160006105e3610a03565b73ffffffffffffffffffffffffffffffffffffffff908116825260208083019390935260409182016000908120918c168152925290205490610e99565b61062a8282610f14565b5050565b73ffffffffffffffffffffffffffffffffffffffff1660009081526020819052604090205490565b73ffffffffffffffffffffffffffffffffffffffff8116600090815260066020526040812061068490611045565b92915050565b60048054604080516020601f60027fffffffffffffffffffffffffffffffffffffffffffffffffffffffffffffffff6101006001881615020190951694909404938401819004810282018101909252828152606093909290918301828280156104de5780601f106104b3576101008083540402835291602001916104de565b60006104fd610716610a03565b8461059e856040518060600160405280602581526020016114496025913960016000610740610a03565b73ffffffffffffffffffffffffffffffffffffffff908116825260208083019390935260409182016000908120918d16815292529020549190610d1e565b60006104fd61078b610a03565b8484610b4e565b8342111561080157604080517f08c379a000000000000000000000000000000000000000000000000000000000815260206004820152601d60248201527f45524332305065726d69743a206578706972656420646561646c696e65000000604482015290519081900360640190fd5b73ffffffffffffffffffffffffffffffffffffffff871660009081526006602052604081207f00000000000000000000000000000000000000000000000000000000000000009089908990899061085790611045565b89604051602001808781526020018673ffffffffffffffffffffffffffffffffffffffff1681526020018573ffffffffffffffffffffffffffffffffffffffff168152602001848152602001838152602001828152602001965050505050505060405160208183030381529060405280519060200120905060006108da82611049565b905060006108ea828787876110b0565b90508973ffffffffffffffffffffffffffffffffffffffff168173ffffffffffffffffffffffffffffffffffffffff161461098657604080517f08c379a000000000000000000000000000000000000000000000000000000000815260206004820152601e60248201527f45524332305065726d69743a20696e76616c6964207369676e61747572650000604482015290519081900360640190fd5b73ffffffffffffffffffffffffffffffffffffffff8a1660009081526006602052604090206109b4906112a7565b6109bf8a8a8a610a07565b50505050505050505050565b73ffffffffffffffffffffffffffffffffffffffff918216600090815260016020908152604080832093909416825291909152205490565b3390565b73ffffffffffffffffffffffffffffffffffffffff8316610a73576040517f08c379a00000000000000000000000000000000000000000000000000000000081526004018080602001828103825260248152602001806114256024913960400191505060405180910390fd5b73ffffffffffffffffffffffffffffffffffffffff8216610adf576040517f08c379a000000000000000000000000000000000000000000000000000000000815260040180806020018281038252602281526020018061134c6022913960400191505060405180910390fd5b73ffffffffffffffffffffffffffffffffffffffff808416600081815260016020908152604080832094871680845294825291829020859055815185815291517f8c5be1e5ebec7d5bd14f71427d1e84f3dd0314c0f7b2291e5b200ac8c7c3b9259281900390910190a3505050565b73ffffffffffffffffffffffffffffffffffffffff8316610bba576040517f08c379a00000000000000000000000000000000000000000000000000000000081526004018080602001828103825260258152602001806114006025913960400191505060405180910390fd5b73ffffffffffffffffffffffffffffffffffffffff8216610c26576040517f08c379a00000000000000000000000000000000000000000000000000000000081526004018080602001828103825260238152602001806113296023913960400191505060405180910390fd5b610c318383836112b0565b610c7b8160405180606001604052806026815260200161136e6026913973ffffffffffffffffffffffffffffffffffffffff86166000908152602081905260409020549190610d1e565b73ffffffffffffffffffffffffffffffffffffffff8085166000908152602081905260408082209390935590841681522054610cb79082610e99565b73ffffffffffffffffffffffffffffffffffffffff8084166000818152602081815260409182902094909455805185815290519193928716927fddf252ad1be2c89b69c2b068fc378daa952ba7f163c4a11628f55a4df523b3ef92918290030190a3505050565b60008184841115610dc7576040517f08c379a00000000000000000000000000000000000000000000000000000000081526004018080602001828103825283818151815260200191508051906020019080838360005b83811015610d8c578181015183820152602001610d74565b50505050905090810190601f168015610db95780820380516001836020036101000a031916815260200191505b509250505060405180910390fd5b505050900390565b60007f0000000000000000000000000000000000000000000000000000000000000000610dfa6112b5565b1415610e2757507f00000000000000000000000000000000000000000000000000000000000000006104e6565b610e927f00000000000000000000000000000000000000000000000000000000000000007f00000000000000000000000000000000000000000000000000000000000000007f00000000000000000000000000000000000000000000000000000000000000006112b9565b90506104e6565b600082820183811015610f0d57604080517f08c379a000000000000000000000000000000000000000000000000000000000815260206004820152601b60248201527f536166654d6174683a206164646974696f6e206f766572666c6f770000000000604482015290519081900360640190fd5b9392505050565b73ffffffffffffffffffffffffffffffffffffffff8216610f9657604080517f08c379a000000000000000000000000000000000000000000000000000000000815260206004820152601f60248201527f45524332303a206d696e7420746f20746865207a65726f206164647265737300604482015290519081900360640190fd5b610fa2600083836112b0565b600254610faf9082610e99565b60025573ffffffffffffffffffffffffffffffffffffffff8216600090815260208190526040902054610fe29082610e99565b73ffffffffffffffffffffffffffffffffffffffff83166000818152602081815260408083209490945583518581529351929391927fddf252ad1be2c89b69c2b068fc378daa952ba7f163c4a11628f55a4df523b3ef9281900390910190a35050565b5490565b6000611053610dcf565b8260405160200180807f190100000000000000000000000000000000000000000000000000000000000081525060020183815260200182815260200192505050604051602081830303815290604052805190602001209050919050565b60007f7fffffffffffffffffffffffffffffff5d576e7357a4501ddfe92f46681b20a082111561112b576040517f08c379a00000000000000000000000000000000000000000000000000000000081526004018080602001828103825260228152602001806113946022913960400191505060405180910390fd5b8360ff16601b148061114057508360ff16601c145b611195576040517f08c379a00000000000000000000000000000000000000000000000000000000081526004018080602001828103825260228152602001806113b66022913960400191505060405180910390fd5b600060018686868660405160008152602001604052604051808581526020018460ff1681526020018381526020018281526020019450505050506020604051602081039080840390855afa1580156111f1573d6000803e3d6000fd5b50506040517fffffffffffffffffffffffffffffffffffffffffffffffffffffffffffffffe0015191505073ffffffffffffffffffffffffffffffffffffffff811661129e57604080517f08c379a000000000000000000000000000000000000000000000000000000000815260206004820152601860248201527f45434453413a20696e76616c6964207369676e61747572650000000000000000604482015290519081900360640190fd5b95945050505050565b80546001019055565b505050565b4690565b60008383836112c66112b5565b30604051602001808681526020018581526020018481526020018381526020018273ffffffffffffffffffffffffffffffffffffffff16815260200195505050505050604051602081830303815290604052805190602001209050939250505056fe45524332303a207472616e7366657220746f20746865207a65726f206164647265737345524332303a20617070726f766520746f20746865207a65726f206164647265737345524332303a207472616e7366657220616d6f756e7420657863656564732062616c616e636545434453413a20696e76616c6964207369676e6174757265202773272076616c756545434453413a20696e76616c6964207369676e6174757265202776272076616c756545524332303a207472616e7366657220616d6f756e74206578636565647320616c6c6f77616e636545524332303a207472616e736665722066726f6d20746865207a65726f206164647265737345524332303a20617070726f76652066726f6d20746865207a65726f206164647265737345524332303a2064656372656173656420616c6c6f77616e63652062656c6f77207a65726fa2646970667358221220e653d5111a67732e3b470da50e448aa96c25a20005fee32aa6052f8087eaf6a064736f6c63430007060033",
  "linkReferences": {},
  "deployedLinkReferences": {}
}